{
  "_format": "hh-sol-artifact-1",
  "contractName": "ERC721Base",
  "sourceName": "@thirdweb-dev/contracts/base/ERC721Base.sol",
  "abi": [
    {
      "inputs": [
        {
          "internalType": "string",
          "name": "_name",
          "type": "string"
        },
        {
          "internalType": "string",
          "name": "_symbol",
          "type": "string"
        },
        {
          "internalType": "address",
          "name": "_royaltyRecipient",
          "type": "address"
        },
        {
          "internalType": "uint128",
          "name": "_royaltyBps",
          "type": "uint128"
        }
      ],
      "stateMutability": "nonpayable",
      "type": "constructor"
    },
    {
      "inputs": [],
      "name": "ApprovalCallerNotOwnerNorApproved",
      "type": "error"
    },
    {
      "inputs": [],
      "name": "ApprovalQueryForNonexistentToken",
      "type": "error"
    },
    {
      "inputs": [],
      "name": "ApprovalToCurrentOwner",
      "type": "error"
    },
    {
      "inputs": [],
      "name": "ApproveToCaller",
      "type": "error"
    },
    {
      "inputs": [],
      "name": "BalanceQueryForZeroAddress",
      "type": "error"
    },
    {
      "inputs": [],
      "name": "MintToZeroAddress",
      "type": "error"
    },
    {
      "inputs": [],
      "name": "MintZeroQuantity",
      "type": "error"
    },
    {
      "inputs": [
        {
          "internalType": "address",
          "name": "operator",
          "type": "address"
        }
      ],
      "name": "OperatorNotAllowed",
      "type": "error"
    },
    {
      "inputs": [],
      "name": "OwnerQueryForNonexistentToken",
      "type": "error"
    },
    {
      "inputs": [],
      "name": "TransferCallerNotOwnerNorApproved",
      "type": "error"
    },
    {
      "inputs": [],
      "name": "TransferFromIncorrectOwner",
      "type": "error"
    },
    {
      "inputs": [],
      "name": "TransferToNonERC721ReceiverImplementer",
      "type": "error"
    },
    {
      "inputs": [],
      "name": "TransferToZeroAddress",
      "type": "error"
    },
    {
      "inputs": [],
      "name": "URIQueryForNonexistentToken",
      "type": "error"
    },
    {
      "anonymous": false,
      "inputs": [
        {
          "indexed": true,
          "internalType": "address",
          "name": "owner",
          "type": "address"
        },
        {
          "indexed": true,
          "internalType": "address",
          "name": "approved",
          "type": "address"
        },
        {
          "indexed": true,
          "internalType": "uint256",
          "name": "tokenId",
          "type": "uint256"
        }
      ],
      "name": "Approval",
      "type": "event"
    },
    {
      "anonymous": false,
      "inputs": [
        {
          "indexed": true,
          "internalType": "address",
          "name": "owner",
          "type": "address"
        },
        {
          "indexed": true,
          "internalType": "address",
          "name": "operator",
          "type": "address"
        },
        {
          "indexed": false,
          "internalType": "bool",
          "name": "approved",
          "type": "bool"
        }
      ],
      "name": "ApprovalForAll",
      "type": "event"
    },
    {
      "anonymous": false,
      "inputs": [
        {
          "indexed": false,
          "internalType": "string",
          "name": "prevURI",
          "type": "string"
        },
        {
          "indexed": false,
          "internalType": "string",
          "name": "newURI",
          "type": "string"
        }
      ],
      "name": "ContractURIUpdated",
      "type": "event"
    },
    {
      "anonymous": false,
      "inputs": [
        {
          "indexed": true,
          "internalType": "address",
          "name": "newRoyaltyRecipient",
          "type": "address"
        },
        {
          "indexed": false,
          "internalType": "uint256",
          "name": "newRoyaltyBps",
          "type": "uint256"
        }
      ],
      "name": "DefaultRoyalty",
      "type": "event"
    },
    {
      "anonymous": false,
      "inputs": [
        {
          "indexed": false,
          "internalType": "bool",
          "name": "restriction",
          "type": "bool"
        }
      ],
      "name": "OperatorRestriction",
      "type": "event"
    },
    {
      "anonymous": false,
      "inputs": [
        {
          "indexed": true,
          "internalType": "address",
          "name": "prevOwner",
          "type": "address"
        },
        {
          "indexed": true,
          "internalType": "address",
          "name": "newOwner",
          "type": "address"
        }
      ],
      "name": "OwnerUpdated",
      "type": "event"
    },
    {
      "anonymous": false,
      "inputs": [
        {
          "indexed": true,
          "internalType": "uint256",
          "name": "tokenId",
          "type": "uint256"
        },
        {
          "indexed": true,
          "internalType": "address",
          "name": "royaltyRecipient",
          "type": "address"
        },
        {
          "indexed": false,
          "internalType": "uint256",
          "name": "royaltyBps",
          "type": "uint256"
        }
      ],
      "name": "RoyaltyForToken",
      "type": "event"
    },
    {
      "anonymous": false,
      "inputs": [
        {
          "indexed": true,
          "internalType": "address",
          "name": "from",
          "type": "address"
        },
        {
          "indexed": true,
          "internalType": "address",
          "name": "to",
          "type": "address"
        },
        {
          "indexed": true,
          "internalType": "uint256",
          "name": "tokenId",
          "type": "uint256"
        }
      ],
      "name": "Transfer",
      "type": "event"
    },
    {
      "inputs": [],
      "name": "OPERATOR_FILTER_REGISTRY",
      "outputs": [
        {
          "internalType": "contract IOperatorFilterRegistry",
          "name": "",
          "type": "address"
        }
      ],
      "stateMutability": "view",
      "type": "function"
    },
    {
      "inputs": [
        {
          "internalType": "address",
          "name": "operator",
          "type": "address"
        },
        {
          "internalType": "uint256",
          "name": "tokenId",
          "type": "uint256"
        }
      ],
      "name": "approve",
      "outputs": [],
      "stateMutability": "nonpayable",
      "type": "function"
    },
    {
      "inputs": [
        {
          "internalType": "address",
          "name": "owner",
          "type": "address"
        }
      ],
      "name": "balanceOf",
      "outputs": [
        {
          "internalType": "uint256",
          "name": "",
          "type": "uint256"
        }
      ],
      "stateMutability": "view",
      "type": "function"
    },
    {
      "inputs": [
        {
          "internalType": "address",
          "name": "_to",
          "type": "address"
        },
        {
          "internalType": "uint256",
          "name": "_quantity",
          "type": "uint256"
        },
        {
          "internalType": "string",
          "name": "_baseURI",
          "type": "string"
        },
        {
          "internalType": "bytes",
          "name": "_data",
          "type": "bytes"
        }
      ],
      "name": "batchMintTo",
      "outputs": [],
      "stateMutability": "nonpayable",
      "type": "function"
    },
    {
      "inputs": [
        {
          "internalType": "uint256",
          "name": "_tokenId",
          "type": "uint256"
        }
      ],
      "name": "burn",
      "outputs": [],
      "stateMutability": "nonpayable",
      "type": "function"
    },
    {
      "inputs": [],
      "name": "contractURI",
      "outputs": [
        {
          "internalType": "string",
          "name": "",
          "type": "string"
        }
      ],
      "stateMutability": "view",
      "type": "function"
    },
    {
      "inputs": [
        {
          "internalType": "uint256",
          "name": "tokenId",
          "type": "uint256"
        }
      ],
      "name": "getApproved",
      "outputs": [
        {
          "internalType": "address",
          "name": "",
          "type": "address"
        }
      ],
      "stateMutability": "view",
      "type": "function"
    },
    {
      "inputs": [],
      "name": "getBaseURICount",
      "outputs": [
        {
          "internalType": "uint256",
          "name": "",
          "type": "uint256"
        }
      ],
      "stateMutability": "view",
      "type": "function"
    },
    {
      "inputs": [
        {
          "internalType": "uint256",
          "name": "_index",
          "type": "uint256"
        }
      ],
      "name": "getBatchIdAtIndex",
      "outputs": [
        {
          "internalType": "uint256",
          "name": "",
          "type": "uint256"
        }
      ],
      "stateMutability": "view",
      "type": "function"
    },
    {
      "inputs": [],
      "name": "getDefaultRoyaltyInfo",
      "outputs": [
        {
          "internalType": "address",
          "name": "",
          "type": "address"
        },
        {
          "internalType": "uint16",
          "name": "",
          "type": "uint16"
        }
      ],
      "stateMutability": "view",
      "type": "function"
    },
    {
      "inputs": [
        {
          "internalType": "uint256",
          "name": "_tokenId",
          "type": "uint256"
        }
      ],
      "name": "getRoyaltyInfoForToken",
      "outputs": [
        {
          "internalType": "address",
          "name": "",
          "type": "address"
        },
        {
          "internalType": "uint16",
          "name": "",
          "type": "uint16"
        }
      ],
      "stateMutability": "view",
      "type": "function"
    },
    {
      "inputs": [
        {
          "internalType": "address",
          "name": "owner",
          "type": "address"
        },
        {
          "internalType": "address",
          "name": "operator",
          "type": "address"
        }
      ],
      "name": "isApprovedForAll",
      "outputs": [
        {
          "internalType": "bool",
          "name": "",
          "type": "bool"
        }
      ],
      "stateMutability": "view",
      "type": "function"
    },
    {
      "inputs": [
        {
          "internalType": "address",
          "name": "_operator",
          "type": "address"
        },
        {
          "internalType": "uint256",
          "name": "_tokenId",
          "type": "uint256"
        }
      ],
      "name": "isApprovedOrOwner",
      "outputs": [
        {
          "internalType": "bool",
          "name": "isApprovedOrOwnerOf",
          "type": "bool"
        }
      ],
      "stateMutability": "view",
      "type": "function"
    },
    {
      "inputs": [
        {
          "internalType": "address",
          "name": "_to",
          "type": "address"
        },
        {
          "internalType": "string",
          "name": "_tokenURI",
          "type": "string"
        }
      ],
      "name": "mintTo",
      "outputs": [],
      "stateMutability": "nonpayable",
      "type": "function"
    },
    {
      "inputs": [
        {
          "internalType": "bytes[]",
          "name": "data",
          "type": "bytes[]"
        }
      ],
      "name": "multicall",
      "outputs": [
        {
          "internalType": "bytes[]",
          "name": "results",
          "type": "bytes[]"
        }
      ],
      "stateMutability": "nonpayable",
      "type": "function"
    },
    {
      "inputs": [],
      "name": "name",
      "outputs": [
        {
          "internalType": "string",
          "name": "",
          "type": "string"
        }
      ],
      "stateMutability": "view",
      "type": "function"
    },
    {
      "inputs": [],
      "name": "nextTokenIdToMint",
      "outputs": [
        {
          "internalType": "uint256",
          "name": "",
          "type": "uint256"
        }
      ],
      "stateMutability": "view",
      "type": "function"
    },
    {
      "inputs": [],
      "name": "operatorRestriction",
      "outputs": [
        {
          "internalType": "bool",
          "name": "",
          "type": "bool"
        }
      ],
      "stateMutability": "view",
      "type": "function"
    },
    {
      "inputs": [],
      "name": "owner",
      "outputs": [
        {
          "internalType": "address",
          "name": "",
          "type": "address"
        }
      ],
      "stateMutability": "view",
      "type": "function"
    },
    {
      "inputs": [
        {
          "internalType": "uint256",
          "name": "tokenId",
          "type": "uint256"
        }
      ],
      "name": "ownerOf",
      "outputs": [
        {
          "internalType": "address",
          "name": "",
          "type": "address"
        }
      ],
      "stateMutability": "view",
      "type": "function"
    },
    {
      "inputs": [
        {
          "internalType": "uint256",
          "name": "tokenId",
          "type": "uint256"
        },
        {
          "internalType": "uint256",
          "name": "salePrice",
          "type": "uint256"
        }
      ],
      "name": "royaltyInfo",
      "outputs": [
        {
          "internalType": "address",
          "name": "receiver",
          "type": "address"
        },
        {
          "internalType": "uint256",
          "name": "royaltyAmount",
          "type": "uint256"
        }
      ],
      "stateMutability": "view",
      "type": "function"
    },
    {
      "inputs": [
        {
          "internalType": "address",
          "name": "from",
          "type": "address"
        },
        {
          "internalType": "address",
          "name": "to",
          "type": "address"
        },
        {
          "internalType": "uint256",
          "name": "tokenId",
          "type": "uint256"
        }
      ],
      "name": "safeTransferFrom",
      "outputs": [],
      "stateMutability": "nonpayable",
      "type": "function"
    },
    {
      "inputs": [
        {
          "internalType": "address",
          "name": "from",
          "type": "address"
        },
        {
          "internalType": "address",
          "name": "to",
          "type": "address"
        },
        {
          "internalType": "uint256",
          "name": "tokenId",
          "type": "uint256"
        },
        {
          "internalType": "bytes",
          "name": "data",
          "type": "bytes"
        }
      ],
      "name": "safeTransferFrom",
      "outputs": [],
      "stateMutability": "nonpayable",
      "type": "function"
    },
    {
      "inputs": [
        {
          "internalType": "address",
          "name": "operator",
          "type": "address"
        },
        {
          "internalType": "bool",
          "name": "approved",
          "type": "bool"
        }
      ],
      "name": "setApprovalForAll",
      "outputs": [],
      "stateMutability": "nonpayable",
      "type": "function"
    },
    {
      "inputs": [
        {
          "internalType": "string",
          "name": "_uri",
          "type": "string"
        }
      ],
      "name": "setContractURI",
      "outputs": [],
      "stateMutability": "nonpayable",
      "type": "function"
    },
    {
      "inputs": [
        {
          "internalType": "address",
          "name": "_royaltyRecipient",
          "type": "address"
        },
        {
          "internalType": "uint256",
          "name": "_royaltyBps",
          "type": "uint256"
        }
      ],
      "name": "setDefaultRoyaltyInfo",
      "outputs": [],
      "stateMutability": "nonpayable",
      "type": "function"
    },
    {
      "inputs": [
        {
          "internalType": "bool",
          "name": "_restriction",
          "type": "bool"
        }
      ],
      "name": "setOperatorRestriction",
      "outputs": [],
      "stateMutability": "nonpayable",
      "type": "function"
    },
    {
      "inputs": [
        {
          "internalType": "address",
          "name": "_newOwner",
          "type": "address"
        }
      ],
      "name": "setOwner",
      "outputs": [],
      "stateMutability": "nonpayable",
      "type": "function"
    },
    {
      "inputs": [
        {
          "internalType": "uint256",
          "name": "_tokenId",
          "type": "uint256"
        },
        {
          "internalType": "address",
          "name": "_recipient",
          "type": "address"
        },
        {
          "internalType": "uint256",
          "name": "_bps",
          "type": "uint256"
        }
      ],
      "name": "setRoyaltyInfoForToken",
      "outputs": [],
      "stateMutability": "nonpayable",
      "type": "function"
    },
    {
      "inputs": [
        {
          "internalType": "address",
          "name": "_subscription",
          "type": "address"
        }
      ],
      "name": "subscribeToRegistry",
      "outputs": [],
      "stateMutability": "nonpayable",
      "type": "function"
    },
    {
      "inputs": [
        {
          "internalType": "bytes4",
          "name": "interfaceId",
          "type": "bytes4"
        }
      ],
      "name": "supportsInterface",
      "outputs": [
        {
          "internalType": "bool",
          "name": "",
          "type": "bool"
        }
      ],
      "stateMutability": "view",
      "type": "function"
    },
    {
      "inputs": [],
      "name": "symbol",
      "outputs": [
        {
          "internalType": "string",
          "name": "",
          "type": "string"
        }
      ],
      "stateMutability": "view",
      "type": "function"
    },
    {
      "inputs": [
        {
          "internalType": "uint256",
          "name": "_tokenId",
          "type": "uint256"
        }
      ],
      "name": "tokenURI",
      "outputs": [
        {
          "internalType": "string",
          "name": "",
          "type": "string"
        }
      ],
      "stateMutability": "view",
      "type": "function"
    },
    {
      "inputs": [],
      "name": "totalSupply",
      "outputs": [
        {
          "internalType": "uint256",
          "name": "",
          "type": "uint256"
        }
      ],
      "stateMutability": "view",
      "type": "function"
    },
    {
      "inputs": [
        {
          "internalType": "address",
          "name": "from",
          "type": "address"
        },
        {
          "internalType": "address",
          "name": "to",
          "type": "address"
        },
        {
          "internalType": "uint256",
          "name": "tokenId",
          "type": "uint256"
        }
      ],
      "name": "transferFrom",
      "outputs": [],
      "stateMutability": "nonpayable",
      "type": "function"
    }
  ],
  "bytecode": "0x60806040523480156200001157600080fd5b5060405162002f4f38038062002f4f8339810160408190526200003491620004ac565b733cc6cdda760b79bafa08df41ecfa224f810dceb66001858581600290805190602001906200006592919062000339565b5080516200007b90600390602084019062000339565b505060008055506200008e8282620000c7565b506200009c905033620001f5565b620000b1826001600160801b03831662000247565b620000bd6001620002f2565b5050505062000595565b6daaeb6d7670e522a718067333cd4e3b15620001f1576001600160a01b0382163b15620001aa5780156200016957604051633e9f1edf60e11b81523060048201526001600160a01b03831660248201526daaeb6d7670e522a718067333cd4e90637d3e3dbe906044015b600060405180830381600087803b1580156200014c57600080fd5b505af115801562000161573d6000803e3d6000fd5b505050505050565b60405163a0af290360e01b81523060048201526001600160a01b03831660248201526daaeb6d7670e522a718067333cd4e9063a0af29039060440162000131565b604051632210724360e11b81523060048201526daaeb6d7670e522a718067333cd4e90634420e48690602401600060405180830381600087803b1580156200014c57600080fd5b5050565b600980546001600160a01b038381166001600160a01b0319831681179093556040519116919082907f8292fce18fa69edf4db7b94ea2e58241df0ae57f97e0a6c9b29067028bf92d7690600090a35050565b612710811115620002905760405162461bcd60e51b815260206004820152600f60248201526e45786365656473206d61782062707360881b604482015260640160405180910390fd5b600a80546001600160a01b0384166001600160b01b03199091168117600160a01b61ffff851602179091556040518281527f90d7ec04bcb8978719414f82e52e4cb651db41d0e6f8cea6118c2191e6183adb9060200160405180910390a25050565b600e805460ff19168215159081179091556040519081527f38475885990d8dfe9ca01f0ef160a1b5514426eab9ddbc953a3353410ba780969060200160405180910390a150565b828054620003479062000558565b90600052602060002090601f0160209004810192826200036b5760008555620003b6565b82601f106200038657805160ff1916838001178555620003b6565b82800160010185558215620003b6579182015b82811115620003b657825182559160200191906001019062000399565b50620003c4929150620003c8565b5090565b5b80821115620003c45760008155600101620003c9565b634e487b7160e01b600052604160045260246000fd5b600082601f8301126200040757600080fd5b81516001600160401b0380821115620004245762000424620003df565b604051601f8301601f19908116603f011681019082821181831017156200044f576200044f620003df565b816040528381526020925086838588010111156200046c57600080fd5b600091505b8382101562000490578582018301518183018401529082019062000471565b83821115620004a25760008385830101525b9695505050505050565b60008060008060808587031215620004c357600080fd5b84516001600160401b0380821115620004db57600080fd5b620004e988838901620003f5565b955060208701519150808211156200050057600080fd5b506200050f87828801620003f5565b604087015190945090506001600160a01b03811681146200052f57600080fd5b60608601519092506001600160801b03811681146200054d57600080fd5b939692955090935050565b600181811c908216806200056d57607f821691505b602082108114156200058f57634e487b7160e01b600052602260045260246000fd5b50919050565b6129aa80620005a56000396000f3fe608060405234801561001057600080fd5b50600436106102105760003560e01c8063504c6e011161012557806395d89b41116100ad578063b24f2d391161007c578063b24f2d39146104aa578063b88d4fde146104c8578063c87b56dd146104db578063e8a3d485146104ee578063e985e9c5146104f657600080fd5b806395d89b411461045c5780639bcf7a1514610464578063a22cb46514610477578063ac9650d81461048a57600080fd5b806363b45e2d116100f457806363b45e2d1461040a57806370a0823114610412578063754a81d9146104255780638da5cb5b14610438578063938e3d7b1461044957600080fd5b8063504c6e01146103c457806357fd8455146103d1578063600dd5ea146103e45780636352211e146103f757600080fd5b80632419f51b116101a857806341f434341161017757806341f434341461034157806342842e0e1461035657806342966c6814610369578063430c20811461037c5780634cc157df1461038f57600080fd5b80632419f51b146102e15780632a55205a146102f457806332f0cd64146103265780633b1475a71461033957600080fd5b8063095ea7b3116101e4578063095ea7b31461029257806313af4035146102a557806318160ddd146102b857806323b872dd146102ce57600080fd5b806275a3171461021557806301ffc9a71461022a57806306fdde0314610252578063081812fc14610267575b600080fd5b610228610223366004612281565b610532565b005b61023d6102383660046122e4565b6105b6565b60405190151581526020015b60405180910390f35b61025a610623565b6040516102499190612359565b61027a61027536600461236c565b6106b5565b6040516001600160a01b039091168152602001610249565b6102286102a0366004612385565b6106f9565b6102286102b33660046123af565b610712565b600154600054035b604051908152602001610249565b6102286102dc3660046123ca565b610742565b6102c06102ef36600461236c565b61076d565b610307610302366004612406565b6107db565b604080516001600160a01b039093168352602083019190915201610249565b610228610334366004612436565b610818565b6000546102c0565b61027a6daaeb6d7670e522a718067333cd4e81565b6102286103643660046123ca565b610889565b61022861037736600461236c565b6108ae565b61023d61038a366004612385565b6108b9565b6103a261039d36600461236c565b610938565b604080516001600160a01b03909316835261ffff909116602083015201610249565b600e5461023d9060ff1681565b6102286103df3660046123af565b6109a3565b6102286103f2366004612385565b610a13565b61027a61040536600461236c565b610a41565b600c546102c0565b6102c06104203660046123af565b610a53565b610228610433366004612453565b610aa1565b6009546001600160a01b031661027a565b6102286104573660046124d0565b610b0f565b61025a610b3c565b610228610472366004612504565b610b4b565b610228610485366004612529565b610b7a565b61049d610498366004612560565b610b8e565b60405161024991906125d4565b600a546001600160a01b03811690600160a01b900461ffff166103a2565b6102286104d6366004612636565b610c82565b61025a6104e936600461236c565b610caf565b61025a610d9d565b61023d610504366004612691565b6001600160a01b03918216600090815260076020908152604080832093909416825291909152205460ff1690565b61053a610e2b565b6105855760405162461bcd60e51b81526020600482015260176024820152762737ba1030baba3437b934bd32b2103a379036b4b73a1760491b60448201526064015b60405180910390fd5b61059761059160005490565b82610e58565b6105b282600160405180602001604052806000815250610ed1565b5050565b60006301ffc9a760e01b6001600160e01b0319831614806105e757506380ac58cd60e01b6001600160e01b03198316145b806106025750635b5e139f60e01b6001600160e01b03198316145b8061061d57506001600160e01b0319821663152a902d60e11b145b92915050565b606060028054610632906126c4565b80601f016020809104026020016040519081016040528092919081815260200182805461065e906126c4565b80156106ab5780601f10610680576101008083540402835291602001916106ab565b820191906000526020600020905b81548152906001019060200180831161068e57829003601f168201915b5050505050905090565b60006106c082611071565b6106dd576040516333d1c03960e21b815260040160405180910390fd5b506000908152600660205260409020546001600160a01b031690565b816107038161109c565b61070d838361116f565b505050565b61071a610e2b565b6107365760405162461bcd60e51b815260040161057c906126ff565b61073f816111f1565b50565b826001600160a01b038116331461075c5761075c3361109c565b610767848484611243565b50505050565b6000610778600c5490565b82106107b65760405162461bcd60e51b815260206004820152600d60248201526c092dcecc2d8d2c840d2dcc8caf609b1b604482015260640161057c565b600c82815481106107c9576107c9612727565b90600052602060002001549050919050565b6000806000806107ea86610938565b90945084925061ffff1690506127106108038287612753565b61080d9190612788565b925050509250929050565b610820610e2b565b6108805760405162461bcd60e51b815260206004820152602b60248201527f4e6f7420617574686f72697a656420746f20736574206f70657261746f72207260448201526a32b9ba3934b1ba34b7b71760a91b606482015260840161057c565b61073f8161124e565b826001600160a01b03811633146108a3576108a33361109c565b610767848484611295565b61073f8160016112b0565b6000806108c583610a41565b9050806001600160a01b0316846001600160a01b0316148061090c57506001600160a01b0380821660009081526007602090815260408083209388168352929052205460ff165b806109305750836001600160a01b0316610925846106b5565b6001600160a01b0316145b949350505050565b6000818152600b60209081526040808320815180830190925280546001600160a01b03168083526001909101549282019290925282911561097f5780516020820151610999565b600a546001600160a01b03811690600160a01b900461ffff165b9250925050915091565b6109ab610e2b565b610a085760405162461bcd60e51b815260206004820152602860248201527f4e6f7420617574686f72697a656420746f2073756273637269626520746f207260448201526732b3b4b9ba393c9760c11b606482015260840161057c565b61073f816001611463565b610a1b610e2b565b610a375760405162461bcd60e51b815260040161057c906126ff565b6105b28282611571565b6000610a4c82611617565b5192915050565b60006001600160a01b038216610a7c576040516323d3ad8160e21b815260040160405180910390fd5b506001600160a01b03166000908152600560205260409020546001600160401b031690565b610aa9610e2b565b610aef5760405162461bcd60e51b81526020600482015260176024820152762737ba1030baba3437b934bd32b2103a379036b4b73a1760491b604482015260640161057c565b610b02610afb60005490565b8484611731565b5050610767848483610ed1565b610b17610e2b565b610b335760405162461bcd60e51b815260040161057c906126ff565b61073f8161179e565b606060038054610632906126c4565b610b53610e2b565b610b6f5760405162461bcd60e51b815260040161057c906126ff565b61070d838383611880565b81610b848161109c565b61070d8383611949565b6060816001600160401b03811115610ba857610ba86121df565b604051908082528060200260200182016040528015610bdb57816020015b6060815260200190600190039081610bc65790505b50905060005b82811015610c7b57610c4b30858584818110610bff57610bff612727565b9050602002810190610c11919061279c565b8080601f0160208091040260200160405190810160405280939291908181526020018383808284376000920191909152506119df92505050565b828281518110610c5d57610c5d612727565b60200260200101819052508080610c73906127e9565b915050610be1565b5092915050565b836001600160a01b0381163314610c9c57610c9c3361109c565b610ca885858585611a0b565b5050505050565b6000818152600f6020526040812080546060929190610ccd906126c4565b80601f0160208091040260200160405190810160405280929190818152602001828054610cf9906126c4565b8015610d465780601f10610d1b57610100808354040283529160200191610d46565b820191906000526020600020905b815481529060010190602001808311610d2957829003601f168201915b50505050509050600081511115610d5d5792915050565b6000610d6884611a4f565b905080610d7485611beb565b604051602001610d85929190612804565b60405160208183030381529060405292505050919050565b60088054610daa906126c4565b80601f0160208091040260200160405190810160405280929190818152602001828054610dd6906126c4565b8015610e235780601f10610df857610100808354040283529160200191610e23565b820191906000526020600020905b815481529060010190602001808311610e0657829003601f168201915b505050505081565b6000610e3f6009546001600160a01b031690565b6001600160a01b0316336001600160a01b031614905090565b6000828152600f602052604090208054610e71906126c4565b159050610eb25760405162461bcd60e51b815260206004820152600f60248201526e15549248185b1c9958591e481cd95d608a1b604482015260640161057c565b6000828152600f60209081526040909120825161070d9284019061212a565b6000546001600160a01b038416610efa57604051622e076360e81b815260040160405180910390fd5b82610f185760405163b562e8dd60e01b815260040160405180910390fd5b6001600160a01b038416600081815260056020908152604080832080546fffffffffffffffffffffffffffffffff1981166001600160401b038083168b0181169182176801000000000000000067ffffffffffffffff1990941690921783900481168b01811690920217909155858452600490925290912080546001600160e01b0319168317600160a01b42909316929092029190911790558190818501903b1561102e575b60405182906001600160a01b03881690600090600080516020612955833981519152908290a4610ff76000878480600101955087611ce8565b611014576040516368d2bf6b60e11b815260040160405180910390fd5b808210610fbe57826000541461102957600080fd5b611061565b5b6040516001830192906001600160a01b03881690600090600080516020612955833981519152908290a480821061102f575b5060009081556107679085838684565b600080548210801561061d575050600090815260046020526040902054600160e01b900460ff161590565b600e5460ff161561073f576daaeb6d7670e522a718067333cd4e3b1561073f57604051633185c44d60e21b81523060048201526001600160a01b03821660248201526daaeb6d7670e522a718067333cd4e9063c61711349060440160206040518083038186803b15801561110f57600080fd5b505afa158015611123573d6000803e3d6000fd5b505050506040513d601f19601f820116820180604052508101906111479190612833565b61073f57604051633b79c77360e21b81526001600160a01b038216600482015260240161057c565b600061117a82610a41565b9050806001600160a01b0316836001600160a01b031614156111af5760405163250fdee360e21b815260040160405180910390fd5b336001600160a01b038216146111e6576111c98133610504565b6111e6576040516367d9dca160e11b815260040160405180910390fd5b61070d838383611ddf565b600980546001600160a01b038381166001600160a01b0319831681179093556040519116919082907f8292fce18fa69edf4db7b94ea2e58241df0ae57f97e0a6c9b29067028bf92d7690600090a35050565b61070d838383611e3b565b600e805460ff19168215159081179091556040519081527f38475885990d8dfe9ca01f0ef160a1b5514426eab9ddbc953a3353410ba780969060200160405180910390a150565b61070d83838360405180602001604052806000815250610c82565b60006112bb83611617565b80519091508215611321576000336001600160a01b03831614806112e457506112e48233610504565b806112ff5750336112f4866106b5565b6001600160a01b0316145b90508061131f57604051632ce44b5f60e11b815260040160405180910390fd5b505b61132d60008583611ddf565b6001600160a01b0380821660008181526005602090815260408083208054600160801b6000196001600160401b0380841691909101811667ffffffffffffffff198416811783900482166001908101831690930277ffffffffffffffff0000000000000000ffffffffffffffff19909416179290921783558b86526004909452828520805460ff60e01b1942909316600160a01b026001600160e01b03199091169097179690961716600160e01b17855591890180845292208054919490911661142b57600054821461142b57805460208701516001600160401b0316600160a01b026001600160e01b03199091166001600160a01b038716171781555b5050604051869250600091506001600160a01b03841690600080516020612955833981519152908390a4505060018054810190555050565b6daaeb6d7670e522a718067333cd4e3b156105b2576001600160a01b0382163b1561154057801561150057604051633e9f1edf60e11b81523060048201526001600160a01b03831660248201526daaeb6d7670e522a718067333cd4e90637d3e3dbe906044015b600060405180830381600087803b1580156114e457600080fd5b505af11580156114f8573d6000803e3d6000fd5b505050505050565b60405163a0af290360e01b81523060048201526001600160a01b03831660248201526daaeb6d7670e522a718067333cd4e9063a0af2903906044016114ca565b604051632210724360e11b81523060048201526daaeb6d7670e522a718067333cd4e90634420e486906024016114ca565b6127108111156115b55760405162461bcd60e51b815260206004820152600f60248201526e45786365656473206d61782062707360881b604482015260640161057c565b600a80546001600160a01b0384166001600160b01b03199091168117600160a01b61ffff851602179091556040518281527f90d7ec04bcb8978719414f82e52e4cb651db41d0e6f8cea6118c2191e6183adb9060200160405180910390a25050565b60408051606081018252600080825260208201819052918101919091528160005481101561171857600081815260046020908152604091829020825160608101845290546001600160a01b0381168252600160a01b81046001600160401b031692820192909252600160e01b90910460ff161515918101829052906117165780516001600160a01b0316156116ad579392505050565b5060001901600081815260046020908152604091829020825160608101845290546001600160a01b038116808352600160a01b82046001600160401b031693830193909352600160e01b900460ff1615159281019290925215611711579392505050565b6116ad565b505b604051636f96cda160e11b815260040160405180910390fd5b60008061173e8486612850565b600c8054600181019091557fdf6966c971051c3d54ec59162606531493a51404a002842f56009d7e5cf4a8c7018190556000818152600d60209081526040909120855192945084935061179592909186019061212a565b50935093915050565b6000600880546117ad906126c4565b80601f01602080910402602001604051908101604052809291908181526020018280546117d9906126c4565b80156118265780601f106117fb57610100808354040283529160200191611826565b820191906000526020600020905b81548152906001019060200180831161180957829003601f168201915b505085519394506118429360089350602087019250905061212a565b507fc9c7c3fe08b88b4df9d4d47ef47d2c43d55c025a0ba88ca442580ed9e7348a168183604051611874929190612868565b60405180910390a15050565b6127108111156118c45760405162461bcd60e51b815260206004820152600f60248201526e45786365656473206d61782062707360881b604482015260640161057c565b6040805180820182526001600160a01b0384811680835260208084018681526000898152600b8352869020945185546001600160a01b031916941693909317845591516001909301929092559151838152909185917f7365cf4122f072a3365c20d54eff9b38d73c096c28e1892ec8f5b0e403a0f12d910160405180910390a3505050565b6001600160a01b0382163314156119735760405163b06307db60e01b815260040160405180910390fd5b3360008181526007602090815260408083206001600160a01b03871680855290835292819020805460ff191686151590811790915590519081529192917f17307eab39ab6107e8899845ad3d59bd9653f200f220920489ca2b5937696c31910160405180910390a35050565b6060611a04838360405180606001604052806027815260200161292e60279139612014565b9392505050565b611a16848484611e3b565b6001600160a01b0383163b1561076757611a3284848484611ce8565b610767576040516368d2bf6b60e11b815260040160405180910390fd5b60606000611a5c600c5490565b90506000600c805480602002602001604051908101604052809291908181526020018280548015611aac57602002820191906000526020600020905b815481526020019060010190808311611a98575b5050505050905060005b82811015611bb057818181518110611ad057611ad0612727565b6020026020010151851015611b9e57600d6000838381518110611af557611af5612727565b602002602001015181526020019081526020016000208054611b16906126c4565b80601f0160208091040260200160405190810160405280929190818152602001828054611b42906126c4565b8015611b8f5780601f10611b6457610100808354040283529160200191611b8f565b820191906000526020600020905b815481529060010190602001808311611b7257829003601f168201915b50505050509350505050919050565b611ba9600182612850565b9050611ab6565b5060405162461bcd60e51b815260206004820152600f60248201526e125b9d985b1a59081d1bdad95b9259608a1b604482015260640161057c565b606081611c0f5750506040805180820190915260018152600360fc1b602082015290565b8160005b8115611c395780611c23816127e9565b9150611c329050600a83612788565b9150611c13565b6000816001600160401b03811115611c5357611c536121df565b6040519080825280601f01601f191660200182016040528015611c7d576020820181803683370190505b5090505b841561093057611c92600183612896565b9150611c9f600a866128ad565b611caa906030612850565b60f81b818381518110611cbf57611cbf612727565b60200101906001600160f81b031916908160001a905350611ce1600a86612788565b9450611c81565b604051630a85bd0160e11b81526000906001600160a01b0385169063150b7a0290611d1d9033908990889088906004016128c1565b602060405180830381600087803b158015611d3757600080fd5b505af1925050508015611d67575060408051601f3d908101601f19168201909252611d64918101906128f4565b60015b611dc2573d808015611d95576040519150601f19603f3d011682016040523d82523d6000602084013e611d9a565b606091505b508051611dba576040516368d2bf6b60e11b815260040160405180910390fd5b805181602001fd5b6001600160e01b031916630a85bd0160e11b149050949350505050565b60008281526006602052604080822080546001600160a01b0319166001600160a01b0387811691821790925591518593918516917f8c5be1e5ebec7d5bd14f71427d1e84f3dd0314c0f7b2291e5b200ac8c7c3b92591a4505050565b6000611e4682611617565b9050836001600160a01b031681600001516001600160a01b031614611e7d5760405162a1148160e81b815260040160405180910390fd5b6000336001600160a01b0386161480611e9b5750611e9b8533610504565b80611eb6575033611eab846106b5565b6001600160a01b0316145b905080611ed657604051632ce44b5f60e11b815260040160405180910390fd5b6001600160a01b038416611efd57604051633a954ecd60e21b815260040160405180910390fd5b611f0960008487611ddf565b6001600160a01b038581166000908152600560209081526040808320805467ffffffffffffffff198082166001600160401b0392831660001901831617909255898616808652838620805493841693831660019081018416949094179055898652600490945282852080546001600160e01b031916909417600160a01b42909216919091021783558701808452922080549193909116611fdd576000548214611fdd57805460208601516001600160401b0316600160a01b026001600160e01b03199091166001600160a01b038a16171781555b50505082846001600160a01b0316866001600160a01b031660008051602061295583398151915260405160405180910390a4610ca8565b60606001600160a01b0384163b61207c5760405162461bcd60e51b815260206004820152602660248201527f416464726573733a2064656c65676174652063616c6c20746f206e6f6e2d636f6044820152651b9d1c9858dd60d21b606482015260840161057c565b600080856001600160a01b0316856040516120979190612911565b600060405180830381855af49150503d80600081146120d2576040519150601f19603f3d011682016040523d82523d6000602084013e6120d7565b606091505b50915091506120e78282866120f1565b9695505050505050565b60608315612100575081611a04565b8251156121105782518084602001fd5b8160405162461bcd60e51b815260040161057c9190612359565b828054612136906126c4565b90600052602060002090601f016020900481019282612158576000855561219e565b82601f1061217157805160ff191683800117855561219e565b8280016001018555821561219e579182015b8281111561219e578251825591602001919060010190612183565b506121aa9291506121ae565b5090565b5b808211156121aa57600081556001016121af565b80356001600160a01b03811681146121da57600080fd5b919050565b634e487b7160e01b600052604160045260246000fd5b600082601f83011261220657600080fd5b81356001600160401b0380821115612220576122206121df565b604051601f8301601f19908116603f01168101908282118183101715612248576122486121df565b8160405283815286602085880101111561226157600080fd5b836020870160208301376000602085830101528094505050505092915050565b6000806040838503121561229457600080fd5b61229d836121c3565b915060208301356001600160401b038111156122b857600080fd5b6122c4858286016121f5565b9150509250929050565b6001600160e01b03198116811461073f57600080fd5b6000602082840312156122f657600080fd5b8135611a04816122ce565b60005b8381101561231c578181015183820152602001612304565b838111156107675750506000910152565b60008151808452612345816020860160208601612301565b601f01601f19169290920160200192915050565b602081526000611a04602083018461232d565b60006020828403121561237e57600080fd5b5035919050565b6000806040838503121561239857600080fd5b6123a1836121c3565b946020939093013593505050565b6000602082840312156123c157600080fd5b611a04826121c3565b6000806000606084860312156123df57600080fd5b6123e8846121c3565b92506123f6602085016121c3565b9150604084013590509250925092565b6000806040838503121561241957600080fd5b50508035926020909101359150565b801515811461073f57600080fd5b60006020828403121561244857600080fd5b8135611a0481612428565b6000806000806080858703121561246957600080fd5b612472856121c3565b93506020850135925060408501356001600160401b038082111561249557600080fd5b6124a1888389016121f5565b935060608701359150808211156124b757600080fd5b506124c4878288016121f5565b91505092959194509250565b6000602082840312156124e257600080fd5b81356001600160401b038111156124f857600080fd5b610930848285016121f5565b60008060006060848603121561251957600080fd5b833592506123f6602085016121c3565b6000806040838503121561253c57600080fd5b612545836121c3565b9150602083013561255581612428565b809150509250929050565b6000806020838503121561257357600080fd5b82356001600160401b038082111561258a57600080fd5b818501915085601f83011261259e57600080fd5b8135818111156125ad57600080fd5b8660208260051b85010111156125c257600080fd5b60209290920196919550909350505050565b6000602080830181845280855180835260408601915060408160051b870101925083870160005b8281101561262957603f1988860301845261261785835161232d565b945092850192908501906001016125fb565b5092979650505050505050565b6000806000806080858703121561264c57600080fd5b612655856121c3565b9350612663602086016121c3565b92506040850135915060608501356001600160401b0381111561268557600080fd5b6124c4878288016121f5565b600080604083850312156126a457600080fd5b6126ad836121c3565b91506126bb602084016121c3565b90509250929050565b600181811c908216806126d857607f821691505b602082108114156126f957634e487b7160e01b600052602260045260246000fd5b50919050565b6020808252600e908201526d139bdd08185d5d1a1bdc9a5e995960921b604082015260600190565b634e487b7160e01b600052603260045260246000fd5b634e487b7160e01b600052601160045260246000fd5b600081600019048311821515161561276d5761276d61273d565b500290565b634e487b7160e01b600052601260045260246000fd5b60008261279757612797612772565b500490565b6000808335601e198436030181126127b357600080fd5b8301803591506001600160401b038211156127cd57600080fd5b6020019150368190038213156127e257600080fd5b9250929050565b60006000198214156127fd576127fd61273d565b5060010190565b60008351612816818460208801612301565b83519083019061282a818360208801612301565b01949350505050565b60006020828403121561284557600080fd5b8151611a0481612428565b600082198211156128635761286361273d565b500190565b60408152600061287b604083018561232d565b828103602084015261288d818561232d565b95945050505050565b6000828210156128a8576128a861273d565b500390565b6000826128bc576128bc612772565b500690565b6001600160a01b03858116825284166020820152604081018390526080606082018190526000906120e79083018461232d565b60006020828403121561290657600080fd5b8151611a04816122ce565b60008251612923818460208701612301565b919091019291505056fe416464726573733a206c6f772d6c6576656c2064656c65676174652063616c6c206661696c6564ddf252ad1be2c89b69c2b068fc378daa952ba7f163c4a11628f55a4df523b3efa264697066735822122039300d0098569cea468ec479f59f3cf23f904c25a4173741f67737817aa8c85564736f6c63430008090033",
  "linkReferences": {},
  "deployedLinkReferences": {}
}