{
  "_format": "hh-sol-artifact-1",
  "contractName": "OrderBook",
  "sourceName": "contracts/Orderbook.sol",
  "abi": [
    {
      "inputs": [
        {
          "internalType": "contract ERC20",
          "name": "_token1",
          "type": "address"
        },
        {
          "internalType": "contract ERC20",
          "name": "_token2",
          "type": "address"
        },
        {
          "internalType": "address",
          "name": "_feeAddr",
          "type": "address"
        },
        {
          "internalType": "uint128",
          "name": "_takerFee",
          "type": "uint128"
        },
        {
          "internalType": "uint128",
          "name": "_makerFee",
          "type": "uint128"
        }
      ],
      "stateMutability": "nonpayable",
      "type": "constructor"
    },
    {
      "inputs": [],
      "name": "EscrowToBuyerError",
      "type": "error"
    },
    {
      "inputs": [],
      "name": "InactiveOrder",
      "type": "error"
    },
    {
      "inputs": [],
      "name": "InvalidFeeValue",
      "type": "error"
    },
    {
      "inputs": [],
      "name": "LackingFundsForFees",
      "type": "error"
    },
    {
      "inputs": [],
      "name": "LackingFundsForTransaction",
      "type": "error"
    },
    {
      "inputs": [],
      "name": "NonOwnerCantCancelOrder",
      "type": "error"
    },
    {
      "inputs": [],
      "name": "QuantityExceedsOrderAmount",
      "type": "error"
    },
    {
      "inputs": [],
      "name": "SellingTokenNotBool",
      "type": "error"
    },
    {
      "inputs": [],
      "name": "TransferToEscrowError",
      "type": "error"
    },
    {
      "inputs": [],
      "name": "ZeroBuyQuantity",
      "type": "error"
    },
    {
      "inputs": [],
      "name": "ZeroTokenAmount",
      "type": "error"
    },
    {
      "anonymous": false,
      "inputs": [
        {
          "indexed": true,
          "internalType": "uint256",
          "name": "id",
          "type": "uint256"
        },
        {
          "indexed": true,
          "internalType": "address",
          "name": "maker",
          "type": "address"
        },
        {
          "indexed": false,
          "internalType": "contract ERC20",
          "name": "token1",
          "type": "address"
        },
        {
          "indexed": false,
          "internalType": "contract ERC20",
          "name": "token2",
          "type": "address"
        }
      ],
      "name": "DeleteOffer",
      "type": "event"
    },
    {
      "anonymous": false,
      "inputs": [
        {
          "indexed": true,
          "internalType": "uint256",
          "name": "id",
          "type": "uint256"
        },
        {
          "indexed": true,
          "internalType": "address",
          "name": "maker",
          "type": "address"
        },
        {
          "indexed": false,
          "internalType": "contract ERC20",
          "name": "tokPaid",
          "type": "address"
        },
        {
          "indexed": false,
          "internalType": "uint128",
          "name": "feePaid",
          "type": "uint128"
        }
      ],
      "name": "MakerFeePaid",
      "type": "event"
    },
    {
      "anonymous": false,
      "inputs": [
        {
          "indexed": false,
          "internalType": "contract ERC20",
          "name": "token1",
          "type": "address"
        },
        {
          "indexed": false,
          "internalType": "contract ERC20",
          "name": "token2",
          "type": "address"
        },
        {
          "indexed": false,
          "internalType": "uint8",
          "name": "tok1Type",
          "type": "uint8"
        },
        {
          "indexed": false,
          "internalType": "uint128",
          "name": "tok1Amt",
          "type": "uint128"
        },
        {
          "indexed": false,
          "internalType": "uint128",
          "name": "tok2Amt",
          "type": "uint128"
        },
        {
          "indexed": true,
          "internalType": "uint256",
          "name": "id",
          "type": "uint256"
        },
        {
          "indexed": true,
          "internalType": "address",
          "name": "maker",
          "type": "address"
        }
      ],
      "name": "OfferCreate",
      "type": "event"
    },
    {
      "anonymous": false,
      "inputs": [
        {
          "indexed": false,
          "internalType": "uint8",
          "name": "tok1Type",
          "type": "uint8"
        },
        {
          "indexed": false,
          "internalType": "contract ERC20",
          "name": "token1",
          "type": "address"
        },
        {
          "indexed": false,
          "internalType": "contract ERC20",
          "name": "token2",
          "type": "address"
        },
        {
          "indexed": false,
          "internalType": "uint128",
          "name": "tok1Amt",
          "type": "uint128"
        },
        {
          "indexed": false,
          "internalType": "uint128",
          "name": "tok2Amt",
          "type": "uint128"
        },
        {
          "indexed": true,
          "internalType": "uint256",
          "name": "id",
          "type": "uint256"
        },
        {
          "indexed": true,
          "internalType": "address",
          "name": "maker",
          "type": "address"
        },
        {
          "indexed": true,
          "internalType": "address",
          "name": "taker",
          "type": "address"
        }
      ],
      "name": "OfferTake",
      "type": "event"
    },
    {
      "anonymous": false,
      "inputs": [
        {
          "indexed": true,
          "internalType": "uint256",
          "name": "id",
          "type": "uint256"
        },
        {
          "indexed": false,
          "internalType": "uint128",
          "name": "tok1Amt",
          "type": "uint128"
        },
        {
          "indexed": false,
          "internalType": "uint128",
          "name": "tok2Amt",
          "type": "uint128"
        }
      ],
      "name": "OfferUpdate",
      "type": "event"
    },
    {
      "anonymous": false,
      "inputs": [
        {
          "indexed": true,
          "internalType": "uint256",
          "name": "id",
          "type": "uint256"
        },
        {
          "indexed": true,
          "internalType": "address",
          "name": "maker",
          "type": "address"
        },
        {
          "indexed": false,
          "internalType": "contract ERC20",
          "name": "token1",
          "type": "address"
        },
        {
          "indexed": false,
          "internalType": "contract ERC20",
          "name": "token2",
          "type": "address"
        }
      ],
      "name": "OrderCancelled",
      "type": "event"
    },
    {
      "anonymous": false,
      "inputs": [
        {
          "indexed": true,
          "internalType": "address",
          "name": "previousOwner",
          "type": "address"
        },
        {
          "indexed": true,
          "internalType": "address",
          "name": "newOwner",
          "type": "address"
        }
      ],
      "name": "OwnershipTransferred",
      "type": "event"
    },
    {
      "anonymous": false,
      "inputs": [
        {
          "indexed": true,
          "internalType": "uint256",
          "name": "id",
          "type": "uint256"
        },
        {
          "indexed": true,
          "internalType": "address",
          "name": "taker",
          "type": "address"
        },
        {
          "indexed": false,
          "internalType": "contract ERC20",
          "name": "tokPaid",
          "type": "address"
        },
        {
          "indexed": false,
          "internalType": "uint128",
          "name": "feePaid",
          "type": "uint128"
        }
      ],
      "name": "TakerFeePaid",
      "type": "event"
    },
    {
      "inputs": [
        {
          "internalType": "uint256",
          "name": "",
          "type": "uint256"
        }
      ],
      "name": "activeOrders",
      "outputs": [
        {
          "internalType": "uint256",
          "name": "",
          "type": "uint256"
        }
      ],
      "stateMutability": "view",
      "type": "function"
    },
    {
      "inputs": [],
      "name": "feeAddr",
      "outputs": [
        {
          "internalType": "address",
          "name": "",
          "type": "address"
        }
      ],
      "stateMutability": "view",
      "type": "function"
    },
    {
      "inputs": [],
      "name": "getMakerFee",
      "outputs": [
        {
          "internalType": "uint128",
          "name": "",
          "type": "uint128"
        }
      ],
      "stateMutability": "view",
      "type": "function"
    },
    {
      "inputs": [],
      "name": "getTakerFee",
      "outputs": [
        {
          "internalType": "uint128",
          "name": "",
          "type": "uint128"
        }
      ],
      "stateMutability": "view",
      "type": "function"
    },
    {
      "inputs": [],
      "name": "getTokenPair",
      "outputs": [
        {
          "internalType": "contract ERC20",
          "name": "",
          "type": "address"
        },
        {
          "internalType": "contract ERC20",
          "name": "",
          "type": "address"
        }
      ],
      "stateMutability": "view",
      "type": "function"
    },
    {
      "inputs": [],
      "name": "makerFee",
      "outputs": [
        {
          "internalType": "uint128",
          "name": "",
          "type": "uint128"
        }
      ],
      "stateMutability": "view",
      "type": "function"
    },
    {
      "inputs": [
        {
          "internalType": "uint256",
          "name": "",
          "type": "uint256"
        }
      ],
      "name": "orders",
      "outputs": [
        {
          "internalType": "uint128",
          "name": "sellingTokenAmt",
          "type": "uint128"
        },
        {
          "internalType": "uint128",
          "name": "buyingTokenAmt",
          "type": "uint128"
        },
        {
          "internalType": "address",
          "name": "owner",
          "type": "address"
        },
        {
          "internalType": "uint8",
          "name": "sellingToken1",
          "type": "uint8"
        },
        {
          "internalType": "uint8",
          "name": "biggerToken",
          "type": "uint8"
        },
        {
          "internalType": "uint256",
          "name": "priceRatio",
          "type": "uint256"
        }
      ],
      "stateMutability": "view",
      "type": "function"
    },
    {
      "inputs": [],
      "name": "owner",
      "outputs": [
        {
          "internalType": "address",
          "name": "",
          "type": "address"
        }
      ],
      "stateMutability": "view",
      "type": "function"
    },
    {
      "inputs": [],
      "name": "renounceOwnership",
      "outputs": [],
      "stateMutability": "nonpayable",
      "type": "function"
    },
    {
      "inputs": [
        {
          "internalType": "uint128",
          "name": "_makerFee",
          "type": "uint128"
        }
      ],
      "name": "setMakerFee",
      "outputs": [],
      "stateMutability": "nonpayable",
      "type": "function"
    },
    {
      "inputs": [
        {
          "internalType": "uint128",
          "name": "_takerFee",
          "type": "uint128"
        }
      ],
      "name": "setTakerFee",
      "outputs": [],
      "stateMutability": "nonpayable",
      "type": "function"
    },
    {
      "inputs": [],
      "name": "takerFee",
      "outputs": [
        {
          "internalType": "uint128",
          "name": "",
          "type": "uint128"
        }
      ],
      "stateMutability": "view",
      "type": "function"
    },
    {
      "inputs": [],
      "name": "token1",
      "outputs": [
        {
          "internalType": "contract ERC20",
          "name": "",
          "type": "address"
        }
      ],
      "stateMutability": "view",
      "type": "function"
    },
    {
      "inputs": [],
      "name": "token2",
      "outputs": [
        {
          "internalType": "contract ERC20",
          "name": "",
          "type": "address"
        }
      ],
      "stateMutability": "view",
      "type": "function"
    },
    {
      "inputs": [
        {
          "internalType": "address",
          "name": "newOwner",
          "type": "address"
        }
      ],
      "name": "transferOwnership",
      "outputs": [],
      "stateMutability": "nonpayable",
      "type": "function"
    },
    {
      "inputs": [
        {
          "internalType": "uint256",
          "name": "id",
          "type": "uint256"
        }
      ],
      "name": "viewOffer",
      "outputs": [
        {
          "internalType": "uint128",
          "name": "",
          "type": "uint128"
        },
        {
          "internalType": "uint128",
          "name": "",
          "type": "uint128"
        },
        {
          "internalType": "address",
          "name": "",
          "type": "address"
        },
        {
          "internalType": "uint8",
          "name": "",
          "type": "uint8"
        }
      ],
      "stateMutability": "view",
      "type": "function"
    }
  ],
  "bytecode": "0x608060405260016005553480156200001657600080fd5b50604051620012023803806200120283398181016040528101906200003c919062000364565b6200005c620000506200019c60201b60201c565b620001a460201b60201c565b84600160006101000a81548173ffffffffffffffffffffffffffffffffffffffff021916908373ffffffffffffffffffffffffffffffffffffffff16021790555083600260006101000a81548173ffffffffffffffffffffffffffffffffffffffff021916908373ffffffffffffffffffffffffffffffffffffffff16021790555082600360006101000a81548173ffffffffffffffffffffffffffffffffffffffff021916908373ffffffffffffffffffffffffffffffffffffffff16021790555081600460006101000a8154816fffffffffffffffffffffffffffffffff02191690836fffffffffffffffffffffffffffffffff16021790555080600460106101000a8154816fffffffffffffffffffffffffffffffff02191690836fffffffffffffffffffffffffffffffff1602179055505050505050620003ec565b600033905090565b60008060009054906101000a900473ffffffffffffffffffffffffffffffffffffffff169050816000806101000a81548173ffffffffffffffffffffffffffffffffffffffff021916908373ffffffffffffffffffffffffffffffffffffffff1602179055508173ffffffffffffffffffffffffffffffffffffffff168173ffffffffffffffffffffffffffffffffffffffff167f8be0079c531659141344cd1fd0a4f28419497f9722a3daafe3b4186f6b6457e060405160405180910390a35050565b600080fd5b600073ffffffffffffffffffffffffffffffffffffffff82169050919050565b60006200029a826200026d565b9050919050565b6000620002ae826200028d565b9050919050565b620002c081620002a1565b8114620002cc57600080fd5b50565b600081519050620002e081620002b5565b92915050565b620002f1816200028d565b8114620002fd57600080fd5b50565b6000815190506200031181620002e6565b92915050565b60006fffffffffffffffffffffffffffffffff82169050919050565b6200033e8162000317565b81146200034a57600080fd5b50565b6000815190506200035e8162000333565b92915050565b600080600080600060a0868803121562000383576200038262000268565b5b60006200039388828901620002cf565b9550506020620003a688828901620002cf565b9450506040620003b98882890162000300565b9350506060620003cc888289016200034d565b9250506080620003df888289016200034d565b9150509295509295909350565b610e0680620003fc6000396000f3fe608060405234801561001057600080fd5b50600436106101005760003560e01c80639b55e63811610097578063d1e09a5e11610066578063d1e09a5e14610296578063d21220a7146102b2578063f2fde38b146102d0578063fc741c7c146102ec57610100565b80639b55e638146101df578063a85c38ef14610212578063c2b5431f14610247578063cbbc94cf1461027757610100565b806343f0179b116100d357806343f0179b1461017d57806367a326381461019b578063715018a6146101b75780638da5cb5b146101c157610100565b80631fb32b861461010557806325be124e146101235780633394177b1461014157806339e7fddc1461015f575b600080fd5b61010d61030a565b60405161011a91906109a1565b60405180910390f35b61012b610330565b6040516101389190610a3b565b60405180910390f35b610149610356565b60405161015691906109a1565b60405180910390f35b61016761037c565b6040516101749190610a77565b60405180910390f35b6101856103a2565b60405161019291906109a1565b60405180910390f35b6101b560048036038101906101b09190610ac3565b6103c4565b005b6101bf610456565b005b6101c961046a565b6040516101d69190610a77565b60405180910390f35b6101f960048036038101906101f49190610b26565b610493565b6040516102099493929190610b6f565b60405180910390f35b61022c60048036038101906102279190610b26565b6105b8565b60405161023e96959493929190610bc3565b60405180910390f35b610261600480360381019061025c9190610b26565b610666565b60405161026e9190610c24565b60405180910390f35b61027f61067e565b60405161028d929190610c3f565b60405180910390f35b6102b060048036038101906102ab9190610ac3565b6106cf565b005b6102ba610761565b6040516102c79190610a3b565b60405180910390f35b6102ea60048036038101906102e59190610c94565b610787565b005b6102f461080a565b60405161030191906109a1565b60405180910390f35b6000600460109054906101000a90046fffffffffffffffffffffffffffffffff16905090565b600260009054906101000a900473ffffffffffffffffffffffffffffffffffffffff1681565b6000600460009054906101000a90046fffffffffffffffffffffffffffffffff16905090565b600360009054906101000a900473ffffffffffffffffffffffffffffffffffffffff1681565b600460009054906101000a90046fffffffffffffffffffffffffffffffff1681565b6103cc61082c565b611388816fffffffffffffffffffffffffffffffff16111561041a576040517fac98d7e100000000000000000000000000000000000000000000000000000000815260040160405180910390fd5b80600460006101000a8154816fffffffffffffffffffffffffffffffff02191690836fffffffffffffffffffffffffffffffff16021790555050565b61045e61082c565b61046860006108aa565b565b60008060009054906101000a900473ffffffffffffffffffffffffffffffffffffffff16905090565b6000806000808460016007600083815260200190815260200160002054146104e7576040517fd4dbb56500000000000000000000000000000000000000000000000000000000815260040160405180910390fd5b6006600087815260200190815260200160002060000160009054906101000a90046fffffffffffffffffffffffffffffffff166006600088815260200190815260200160002060000160109054906101000a90046fffffffffffffffffffffffffffffffff166006600089815260200190815260200160002060010160009054906101000a900473ffffffffffffffffffffffffffffffffffffffff16600660008a815260200190815260200160002060010160149054906101000a900460ff169450945094509450509193509193565b60066020528060005260406000206000915090508060000160009054906101000a90046fffffffffffffffffffffffffffffffff16908060000160109054906101000a90046fffffffffffffffffffffffffffffffff16908060010160009054906101000a900473ffffffffffffffffffffffffffffffffffffffff16908060010160149054906101000a900460ff16908060010160159054906101000a900460ff16908060020154905086565b60076020528060005260406000206000915090505481565b600080600160009054906101000a900473ffffffffffffffffffffffffffffffffffffffff16600260009054906101000a900473ffffffffffffffffffffffffffffffffffffffff16915091509091565b6106d761082c565b611388816fffffffffffffffffffffffffffffffff161115610725576040517fac98d7e100000000000000000000000000000000000000000000000000000000815260040160405180910390fd5b80600460106101000a8154816fffffffffffffffffffffffffffffffff02191690836fffffffffffffffffffffffffffffffff16021790555050565b600160009054906101000a900473ffffffffffffffffffffffffffffffffffffffff1681565b61078f61082c565b600073ffffffffffffffffffffffffffffffffffffffff168173ffffffffffffffffffffffffffffffffffffffff16036107fe576040517f08c379a00000000000000000000000000000000000000000000000000000000081526004016107f590610d44565b60405180910390fd5b610807816108aa565b50565b600460109054906101000a90046fffffffffffffffffffffffffffffffff1681565b61083461096e565b73ffffffffffffffffffffffffffffffffffffffff1661085261046a565b73ffffffffffffffffffffffffffffffffffffffff16146108a8576040517f08c379a000000000000000000000000000000000000000000000000000000000815260040161089f90610db0565b60405180910390fd5b565b60008060009054906101000a900473ffffffffffffffffffffffffffffffffffffffff169050816000806101000a81548173ffffffffffffffffffffffffffffffffffffffff021916908373ffffffffffffffffffffffffffffffffffffffff1602179055508173ffffffffffffffffffffffffffffffffffffffff168173ffffffffffffffffffffffffffffffffffffffff167f8be0079c531659141344cd1fd0a4f28419497f9722a3daafe3b4186f6b6457e060405160405180910390a35050565b600033905090565b60006fffffffffffffffffffffffffffffffff82169050919050565b61099b81610976565b82525050565b60006020820190506109b66000830184610992565b92915050565b600073ffffffffffffffffffffffffffffffffffffffff82169050919050565b6000819050919050565b6000610a016109fc6109f7846109bc565b6109dc565b6109bc565b9050919050565b6000610a13826109e6565b9050919050565b6000610a2582610a08565b9050919050565b610a3581610a1a565b82525050565b6000602082019050610a506000830184610a2c565b92915050565b6000610a61826109bc565b9050919050565b610a7181610a56565b82525050565b6000602082019050610a8c6000830184610a68565b92915050565b600080fd5b610aa081610976565b8114610aab57600080fd5b50565b600081359050610abd81610a97565b92915050565b600060208284031215610ad957610ad8610a92565b5b6000610ae784828501610aae565b91505092915050565b6000819050919050565b610b0381610af0565b8114610b0e57600080fd5b50565b600081359050610b2081610afa565b92915050565b600060208284031215610b3c57610b3b610a92565b5b6000610b4a84828501610b11565b91505092915050565b600060ff82169050919050565b610b6981610b53565b82525050565b6000608082019050610b846000830187610992565b610b916020830186610992565b610b9e6040830185610a68565b610bab6060830184610b60565b95945050505050565b610bbd81610af0565b82525050565b600060c082019050610bd86000830189610992565b610be56020830188610992565b610bf26040830187610a68565b610bff6060830186610b60565b610c0c6080830185610b60565b610c1960a0830184610bb4565b979650505050505050565b6000602082019050610c396000830184610bb4565b92915050565b6000604082019050610c546000830185610a2c565b610c616020830184610a2c565b9392505050565b610c7181610a56565b8114610c7c57600080fd5b50565b600081359050610c8e81610c68565b92915050565b600060208284031215610caa57610ca9610a92565b5b6000610cb884828501610c7f565b91505092915050565b600082825260208201905092915050565b7f4f776e61626c653a206e6577206f776e657220697320746865207a65726f206160008201527f6464726573730000000000000000000000000000000000000000000000000000602082015250565b6000610d2e602683610cc1565b9150610d3982610cd2565b604082019050919050565b60006020820190508181036000830152610d5d81610d21565b9050919050565b7f4f776e61626c653a2063616c6c6572206973206e6f7420746865206f776e6572600082015250565b6000610d9a602083610cc1565b9150610da582610d64565b602082019050919050565b60006020820190508181036000830152610dc981610d8d565b905091905056fea26469706673582212206b0d9043413c407a100d9a9cea36b0e89c02bb04d51c6cf133acd2ed040e396d64736f6c63430008120033",
  "linkReferences": {},
  "deployedLinkReferences": {}
}