{"contracts/MatchingEngine.sol":{"MatchingEngine":{"abi":[{"inputs":[{"internalType":"contract ERC20","name":"_token1","type":"address"},{"internalType":"contract ERC20","name":"_token2","type":"address"},{"internalType":"address","name":"_feeAddr","type":"address"},{"internalType":"uint128","name":"_takerFee","type":"uint128"},{"internalType":"uint128","name":"_makerFee","type":"uint128"}],"stateMutability":"nonpayable","type":"constructor"},{"inputs":[],"name":"EscrowToBuyerError","type":"error"},{"inputs":[],"name":"FillOrKillNotFilled","type":"error"},{"inputs":[],"name":"InactiveOrder","type":"error"},{"inputs":[],"name":"InvalidFeeValue","type":"error"},{"inputs":[],"name":"LackingFundsForFees","type":"error"},{"inputs":[],"name":"LackingFundsForTransaction","type":"error"},{"inputs":[],"name":"NonOwnerCantCancelOrder","type":"error"},{"inputs":[],"name":"QuantityExceedsOrderAmount","type":"error"},{"inputs":[],"name":"SellingTokenNotBool","type":"error"},{"inputs":[],"name":"TransferToEscrowError","type":"error"},{"inputs":[],"name":"ZeroBuyQuantity","type":"error"},{"inputs":[],"name":"ZeroTokenAmount","type":"error"},{"anonymous":false,"inputs":[{"indexed":true,"internalType":"uint256","name":"id","type":"uint256"},{"indexed":true,"internalType":"address","name":"maker","type":"address"},{"indexed":false,"internalType":"contract ERC20","name":"token1","type":"address"},{"indexed":false,"internalType":"contract ERC20","name":"token2","type":"address"}],"name":"DeleteOffer","type":"event"},{"anonymous":false,"inputs":[{"indexed":true,"internalType":"uint256","name":"id","type":"uint256"},{"indexed":true,"internalType":"address","name":"maker","type":"address"},{"indexed":false,"internalType":"contract ERC20","name":"tokPaid","type":"address"},{"indexed":false,"internalType":"uint128","name":"feePaid","type":"uint128"}],"name":"MakerFeePaid","type":"event"},{"anonymous":false,"inputs":[{"indexed":false,"internalType":"contract ERC20","name":"token1","type":"address"},{"indexed":false,"internalType":"contract ERC20","name":"token2","type":"address"},{"indexed":false,"internalType":"uint8","name":"tok1Type","type":"uint8"},{"indexed":false,"internalType":"uint128","name":"tok1Amt","type":"uint128"},{"indexed":false,"internalType":"uint128","name":"tok2Amt","type":"uint128"},{"indexed":true,"internalType":"uint256","name":"id","type":"uint256"},{"indexed":true,"internalType":"address","name":"maker","type":"address"}],"name":"OfferCreate","type":"event"},{"anonymous":false,"inputs":[{"indexed":false,"internalType":"uint8","name":"tok1Type","type":"uint8"},{"indexed":false,"internalType":"contract ERC20","name":"token1","type":"address"},{"indexed":false,"internalType":"contract ERC20","name":"token2","type":"address"},{"indexed":false,"internalType":"uint128","name":"tok1Amt","type":"uint128"},{"indexed":false,"internalType":"uint128","name":"tok2Amt","type":"uint128"},{"indexed":true,"internalType":"uint256","name":"id","type":"uint256"},{"indexed":true,"internalType":"address","name":"maker","type":"address"},{"indexed":true,"internalType":"address","name":"taker","type":"address"}],"name":"OfferTake","type":"event"},{"anonymous":false,"inputs":[{"indexed":true,"internalType":"uint256","name":"id","type":"uint256"},{"indexed":false,"internalType":"uint128","name":"tok1Amt","type":"uint128"},{"indexed":false,"internalType":"uint128","name":"tok2Amt","type":"uint128"}],"name":"OfferUpdate","type":"event"},{"anonymous":false,"inputs":[{"indexed":true,"internalType":"uint256","name":"id","type":"uint256"},{"indexed":true,"internalType":"address","name":"maker","type":"address"},{"indexed":false,"internalType":"contract ERC20","name":"token1","type":"address"},{"indexed":false,"internalType":"contract ERC20","name":"token2","type":"address"}],"name":"OrderCancelled","type":"event"},{"anonymous":false,"inputs":[{"indexed":true,"internalType":"address","name":"previousOwner","type":"address"},{"indexed":true,"internalType":"address","name":"newOwner","type":"address"}],"name":"OwnershipTransferred","type":"event"},{"anonymous":false,"inputs":[{"indexed":true,"internalType":"uint256","name":"id","type":"uint256"},{"indexed":true,"internalType":"address","name":"taker","type":"address"},{"indexed":false,"internalType":"contract ERC20","name":"tokPaid","type":"address"},{"indexed":false,"internalType":"uint128","name":"feePaid","type":"uint128"}],"name":"TakerFeePaid","type":"event"},{"inputs":[{"internalType":"uint256","name":"","type":"uint256"}],"name":"activeOrders","outputs":[{"internalType":"uint256","name":"","type":"uint256"}],"stateMutability":"view","type":"function"},{"inputs":[{"internalType":"uint256","name":"","type":"uint256"}],"name":"asks","outputs":[{"internalType":"uint256","name":"id","type":"uint256"},{"internalType":"uint256","name":"prev","type":"uint256"},{"internalType":"uint256","name":"next","type":"uint256"}],"stateMutability":"view","type":"function"},{"inputs":[{"internalType":"uint256","name":"","type":"uint256"}],"name":"bids","outputs":[{"internalType":"uint256","name":"id","type":"uint256"},{"internalType":"uint256","name":"prev","type":"uint256"},{"internalType":"uint256","name":"next","type":"uint256"}],"stateMutability":"view","type":"function"},{"inputs":[{"internalType":"uint256","name":"id","type":"uint256"}],"name":"cancelOrder","outputs":[],"stateMutability":"nonpayable","type":"function"},{"inputs":[],"name":"feeAddr","outputs":[{"internalType":"address","name":"","type":"address"}],"stateMutability":"view","type":"function"},{"inputs":[{"internalType":"uint128","name":"token1Amt","type":"uint128"},{"internalType":"uint128","name":"token2Amt","type":"uint128"},{"internalType":"uint8","name":"sellingToken1","type":"uint8"}],"name":"fillOrKill","outputs":[],"stateMutability":"nonpayable","type":"function"},{"inputs":[],"name":"getMakerFee","outputs":[{"internalType":"uint128","name":"","type":"uint128"}],"stateMutability":"view","type":"function"},{"inputs":[],"name":"getTakerFee","outputs":[{"internalType":"uint128","name":"","type":"uint128"}],"stateMutability":"view","type":"function"},{"inputs":[],"name":"getTokenPair","outputs":[{"internalType":"contract ERC20","name":"","type":"address"},{"internalType":"contract ERC20","name":"","type":"address"}],"stateMutability":"view","type":"function"},{"inputs":[{"internalType":"uint128","name":"token1Amt","type":"uint128"},{"internalType":"uint128","name":"token2Amt","type":"uint128"},{"internalType":"uint8","name":"sellingToken1","type":"uint8"}],"name":"immediateOrCancel","outputs":[],"stateMutability":"nonpayable","type":"function"},{"inputs":[],"name":"makerFee","outputs":[{"internalType":"uint128","name":"","type":"uint128"}],"stateMutability":"view","type":"function"},{"inputs":[{"internalType":"uint128","name":"token1Amt","type":"uint128"},{"internalType":"uint128","name":"token2Amt","type":"uint128"},{"internalType":"uint8","name":"sellingToken1","type":"uint8"},{"internalType":"uint256","name":"dllPosition","type":"uint256"}],"name":"makerOrder","outputs":[],"stateMutability":"nonpayable","type":"function"},{"inputs":[{"internalType":"uint256","name":"","type":"uint256"}],"name":"orders","outputs":[{"internalType":"uint128","name":"sellingTokenAmt","type":"uint128"},{"internalType":"uint128","name":"buyingTokenAmt","type":"uint128"},{"internalType":"address","name":"owner","type":"address"},{"internalType":"uint8","name":"sellingToken1","type":"uint8"},{"internalType":"uint8","name":"biggerToken","type":"uint8"},{"internalType":"uint256","name":"priceRatio","type":"uint256"}],"stateMutability":"view","type":"function"},{"inputs":[],"name":"owner","outputs":[{"internalType":"address","name":"","type":"address"}],"stateMutability":"view","type":"function"},{"inputs":[],"name":"renounceOwnership","outputs":[],"stateMutability":"nonpayable","type":"function"},{"inputs":[{"internalType":"uint128","name":"_makerFee","type":"uint128"}],"name":"setMakerFee","outputs":[],"stateMutability":"nonpayable","type":"function"},{"inputs":[{"internalType":"uint128","name":"_takerFee","type":"uint128"}],"name":"setTakerFee","outputs":[],"stateMutability":"nonpayable","type":"function"},{"inputs":[{"internalType":"uint128","name":"tokenAmt","type":"uint128"},{"internalType":"uint8","name":"spendingToken1","type":"uint8"}],"name":"take","outputs":[],"stateMutability":"nonpayable","type":"function"},{"inputs":[],"name":"takerFee","outputs":[{"internalType":"uint128","name":"","type":"uint128"}],"stateMutability":"view","type":"function"},{"inputs":[],"name":"token1","outputs":[{"internalType":"contract ERC20","name":"","type":"address"}],"stateMutability":"view","type":"function"},{"inputs":[],"name":"token2","outputs":[{"internalType":"contract ERC20","name":"","type":"address"}],"stateMutability":"view","type":"function"},{"inputs":[{"internalType":"address","name":"newOwner","type":"address"}],"name":"transferOwnership","outputs":[],"stateMutability":"nonpayable","type":"function"},{"inputs":[{"internalType":"uint256","name":"id","type":"uint256"}],"name":"viewOffer","outputs":[{"internalType":"uint128","name":"","type":"uint128"},{"internalType":"uint128","name":"","type":"uint128"},{"internalType":"address","name":"","type":"address"},{"internalType":"uint8","name":"","type":"uint8"}],"stateMutability":"view","type":"function"}],"evm":{"bytecode":{"linkReferences":{},"object":"608060405260016005553480156200001657600080fd5b5060405162005fed38038062005fed83398181016040528101906200003c91906200041a565b848484848462000061620000556200025260201b60201c565b6200025a60201b60201c565b84600160006101000a81548173ffffffffffffffffffffffffffffffffffffffff021916908373ffffffffffffffffffffffffffffffffffffffff16021790555083600260006101000a81548173ffffffffffffffffffffffffffffffffffffffff021916908373ffffffffffffffffffffffffffffffffffffffff16021790555082600360006101000a81548173ffffffffffffffffffffffffffffffffffffffff021916908373ffffffffffffffffffffffffffffffffffffffff16021790555081600460006101000a8154816fffffffffffffffffffffffffffffffff02191690836fffffffffffffffffffffffffffffffff16021790555080600460106101000a8154816fffffffffffffffffffffffffffffffff02191690836fffffffffffffffffffffffffffffffff1602179055505050505050600160088190555060405180606001604052806000815260200160008152602001600081525060096000808152602001908152602001600020600082015181600001556020820151816001015560408201518160020155905050604051806060016040528060008152602001600081526020016000815250600a60008081526020019081526020016000206000820151816000015560208201518160010155604082015181600201559050505050505050620004a2565b600033905090565b60008060009054906101000a900473ffffffffffffffffffffffffffffffffffffffff169050816000806101000a81548173ffffffffffffffffffffffffffffffffffffffff021916908373ffffffffffffffffffffffffffffffffffffffff1602179055508173ffffffffffffffffffffffffffffffffffffffff168173ffffffffffffffffffffffffffffffffffffffff167f8be0079c531659141344cd1fd0a4f28419497f9722a3daafe3b4186f6b6457e060405160405180910390a35050565b600080fd5b600073ffffffffffffffffffffffffffffffffffffffff82169050919050565b6000620003508262000323565b9050919050565b6000620003648262000343565b9050919050565b620003768162000357565b81146200038257600080fd5b50565b60008151905062000396816200036b565b92915050565b620003a78162000343565b8114620003b357600080fd5b50565b600081519050620003c7816200039c565b92915050565b60006fffffffffffffffffffffffffffffffff82169050919050565b620003f481620003cd565b81146200040057600080fd5b50565b6000815190506200041481620003e9565b92915050565b600080600080600060a086880312156200043957620004386200031e565b5b6000620004498882890162000385565b95505060206200045c8882890162000385565b94505060406200046f88828901620003b6565b9350506060620004828882890162000403565b9250506080620004958882890162000403565b9150509295509295909350565b615b3b80620004b26000396000f3fe608060405234801561001057600080fd5b506004361061014d5760003560e01c806367a32638116100c3578063cbbc94cf1161007c578063cbbc94cf14610398578063d1e09a5e146103b7578063d21220a7146103d3578063e9a1b82e146103f1578063f2fde38b1461040d578063fc741c7c146104295761014d565b806367a32638146102bc578063715018a6146102d85780638da5cb5b146102e25780639b55e63814610300578063a85c38ef14610333578063c2b5431f146103685761014d565b806343f0179b1161011557806343f0179b146101fc5780634423c5f11461021a578063514fcac71461024c5780635700017f1461026857806362de084114610284578063638bf2c7146102a05761014d565b80630b0c1493146101525780631fb32b861461018457806325be124e146101a25780633394177b146101c057806339e7fddc146101de575b600080fd5b61016c600480360381019061016791906150e9565b610447565b60405161017b93929190615125565b60405180910390f35b61018c610471565b6040516101999190615187565b60405180910390f35b6101aa610497565b6040516101b79190615221565b60405180910390f35b6101c86104bd565b6040516101d59190615187565b60405180910390f35b6101e66104e3565b6040516101f3919061525d565b60405180910390f35b610204610509565b6040516102119190615187565b60405180910390f35b610234600480360381019061022f91906150e9565b61052b565b60405161024393929190615125565b60405180910390f35b610266600480360381019061026191906150e9565b610555565b005b610282600480360381019061027d91906152dd565b6106f6565b005b61029e60048036038101906102999190615330565b6107c5565b005b6102ba60048036038101906102b59190615397565b611755565b005b6102d660048036038101906102d191906153d7565b611c3e565b005b6102e0611cd0565b005b6102ea611ce4565b6040516102f7919061525d565b60405180910390f35b61031a600480360381019061031591906150e9565b611d0d565b60405161032a9493929190615413565b60405180910390f35b61034d600480360381019061034891906150e9565b611e32565b60405161035f96959493929190615458565b60405180910390f35b610382600480360381019061037d91906150e9565b611ee0565b60405161038f91906154b9565b60405180910390f35b6103a0611ef8565b6040516103ae9291906154d4565b60405180910390f35b6103d160048036038101906103cc91906153d7565b611f49565b005b6103db611fdb565b6040516103e89190615221565b60405180910390f35b61040b600480360381019061040691906152dd565b612001565b005b61042760048036038101906104229190615529565b6120d0565b005b610431612153565b60405161043e9190615187565b60405180910390f35b600a6020528060005260406000206000915090508060000154908060010154908060020154905083565b6000600460109054906101000a90046fffffffffffffffffffffffffffffffff16905090565b600260009054906101000a900473ffffffffffffffffffffffffffffffffffffffff1681565b6000600460009054906101000a90046fffffffffffffffffffffffffffffffff16905090565b600360009054906101000a900473ffffffffffffffffffffffffffffffffffffffff1681565b600460009054906101000a90046fffffffffffffffffffffffffffffffff1681565b60096020528060005260406000206000915090508060000154908060010154908060020154905083565b61055d612175565b6001610568826121c4565b0361062e57600a600082815260200190815260200160002060010154600a6000600a600085815260200190815260200160002060020154815260200190815260200160002060010181905550600a600082815260200190815260200160002060020154600a6000600a600085815260200190815260200160002060010154815260200190815260200160002060020181905550600a60008281526020019081526020016000206000808201600090556001820160009055600282016000905550506106eb565b60096000828152602001908152602001600020600101546009600060096000858152602001908152602001600020600201548152602001908152602001600020600101819055506009600082815260200190815260200160002060020154600960006009600085815260200190815260200160002060010154815260200190815260200160002060020181905550600960008281526020019081526020016000206000808201600090556001820160009055600282016000905550505b6106f361267f565b50565b6106fe612175565b6000600190506000836fffffffffffffffffffffffffffffffff16856fffffffffffffffffffffffffffffffff161115610769578366038d7ea4c68000866107469190615585565b61075091906155f1565b6fffffffffffffffffffffffffffffffff1690506107a0565b600291508466038d7ea4c68000856107819190615585565b61078b91906155f1565b6fffffffffffffffffffffffffffffffff1690505b6000806107b08385878a8a612689565b91509150505050506107c061267f565b505050565b6107cd612175565b6000846fffffffffffffffffffffffffffffffff16148061080057506000836fffffffffffffffffffffffffffffffff16145b15610837576040517f82c4a8c900000000000000000000000000000000000000000000000000000000815260040160405180910390fd5b60018260ff161115610875576040517feeeef12e00000000000000000000000000000000000000000000000000000000815260040160405180910390fd5b6000600190506000846fffffffffffffffffffffffffffffffff16866fffffffffffffffffffffffffffffffff1611156108e0578466038d7ea4c68000876108bd9190615585565b6108c791906155f1565b6fffffffffffffffffffffffffffffffff169050610917565b600291508566038d7ea4c68000866108f89190615585565b61090291906155f1565b6fffffffffffffffffffffffffffffffff1690505b6109248183868989612689565b809650819750505060018460ff16036109d0576000866fffffffffffffffffffffffffffffffff1603610958575050611747565b60018260ff16146109985766038d7ea4c6800081876fffffffffffffffffffffffffffffffff166109899190615622565b6109939190615664565b6109c9565b8066038d7ea4c68000876fffffffffffffffffffffffffffffffff166109be9190615622565b6109c89190615664565b5b9450610a65565b6000856fffffffffffffffffffffffffffffffff16036109f1575050611747565b60018260ff1614610a31578066038d7ea4c68000866fffffffffffffffffffffffffffffffff16610a229190615622565b610a2c9190615664565b610a62565b66038d7ea4c6800081866fffffffffffffffffffffffffffffffff16610a579190615622565b610a619190615664565b5b95505b6000610a748787848689613661565b905060018560ff16036110e4576001841480610aa657506000600a600086815260200190815260200160002060010154145b15610c9057600160066000600a600080815260200190815260200160002060020154815260200190815260200160002060010160159054906101000a900460ff1660ff16148015610afa575060018360ff16145b15610b5d5760066000600a6000808152602001908152602001600020600201548152602001908152602001600020600201548211610b4557610b3e82846001613c1b565b9350610b58565b610b50816001614009565b505050611747565b610c8b565b600260066000600a600080815260200190815260200160002060020154815260200190815260200160002060010160159054906101000a900460ff1660ff16148015610bac575060028360ff16145b15610c0f5760066000600a6000808152602001908152602001600020600201548152602001908152602001600020600201548210610bf757610bf082846001613c1b565b9350610c0a565b610c02816001614009565b505050611747565b610c8a565b600160066000600a600080815260200190815260200160002060020154815260200190815260200160002060010160159054906101000a900460ff1660ff16148015610c5e575060028360ff16145b15610c7657610c6f82846001613c1b565b9350610c89565b610c81816001614009565b505050611747565b5b5b6110d3565b60008403610e3a57600160066000600a600080815260200190815260200160002060010154815260200190815260200160002060010160159054906101000a900460ff1660ff16148015610ce7575060018360ff16145b15610d345760066000600a600080815260200190815260200160002060010154815260200190815260200160002060020154821115610d2f57610d2c82846001613c1b565b93505b610e35565b600260066000600a600080815260200190815260200160002060010154815260200190815260200160002060010160159054906101000a900460ff1660ff16148015610d83575060028360ff16145b15610dd05760066000600a600080815260200190815260200160002060010154815260200190815260200160002060020154821015610dcb57610dc882846001613c1b565b93505b610e34565b600160066000600a600080815260200190815260200160002060010154815260200190815260200160002060010160159054906101000a900460ff1660ff16148015610e1f575060028360ff16145b15610e3357610e3082846001613c1b565b93505b5b5b6110d2565b600160066000600a600088815260200190815260200160002060010154815260200190815260200160002060010160159054906101000a900460ff1660ff16148015610e89575060018360ff16145b15610f315760066000600a600087815260200190815260200160002060010154815260200190815260200160002060020154821115610ed157610ece82846001613c1b565b93505b60016006600086815260200190815260200160002060010160159054906101000a900460ff1660ff1603610f2c5760066000858152602001908152602001600020600201548211610f2b57610f2882846001613c1b565b93505b5b6110d1565b600260066000600a600088815260200190815260200160002060010154815260200190815260200160002060010160159054906101000a900460ff1660ff16148015610f80575060028360ff16145b15610ff95760066000600a600087815260200190815260200160002060010154815260200190815260200160002060020154821015610fc857610fc582846001613c1b565b93505b60066000858152602001908152602001600020600201548210610ff457610ff182846001613c1b565b93505b6110d0565b600160066000600a600088815260200190815260200160002060010154815260200190815260200160002060010160159054906101000a900460ff1660ff16148015611048575060028360ff16145b156110c05760016006600086815260200190815260200160002060010160159054906101000a900460ff1660ff160361108e5761108782846001613c1b565b93506110bb565b600660008581526020019081526020016000206002015482116110ba576110b782846001613c1b565b93505b5b6110cf565b6110cc82846001613c1b565b93505b5b5b5b5b6110df8482600161421c565b611743565b6001841480611109575060006009600086815260200190815260200160002060010154145b156112f3576001600660006009600080815260200190815260200160002060020154815260200190815260200160002060010160159054906101000a900460ff1660ff1614801561115d575060018360ff16145b156111c05760066000600960008081526020019081526020016000206002015481526020019081526020016000206002015482106111a8576111a182846000613c1b565b93506111bb565b6111b3816000614009565b505050611747565b6112ee565b6002600660006009600080815260200190815260200160002060020154815260200190815260200160002060010160159054906101000a900460ff1660ff1614801561120f575060028360ff16145b1561127257600660006009600080815260200190815260200160002060020154815260200190815260200160002060020154821161125a5761125382846000613c1b565b935061126d565b611265816000614009565b505050611747565b6112ed565b6002600660006009600080815260200190815260200160002060020154815260200190815260200160002060010160159054906101000a900460ff1660ff161480156112c1575060018360ff16145b156112d9576112d282846000613c1b565b93506112ec565b6112e4816000614009565b505050611747565b5b5b611736565b6000840361149d576001600660006009600080815260200190815260200160002060010154815260200190815260200160002060010160159054906101000a900460ff1660ff1614801561134a575060018360ff16145b15611397576006600060096000808152602001908152602001600020600101548152602001908152602001600020600201548210156113925761138f82846000613c1b565b93505b611498565b6002600660006009600080815260200190815260200160002060010154815260200190815260200160002060010160159054906101000a900460ff1660ff161480156113e6575060028360ff16145b156114335760066000600960008081526020019081526020016000206001015481526020019081526020016000206002015482111561142e5761142b82846000613c1b565b93505b611497565b6002600660006009600080815260200190815260200160002060010154815260200190815260200160002060010160159054906101000a900460ff1660ff16148015611482575060018360ff16145b156114965761149382846000613c1b565b93505b5b5b611735565b6001600660006009600088815260200190815260200160002060010154815260200190815260200160002060010160159054906101000a900460ff1660ff161480156114ec575060018360ff16145b15611565576006600060096000878152602001908152602001600020600101548152602001908152602001600020600201548210156115345761153182846000613c1b565b93505b600660008581526020019081526020016000206002015482106115605761155d82846000613c1b565b93505b611734565b6002600660006009600088815260200190815260200160002060010154815260200190815260200160002060010160159054906101000a900460ff1660ff161480156115b4575060028360ff16145b1561165c576006600060096000878152602001908152602001600020600101548152602001908152602001600020600201548211156115fc576115f982846000613c1b565b93505b60026006600086815260200190815260200160002060010160159054906101000a900460ff1660ff160361165757600660008581526020019081526020016000206002015482116116565761165382846000613c1b565b93505b5b611733565b6002600660006009600088815260200190815260200160002060010154815260200190815260200160002060010160159054906101000a900460ff1660ff161480156116ab575060018360ff16145b156117235760026006600086815260200190815260200160002060010160159054906101000a900460ff1660ff16036116f1576116ea82846000613c1b565b935061171e565b6006600085815260200190815260200160002060020154821061171d5761171a82846000613c1b565b93505b5b611732565b61172f82846000613c1b565b93505b5b5b5b5b6117428482600061421c565b5b5050505b61174f61267f565b50505050565b61175d612175565b60018160ff16036119cf5760006009600060096000808152602001908152602001600020600201548152602001908152602001600020604051806060016040529081600082015481526020016001820154815260200160028201548152505090505b60008160000151141580156117e757506000836fffffffffffffffffffffffffffffffff1614155b156119c9576000600660008360000151815260200190815260200160002060000160109054906101000a90046fffffffffffffffffffffffffffffffff166fffffffffffffffffffffffffffffffff16846fffffffffffffffffffffffffffffffff161061188b57600660008360000151815260200190815260200160002060000160109054906101000a90046fffffffffffffffffffffffffffffffff1661188d565b835b905061189d82600001518261442c565b1561197357600960008360000151815260200190815260200160002060010154600960006009600086600001518152602001908152602001600020600201548152602001908152602001600020600101819055506009600083600001518152602001908152602001600020600201546009600060096000866000015181526020019081526020016000206001015481526020019081526020016000206002018190555060096000836000015181526020019081526020016000206000808201600090556001820160009055600282016000905550505b808461197f9190615695565b9350600960008360400151815260200190815260200160002060405180606001604052908160008201548152602001600182015481526020016002820154815250509150506117bf565b50611c32565b6000600a6000600a6000808152602001908152602001600020600201548152602001908152602001600020604051806060016040529081600082015481526020016001820154815260200160028201548152505090505b6000816000015114158015611a4e57506000836fffffffffffffffffffffffffffffffff1614155b15611c30576000600660008360000151815260200190815260200160002060000160109054906101000a90046fffffffffffffffffffffffffffffffff166fffffffffffffffffffffffffffffffff16846fffffffffffffffffffffffffffffffff1610611af257600660008360000151815260200190815260200160002060000160109054906101000a90046fffffffffffffffffffffffffffffffff16611af4565b835b9050611b0482600001518261442c565b15611bda57600a60008360000151815260200190815260200160002060010154600a6000600a60008660000151815260200190815260200160002060020154815260200190815260200160002060010181905550600a60008360000151815260200190815260200160002060020154600a6000600a60008660000151815260200190815260200160002060010154815260200190815260200160002060020181905550600a6000836000015181526020019081526020016000206000808201600090556001820160009055600282016000905550505b8084611be69190615695565b9350600a6000836040015181526020019081526020016000206040518060600160405290816000820154815260200160018201548152602001600282015481525050915050611a26565b505b611c3a61267f565b5050565b611c46614eee565b611388816fffffffffffffffffffffffffffffffff161115611c94576040517fac98d7e100000000000000000000000000000000000000000000000000000000815260040160405180910390fd5b80600460006101000a8154816fffffffffffffffffffffffffffffffff02191690836fffffffffffffffffffffffffffffffff16021790555050565b611cd8614eee565b611ce26000614f6c565b565b60008060009054906101000a900473ffffffffffffffffffffffffffffffffffffffff16905090565b600080600080846001600760008381526020019081526020016000205414611d61576040517fd4dbb56500000000000000000000000000000000000000000000000000000000815260040160405180910390fd5b6006600087815260200190815260200160002060000160009054906101000a90046fffffffffffffffffffffffffffffffff166006600088815260200190815260200160002060000160109054906101000a90046fffffffffffffffffffffffffffffffff166006600089815260200190815260200160002060010160009054906101000a900473ffffffffffffffffffffffffffffffffffffffff16600660008a815260200190815260200160002060010160149054906101000a900460ff169450945094509450509193509193565b60066020528060005260406000206000915090508060000160009054906101000a90046fffffffffffffffffffffffffffffffff16908060000160109054906101000a90046fffffffffffffffffffffffffffffffff16908060010160009054906101000a900473ffffffffffffffffffffffffffffffffffffffff16908060010160149054906101000a900460ff16908060010160159054906101000a900460ff16908060020154905086565b60076020528060005260406000206000915090505481565b600080600160009054906101000a900473ffffffffffffffffffffffffffffffffffffffff16600260009054906101000a900473ffffffffffffffffffffffffffffffffffffffff16915091509091565b611f51614eee565b611388816fffffffffffffffffffffffffffffffff161115611f9f576040517fac98d7e100000000000000000000000000000000000000000000000000000000815260040160405180910390fd5b80600460106101000a8154816fffffffffffffffffffffffffffffffff02191690836fffffffffffffffffffffffffffffffff16021790555050565b600160009054906101000a900473ffffffffffffffffffffffffffffffffffffffff1681565b612009612175565b6000600190506000836fffffffffffffffffffffffffffffffff16856fffffffffffffffffffffffffffffffff161115612074578366038d7ea4c68000866120519190615585565b61205b91906155f1565b6fffffffffffffffffffffffffffffffff1690506120ab565b600291508466038d7ea4c680008561208c9190615585565b61209691906155f1565b6fffffffffffffffffffffffffffffffff1690505b6000806120bb8385878a8a612689565b91509150505050506120cb61267f565b505050565b6120d8614eee565b600073ffffffffffffffffffffffffffffffffffffffff168173ffffffffffffffffffffffffffffffffffffffff1603612147576040517f08c379a000000000000000000000000000000000000000000000000000000000815260040161213e9061575c565b60405180910390fd5b61215081614f6c565b50565b600460109054906101000a90046fffffffffffffffffffffffffffffffff1681565b6002600854036121ba576040517f08c379a00000000000000000000000000000000000000000000000000000000081526004016121b1906157c8565b60405180910390fd5b6002600881905550565b6000816001600760008381526020019081526020016000205414612214576040517fd4dbb56500000000000000000000000000000000000000000000000000000000815260040160405180910390fd5b6006600084815260200190815260200160002060010160009054906101000a900473ffffffffffffffffffffffffffffffffffffffff1673ffffffffffffffffffffffffffffffffffffffff163373ffffffffffffffffffffffffffffffffffffffff16146122af576040517f71b3ee5400000000000000000000000000000000000000000000000000000000815260040160405180910390fd5b6006600084815260200190815260200160002060010160149054906101000a900460ff1660ff16915060006001831461230a57600260009054906101000a900473ffffffffffffffffffffffffffffffffffffffff1661232e565b600160009054906101000a900473ffffffffffffffffffffffffffffffffffffffff165b90508073ffffffffffffffffffffffffffffffffffffffff1663a9059cbb336006600088815260200190815260200160002060000160009054906101000a90046fffffffffffffffffffffffffffffffff166040518363ffffffff1660e01b815260040161239d929190615819565b6020604051808303816000875af11580156123bc573d6000803e3d6000fd5b505050506040513d601f19601f820116820180604052508101906123e0919061587a565b612416576040517f16e8bb8a00000000000000000000000000000000000000000000000000000000815260040160405180910390fd5b60066000858152602001908152602001600020600080820160006101000a8154906fffffffffffffffffffffffffffffffff02191690556000820160106101000a8154906fffffffffffffffffffffffffffffffff02191690556001820160006101000a81549073ffffffffffffffffffffffffffffffffffffffff02191690556001820160146101000a81549060ff02191690556001820160156101000a81549060ff021916905560028201600090555050600060076000868152602001908152602001600020819055506006600085815260200190815260200160002060010160009054906101000a900473ffffffffffffffffffffffffffffffffffffffff1673ffffffffffffffffffffffffffffffffffffffff16847ffbb617a7e150d13b66c2a6e1a6c97bdc657646bc0140f27ecd9d01f221286735600160009054906101000a900473ffffffffffffffffffffffffffffffffffffffff16600260009054906101000a900473ffffffffffffffffffffffffffffffffffffffff166040516125a59291906154d4565b60405180910390a36006600085815260200190815260200160002060010160009054906101000a900473ffffffffffffffffffffffffffffffffffffffff1673ffffffffffffffffffffffffffffffffffffffff16847f656784e03a7c385a876628902e43d42b36f34918046dffa661230a9dad4e7ba4600160009054906101000a900473ffffffffffffffffffffffffffffffffffffffff16600260009054906101000a900473ffffffffffffffffffffffffffffffffffffffff166040516126709291906154d4565b60405180910390a35050919050565b6001600881905550565b60008060018560ff1603612e765760006009600060096000808152602001908152602001600020600201548152602001908152602001600020604051806060016040529081600082015481526020016001820154815260200160028201548152505090505b600081600001511415801561271657506000856fffffffffffffffffffffffffffffffff1614155b15612e705760018760ff1603612bb0576001600660008360000151815260200190815260200160002060010160159054906101000a900460ff1660ff160361299957600660008260000151815260200190815260200160002060020154881061298f578766038d7ea4c68000866fffffffffffffffffffffffffffffffff1661279f9190615622565b6127a99190615664565b93506000600660008360000151815260200190815260200160002060000160009054906101000a90046fffffffffffffffffffffffffffffffff166fffffffffffffffffffffffffffffffff16856fffffffffffffffffffffffffffffffff161061284a57600660008360000151815260200190815260200160002060000160009054906101000a90046fffffffffffffffffffffffffffffffff1661284c565b845b905061285c82600001518261442c565b1561293257600960008360000151815260200190815260200160002060010154600960006009600086600001518152602001908152602001600020600201548152602001908152602001600020600101819055506009600083600001518152602001908152602001600020600201546009600060096000866000015181526020019081526020016000206001015481526020019081526020016000206002018190555060096000836000015181526020019081526020016000206000808201600090556001820160009055600282016000905550505b66038d7ea4c68000600660008460000151815260200190815260200160002060020154826fffffffffffffffffffffffffffffffff166129729190615622565b61297c9190615664565b866129879190615695565b955050612994565b612e70565b612bab565b8766038d7ea4c68000866fffffffffffffffffffffffffffffffff166129bf9190615622565b6129c99190615664565b93506000600660008360000151815260200190815260200160002060000160009054906101000a90046fffffffffffffffffffffffffffffffff166fffffffffffffffffffffffffffffffff16856fffffffffffffffffffffffffffffffff1610612a6a57600660008360000151815260200190815260200160002060000160009054906101000a90046fffffffffffffffffffffffffffffffff16612a6c565b845b9050612a7c82600001518261442c565b15612b5257600960008360000151815260200190815260200160002060010154600960006009600086600001518152602001908152602001600020600201548152602001908152602001600020600101819055506009600083600001518152602001908152602001600020600201546009600060096000866000015181526020019081526020016000206001015481526020019081526020016000206002018190555060096000836000015181526020019081526020016000206000808201600090556001820160009055600282016000905550505b60066000836000015181526020019081526020016000206002015466038d7ea4c68000826fffffffffffffffffffffffffffffffff16612b929190615622565b612b9c9190615664565b86612ba79190615695565b9550505b612e29565b6002600660008360000151815260200190815260200160002060010160159054906101000a900460ff1660ff1603612e23576006600082600001518152602001908152602001600020600201548811612e195766038d7ea4c6800088866fffffffffffffffffffffffffffffffff16612c299190615622565b612c339190615664565b93506000600660008360000151815260200190815260200160002060000160009054906101000a90046fffffffffffffffffffffffffffffffff166fffffffffffffffffffffffffffffffff16856fffffffffffffffffffffffffffffffff1610612cd457600660008360000151815260200190815260200160002060000160009054906101000a90046fffffffffffffffffffffffffffffffff16612cd6565b845b9050612ce682600001518261442c565b15612dbc57600960008360000151815260200190815260200160002060010154600960006009600086600001518152602001908152602001600020600201548152602001908152602001600020600101819055506009600083600001518152602001908152602001600020600201546009600060096000866000015181526020019081526020016000206001015481526020019081526020016000206002018190555060096000836000015181526020019081526020016000206000808201600090556001820160009055600282016000905550505b60066000836000015181526020019081526020016000206002015466038d7ea4c68000826fffffffffffffffffffffffffffffffff16612dfc9190615622565b612e069190615664565b86612e119190615695565b955050612e1e565b612e70565b612e28565b612e70565b5b6009600082604001518152602001908152602001600020604051806060016040529081600082015481526020016001820154815260200160028201548152505090506126ee565b50613651565b6000600a6000600a6000808152602001908152602001600020600201548152602001908152602001600020604051806060016040529081600082015481526020016001820154815260200160028201548152505090505b6000816000015114158015612ef557506000846fffffffffffffffffffffffffffffffff1614155b1561364f5760018760ff1603613182576001600660008360000151815260200190815260200160002060010160159054906101000a900460ff1660ff160361317857600660008260000151815260200190815260200160002060020154881161316e5766038d7ea4c6800088856fffffffffffffffffffffffffffffffff16612f7e9190615622565b612f889190615664565b94506000600660008360000151815260200190815260200160002060000160009054906101000a90046fffffffffffffffffffffffffffffffff166fffffffffffffffffffffffffffffffff16866fffffffffffffffffffffffffffffffff161061302957600660008360000151815260200190815260200160002060000160009054906101000a90046fffffffffffffffffffffffffffffffff1661302b565b855b905061303b82600001518261442c565b1561311157600a60008360000151815260200190815260200160002060010154600a6000600a60008660000151815260200190815260200160002060020154815260200190815260200160002060010181905550600a60008360000151815260200190815260200160002060020154600a6000600a60008660000151815260200190815260200160002060010154815260200190815260200160002060020181905550600a6000836000015181526020019081526020016000206000808201600090556001820160009055600282016000905550505b60066000836000015181526020019081526020016000206002015466038d7ea4c68000826fffffffffffffffffffffffffffffffff166131519190615622565b61315b9190615664565b856131669190615695565b945050613173565b61364f565b61317d565b61364f565b613608565b6002600660008360000151815260200190815260200160002060010160159054906101000a900460ff1660ff16036133f55760066000826000015181526020019081526020016000206002015488106133eb578766038d7ea4c68000856fffffffffffffffffffffffffffffffff166131fb9190615622565b6132059190615664565b94506000600660008360000151815260200190815260200160002060000160009054906101000a90046fffffffffffffffffffffffffffffffff166fffffffffffffffffffffffffffffffff16866fffffffffffffffffffffffffffffffff16106132a657600660008360000151815260200190815260200160002060000160009054906101000a90046fffffffffffffffffffffffffffffffff166132a8565b855b90506132b882600001518261442c565b1561338e57600a60008360000151815260200190815260200160002060010154600a6000600a60008660000151815260200190815260200160002060020154815260200190815260200160002060010181905550600a60008360000151815260200190815260200160002060020154600a6000600a60008660000151815260200190815260200160002060010154815260200190815260200160002060020181905550600a6000836000015181526020019081526020016000206000808201600090556001820160009055600282016000905550505b66038d7ea4c68000600660008460000151815260200190815260200160002060020154826fffffffffffffffffffffffffffffffff166133ce9190615622565b6133d89190615664565b856133e39190615695565b9450506133f0565b61364f565b613607565b8766038d7ea4c68000856fffffffffffffffffffffffffffffffff1661341b9190615622565b6134259190615664565b94506000600660008360000151815260200190815260200160002060000160009054906101000a90046fffffffffffffffffffffffffffffffff166fffffffffffffffffffffffffffffffff16866fffffffffffffffffffffffffffffffff16106134c657600660008360000151815260200190815260200160002060000160009054906101000a90046fffffffffffffffffffffffffffffffff166134c8565b855b90506134d882600001518261442c565b156135ae57600a60008360000151815260200190815260200160002060010154600a6000600a60008660000151815260200190815260200160002060020154815260200190815260200160002060010181905550600a60008360000151815260200190815260200160002060020154600a6000600a60008660000151815260200190815260200160002060010154815260200190815260200160002060020181905550600a6000836000015181526020019081526020016000206000808201600090556001820160009055600282016000905550505b60066000836000015181526020019081526020016000206002015466038d7ea4c68000826fffffffffffffffffffffffffffffffff166135ee9190615622565b6135f89190615664565b856136039190615695565b9450505b5b600a60008260400151815260200190815260200160002060405180606001604052908160008201548152602001600182015481526020016002820154815250509050612ecd565b505b8383915091509550959350505050565b600060018260ff1611156136a1576040517feeeef12e00000000000000000000000000000000000000000000000000000000815260040160405180910390fd5b6000866fffffffffffffffffffffffffffffffff1614806136d457506000856fffffffffffffffffffffffffffffffff16145b1561370b576040517f82c4a8c900000000000000000000000000000000000000000000000000000000815260040160405180910390fd5b613713615038565b60018360ff160361386d57600160009054906101000a900473ffffffffffffffffffffffffffffffffffffffff1673ffffffffffffffffffffffffffffffffffffffff166323b872dd33308a6fffffffffffffffffffffffffffffffff166040518463ffffffff1660e01b815260040161378f939291906158a7565b6020604051808303816000875af11580156137ae573d6000803e3d6000fd5b505050506040513d601f19601f820116820180604052508101906137d2919061587a565b613808576040517fbdc9548300000000000000000000000000000000000000000000000000000000815260040160405180910390fd5b8681600001906fffffffffffffffffffffffffffffffff1690816fffffffffffffffffffffffffffffffff16815250508581602001906fffffffffffffffffffffffffffffffff1690816fffffffffffffffffffffffffffffffff16815250506139b8565b600260009054906101000a900473ffffffffffffffffffffffffffffffffffffffff1673ffffffffffffffffffffffffffffffffffffffff166323b872dd3330896fffffffffffffffffffffffffffffffff166040518463ffffffff1660e01b81526004016138de939291906158a7565b6020604051808303816000875af11580156138fd573d6000803e3d6000fd5b505050506040513d601f19601f82011682018060405250810190613921919061587a565b613957576040517fbdc9548300000000000000000000000000000000000000000000000000000000815260040160405180910390fd5b8581600001906fffffffffffffffffffffffffffffffff1690816fffffffffffffffffffffffffffffffff16815250508681602001906fffffffffffffffffffffffffffffffff1690816fffffffffffffffffffffffffffffffff16815250505b33816040019073ffffffffffffffffffffffffffffffffffffffff16908173ffffffffffffffffffffffffffffffffffffffff168152505082816060019060ff16908160ff1681525050848160a001818152505083816080019060ff16908160ff1681525050600560008154613a2d906158de565b9190508190559150806006600084815260200190815260200160002060008201518160000160006101000a8154816fffffffffffffffffffffffffffffffff02191690836fffffffffffffffffffffffffffffffff16021790555060208201518160000160106101000a8154816fffffffffffffffffffffffffffffffff02191690836fffffffffffffffffffffffffffffffff16021790555060408201518160010160006101000a81548173ffffffffffffffffffffffffffffffffffffffff021916908373ffffffffffffffffffffffffffffffffffffffff16021790555060608201518160010160146101000a81548160ff021916908360ff16021790555060808201518160010160156101000a81548160ff021916908360ff16021790555060a08201518160020155905050600160076000848152602001908152602001600020819055503373ffffffffffffffffffffffffffffffffffffffff16827f86a795d5b728822a49a78619d8bf7fef97a37f2dd7341784ec2ca7496f803ff8600160009054906101000a900473ffffffffffffffffffffffffffffffffffffffff16600260009054906101000a900473ffffffffffffffffffffffffffffffffffffffff16878c8c604051613c09959493929190615926565b60405180910390a35095945050505050565b6000808260ff1603613e145760006009600060096000808152602001908152602001600020600201548152602001908152602001600020604051806060016040529081600082015481526020016001820154815260200160028201548152505090505b6000816000015114613e0e576001600660008360000151815260200190815260200160002060010160159054906101000a900460ff1660ff16148015613cc7575060018460ff16145b15613d0057600660008260000151815260200190815260200160002060020154851015613cfb578060000151915050614002565b613dc7565b6002600660008360000151815260200190815260200160002060010160159054906101000a900460ff1660ff16148015613d3d575060028460ff16145b15613d7657600660008260000151815260200190815260200160002060020154851115613d71578060000151915050614002565b613dc6565b6001600660008360000151815260200190815260200160002060010160159054906101000a900460ff1660ff16148015613db3575060028460ff16145b15613dc5578060000151915050614002565b5b5b600960008260400151815260200190815260200160002060405180606001604052908160008201548152602001600182015481526020016002820154815250509050613c7e565b50613ffd565b6000600a6000600a6000808152602001908152602001600020600201548152602001908152602001600020604051806060016040529081600082015481526020016001820154815260200160028201548152505090505b6000816000015114613ffb576001600660008360000151815260200190815260200160002060010160159054906101000a900460ff1660ff16148015613eb4575060018460ff16145b15613eed57600660008260000151815260200190815260200160002060020154851115613ee8578060000151915050614002565b613fb4565b6002600660008360000151815260200190815260200160002060010160159054906101000a900460ff1660ff16148015613f2a575060028460ff16145b15613f6357600660008260000151815260200190815260200160002060020154851015613f5e578060000151915050614002565b613fb3565b6002600660008360000151815260200190815260200160002060010160159054906101000a900460ff1660ff16148015613fa0575060018460ff16145b15613fb2578060000151915050614002565b5b5b600a60008260400151815260200190815260200160002060405180606001604052908160008201548152602001600182015481526020016002820154815250509050613e6b565b505b600090505b9392505050565b60008160ff160361411857604051806060016040528083815260200160008152602001600960008081526020019081526020016000206002015481525060096000848152602001908152602001600020600082015181600001556020820151816001015560408201518160020155905050816009600060096000808152602001908152602001600020600201548152602001908152602001600020600101819055506009600080815260200190815260200160002060020154600960008481526020019081526020016000206002018190555081600960008081526020019081526020016000206002018190555060006009600084815260200190815260200160002060010181905550614218565b604051806060016040528083815260200160008152602001600a600080815260200190815260200160002060020154815250600a600084815260200190815260200160002060008201518160000155602082015181600101556040820151816002015590505081600a6000600a600080815260200190815260200160002060020154815260200190815260200160002060010181905550600a600080815260200190815260200160002060020154600a60008481526020019081526020016000206002018190555081600a6000808152602001908152602001600020600201819055506000600a6000848152602001908152602001600020600101819055505b5050565b60008160ff16036143295760405180606001604052808381526020016009600086815260200190815260200160002060010154815260200184815250600960008481526020019081526020016000206000820151816000015560208201518160010155604082015181600201559050508160096000600960008781526020019081526020016000206001015481526020019081526020016000206002018190555060096000848152602001908152602001600020600101546009600084815260200190815260200160002060010181905550826009600084815260200190815260200160002060020181905550816009600085815260200190815260200160002060010181905550614427565b6040518060600160405280838152602001600a600086815260200190815260200160002060010154815260200184815250600a600084815260200190815260200160002060008201518160000155602082015181600101556040820151816002015590505081600a6000600a600087815260200190815260200160002060010154815260200190815260200160002060020181905550600a600084815260200190815260200160002060010154600a60008481526020019081526020016000206001018190555082600a60008481526020019081526020016000206002018190555081600a6000858152602001908152602001600020600101819055505b505050565b600082600160076000838152602001908152602001600020541461447c576040517fd4dbb56500000000000000000000000000000000000000000000000000000000815260040160405180910390fd5b6000836fffffffffffffffffffffffffffffffff16036144c8576040517f42487d8700000000000000000000000000000000000000000000000000000000815260040160405180910390fd5b6000600660008681526020019081526020016000206040518060c00160405290816000820160009054906101000a90046fffffffffffffffffffffffffffffffff166fffffffffffffffffffffffffffffffff166fffffffffffffffffffffffffffffffff1681526020016000820160109054906101000a90046fffffffffffffffffffffffffffffffff166fffffffffffffffffffffffffffffffff166fffffffffffffffffffffffffffffffff1681526020016001820160009054906101000a900473ffffffffffffffffffffffffffffffffffffffff1673ffffffffffffffffffffffffffffffffffffffff1673ffffffffffffffffffffffffffffffffffffffff1681526020016001820160149054906101000a900460ff1660ff1660ff1681526020016001820160159054906101000a900460ff1660ff1660ff168152602001600282015481525050905080600001516fffffffffffffffffffffffffffffffff16846fffffffffffffffffffffffffffffffff16111561467a576040517f7d0884a000000000000000000000000000000000000000000000000000000000815260040160405180910390fd5b600081600001518583602001516146919190615585565b61469b91906155f1565b90506000612710600460009054906101000a90046fffffffffffffffffffffffffffffffff16836146cc9190615585565b6146d691906155f1565b90506000612710600460109054906101000a90046fffffffffffffffffffffffffffffffff16846147079190615585565b61471191906155f1565b90506000806001866060015160ff160361477457600160009054906101000a900473ffffffffffffffffffffffffffffffffffffffff169150600260009054906101000a900473ffffffffffffffffffffffffffffffffffffffff1690506147bf565b600260009054906101000a900473ffffffffffffffffffffffffffffffffffffffff169150600160009054906101000a900473ffffffffffffffffffffffffffffffffffffffff1690505b8073ffffffffffffffffffffffffffffffffffffffff166323b872dd33600360009054906101000a900473ffffffffffffffffffffffffffffffffffffffff16868861480b9190615979565b6040518463ffffffff1660e01b8152600401614829939291906159bd565b6020604051808303816000875af1158015614848573d6000803e3d6000fd5b505050506040513d601f19601f8201168201806040525081019061486c919061587a565b6148a2576040517ff084e98f00000000000000000000000000000000000000000000000000000000815260040160405180910390fd5b8073ffffffffffffffffffffffffffffffffffffffff166323b872dd33886040015186896148d09190615695565b6040518463ffffffff1660e01b81526004016148ee939291906159bd565b6020604051808303816000875af115801561490d573d6000803e3d6000fd5b505050506040513d601f19601f82011682018060405250810190614931919061587a565b614967576040517fcb03b46a00000000000000000000000000000000000000000000000000000000815260040160405180910390fd5b8173ffffffffffffffffffffffffffffffffffffffff1663a9059cbb338b6040518363ffffffff1660e01b81526004016149a2929190615819565b6020604051808303816000875af11580156149c1573d6000803e3d6000fd5b505050506040513d601f19601f820116820180604052508101906149e5919061587a565b614a1b576040517f16e8bb8a00000000000000000000000000000000000000000000000000000000815260040160405180910390fd5b88600660008c815260200190815260200160002060000160008282829054906101000a90046fffffffffffffffffffffffffffffffff16614a5c9190615695565b92506101000a8154816fffffffffffffffffffffffffffffffff02191690836fffffffffffffffffffffffffffffffff16021790555084600660008c815260200190815260200160002060000160108282829054906101000a90046fffffffffffffffffffffffffffffffff16614ad39190615695565b92506101000a8154816fffffffffffffffffffffffffffffffff02191690836fffffffffffffffffffffffffffffffff1602179055503373ffffffffffffffffffffffffffffffffffffffff168a7feb84ff1148208f015dba6ccb3771cc0e015814bd59d80d36f64b67eaa22ff4c18387604051614b529291906159f4565b60405180910390a3856040015173ffffffffffffffffffffffffffffffffffffffff168a7f58c21b42b391ab18f3955f8e6b5335536433c7031f0168296ba8fd434afec4378386604051614ba79291906159f4565b60405180910390a36001866060015160ff1603614c7d573373ffffffffffffffffffffffffffffffffffffffff16866040015173ffffffffffffffffffffffffffffffffffffffff168b7f213a768ca16ca5431f28672ded8edf0c6e0f9bd35a9bde17e5a8e08927477d518960600151600160009054906101000a900473ffffffffffffffffffffffffffffffffffffffff16600260009054906101000a900473ffffffffffffffffffffffffffffffffffffffff168f8c604051614c70959493929190615a1d565b60405180910390a4614c7e565b5b897f789f977edb6b2cb7807be6c4bb69148152ecf0ceee920b518b223f2cffa818fd600660008d815260200190815260200160002060000160009054906101000a90046fffffffffffffffffffffffffffffffff16600660008e815260200190815260200160002060000160109054906101000a90046fffffffffffffffffffffffffffffffff16604051614d14929190615a70565b60405180910390a26000600660008c815260200190815260200160002060000160009054906101000a90046fffffffffffffffffffffffffffffffff166fffffffffffffffffffffffffffffffff1603614edc57600660008b8152602001908152602001600020600080820160006101000a8154906fffffffffffffffffffffffffffffffff02191690556000820160106101000a8154906fffffffffffffffffffffffffffffffff02191690556001820160006101000a81549073ffffffffffffffffffffffffffffffffffffffff02191690556001820160146101000a81549060ff02191690556001820160156101000a81549060ff0219169055600282016000905550506000600760008c815260200190815260200160002081905550856040015173ffffffffffffffffffffffffffffffffffffffff168a7f656784e03a7c385a876628902e43d42b36f34918046dffa661230a9dad4e7ba4600160009054906101000a900473ffffffffffffffffffffffffffffffffffffffff16600260009054906101000a900473ffffffffffffffffffffffffffffffffffffffff16604051614ec59291906154d4565b60405180910390a360019750505050505050614ee7565b600097505050505050505b5092915050565b614ef6615030565b73ffffffffffffffffffffffffffffffffffffffff16614f14611ce4565b73ffffffffffffffffffffffffffffffffffffffff1614614f6a576040517f08c379a0000000000000000000000000000000000000000000000000000000008152600401614f6190615ae5565b60405180910390fd5b565b60008060009054906101000a900473ffffffffffffffffffffffffffffffffffffffff169050816000806101000a81548173ffffffffffffffffffffffffffffffffffffffff021916908373ffffffffffffffffffffffffffffffffffffffff1602179055508173ffffffffffffffffffffffffffffffffffffffff168173ffffffffffffffffffffffffffffffffffffffff167f8be0079c531659141344cd1fd0a4f28419497f9722a3daafe3b4186f6b6457e060405160405180910390a35050565b600033905090565b6040518060c0016040528060006fffffffffffffffffffffffffffffffff16815260200160006fffffffffffffffffffffffffffffffff168152602001600073ffffffffffffffffffffffffffffffffffffffff168152602001600060ff168152602001600060ff168152602001600081525090565b600080fd5b6000819050919050565b6150c6816150b3565b81146150d157600080fd5b50565b6000813590506150e3816150bd565b92915050565b6000602082840312156150ff576150fe6150ae565b5b600061510d848285016150d4565b91505092915050565b61511f816150b3565b82525050565b600060608201905061513a6000830186615116565b6151476020830185615116565b6151546040830184615116565b949350505050565b60006fffffffffffffffffffffffffffffffff82169050919050565b6151818161515c565b82525050565b600060208201905061519c6000830184615178565b92915050565b600073ffffffffffffffffffffffffffffffffffffffff82169050919050565b6000819050919050565b60006151e76151e26151dd846151a2565b6151c2565b6151a2565b9050919050565b60006151f9826151cc565b9050919050565b600061520b826151ee565b9050919050565b61521b81615200565b82525050565b60006020820190506152366000830184615212565b92915050565b6000615247826151a2565b9050919050565b6152578161523c565b82525050565b6000602082019050615272600083018461524e565b92915050565b6152818161515c565b811461528c57600080fd5b50565b60008135905061529e81615278565b92915050565b600060ff82169050919050565b6152ba816152a4565b81146152c557600080fd5b50565b6000813590506152d7816152b1565b92915050565b6000806000606084860312156152f6576152f56150ae565b5b60006153048682870161528f565b93505060206153158682870161528f565b9250506040615326868287016152c8565b9150509250925092565b6000806000806080858703121561534a576153496150ae565b5b60006153588782880161528f565b94505060206153698782880161528f565b935050604061537a878288016152c8565b925050606061538b878288016150d4565b91505092959194509250565b600080604083850312156153ae576153ad6150ae565b5b60006153bc8582860161528f565b92505060206153cd858286016152c8565b9150509250929050565b6000602082840312156153ed576153ec6150ae565b5b60006153fb8482850161528f565b91505092915050565b61540d816152a4565b82525050565b60006080820190506154286000830187615178565b6154356020830186615178565b615442604083018561524e565b61544f6060830184615404565b95945050505050565b600060c08201905061546d6000830189615178565b61547a6020830188615178565b615487604083018761524e565b6154946060830186615404565b6154a16080830185615404565b6154ae60a0830184615116565b979650505050505050565b60006020820190506154ce6000830184615116565b92915050565b60006040820190506154e96000830185615212565b6154f66020830184615212565b9392505050565b6155068161523c565b811461551157600080fd5b50565b600081359050615523816154fd565b92915050565b60006020828403121561553f5761553e6150ae565b5b600061554d84828501615514565b91505092915050565b7f4e487b7100000000000000000000000000000000000000000000000000000000600052601160045260246000fd5b60006155908261515c565b915061559b8361515c565b92508282026155a98161515c565b91508082146155bb576155ba615556565b5b5092915050565b7f4e487b7100000000000000000000000000000000000000000000000000000000600052601260045260246000fd5b60006155fc8261515c565b91506156078361515c565b925082615617576156166155c2565b5b828204905092915050565b600061562d826150b3565b9150615638836150b3565b9250828202615646816150b3565b9150828204841483151761565d5761565c615556565b5b5092915050565b600061566f826150b3565b915061567a836150b3565b92508261568a576156896155c2565b5b828204905092915050565b60006156a08261515c565b91506156ab8361515c565b925082820390506fffffffffffffffffffffffffffffffff8111156156d3576156d2615556565b5b92915050565b600082825260208201905092915050565b7f4f776e61626c653a206e6577206f776e657220697320746865207a65726f206160008201527f6464726573730000000000000000000000000000000000000000000000000000602082015250565b60006157466026836156d9565b9150615751826156ea565b604082019050919050565b6000602082019050818103600083015261577581615739565b9050919050565b7f5265656e7472616e637947756172643a207265656e7472616e742063616c6c00600082015250565b60006157b2601f836156d9565b91506157bd8261577c565b602082019050919050565b600060208201905081810360008301526157e1816157a5565b9050919050565b60006158036157fe6157f98461515c565b6151c2565b6150b3565b9050919050565b615813816157e8565b82525050565b600060408201905061582e600083018561524e565b61583b602083018461580a565b9392505050565b60008115159050919050565b61585781615842565b811461586257600080fd5b50565b6000815190506158748161584e565b92915050565b6000602082840312156158905761588f6150ae565b5b600061589e84828501615865565b91505092915050565b60006060820190506158bc600083018661524e565b6158c9602083018561524e565b6158d66040830184615116565b949350505050565b60006158e9826150b3565b91507fffffffffffffffffffffffffffffffffffffffffffffffffffffffffffffffff820361591b5761591a615556565b5b600182019050919050565b600060a08201905061593b6000830188615212565b6159486020830187615212565b6159556040830186615404565b6159626060830185615178565b61596f6080830184615178565b9695505050505050565b60006159848261515c565b915061598f8361515c565b925082820190506fffffffffffffffffffffffffffffffff8111156159b7576159b6615556565b5b92915050565b60006060820190506159d2600083018661524e565b6159df602083018561524e565b6159ec604083018461580a565b949350505050565b6000604082019050615a096000830185615212565b615a166020830184615178565b9392505050565b600060a082019050615a326000830188615404565b615a3f6020830187615212565b615a4c6040830186615212565b615a596060830185615178565b615a666080830184615178565b9695505050505050565b6000604082019050615a856000830185615178565b615a926020830184615178565b9392505050565b7f4f776e61626c653a2063616c6c6572206973206e6f7420746865206f776e6572600082015250565b6000615acf6020836156d9565b9150615ada82615a99565b602082019050919050565b60006020820190508181036000830152615afe81615ac2565b905091905056fea2646970667358221220400cbfe60a126f4df4f81b2b42438ba5ba852c093ac6fff276b90c3fad8c78c664736f6c63430008120033","opcodes":"PUSH1 0x80 PUSH1 0x40 MSTORE PUSH1 0x1 PUSH1 0x5 SSTORE CALLVALUE DUP1 ISZERO PUSH3 0x16 JUMPI PUSH1 0x0 DUP1 REVERT JUMPDEST POP PUSH1 0x40 MLOAD PUSH3 0x5FED CODESIZE SUB DUP1 PUSH3 0x5FED DUP4 CODECOPY DUP2 DUP2 ADD PUSH1 0x40 MSTORE DUP2 ADD SWAP1 PUSH3 0x3C SWAP2 SWAP1 PUSH3 0x41A JUMP JUMPDEST DUP5 DUP5 DUP5 DUP5 DUP5 PUSH3 0x61 PUSH3 0x55 PUSH3 0x252 PUSH1 0x20 SHL PUSH1 0x20 SHR JUMP JUMPDEST PUSH3 0x25A PUSH1 0x20 SHL PUSH1 0x20 SHR JUMP JUMPDEST DUP5 PUSH1 0x1 PUSH1 0x0 PUSH2 0x100 EXP DUP2 SLOAD DUP2 PUSH20 0xFFFFFFFFFFFFFFFFFFFFFFFFFFFFFFFFFFFFFFFF MUL NOT AND SWAP1 DUP4 PUSH20 0xFFFFFFFFFFFFFFFFFFFFFFFFFFFFFFFFFFFFFFFF AND MUL OR SWAP1 SSTORE POP DUP4 PUSH1 0x2 PUSH1 0x0 PUSH2 0x100 EXP DUP2 SLOAD DUP2 PUSH20 0xFFFFFFFFFFFFFFFFFFFFFFFFFFFFFFFFFFFFFFFF MUL NOT AND SWAP1 DUP4 PUSH20 0xFFFFFFFFFFFFFFFFFFFFFFFFFFFFFFFFFFFFFFFF AND MUL OR SWAP1 SSTORE POP DUP3 PUSH1 0x3 PUSH1 0x0 PUSH2 0x100 EXP DUP2 SLOAD DUP2 PUSH20 0xFFFFFFFFFFFFFFFFFFFFFFFFFFFFFFFFFFFFFFFF MUL NOT AND SWAP1 DUP4 PUSH20 0xFFFFFFFFFFFFFFFFFFFFFFFFFFFFFFFFFFFFFFFF AND MUL OR SWAP1 SSTORE POP DUP2 PUSH1 0x4 PUSH1 0x0 PUSH2 0x100 EXP DUP2 SLOAD DUP2 PUSH16 0xFFFFFFFFFFFFFFFFFFFFFFFFFFFFFFFF MUL NOT AND SWAP1 DUP4 PUSH16 0xFFFFFFFFFFFFFFFFFFFFFFFFFFFFFFFF AND MUL OR SWAP1 SSTORE POP DUP1 PUSH1 0x4 PUSH1 0x10 PUSH2 0x100 EXP DUP2 SLOAD DUP2 PUSH16 0xFFFFFFFFFFFFFFFFFFFFFFFFFFFFFFFF MUL NOT AND SWAP1 DUP4 PUSH16 0xFFFFFFFFFFFFFFFFFFFFFFFFFFFFFFFF AND MUL OR SWAP1 SSTORE POP POP POP POP POP POP PUSH1 0x1 PUSH1 0x8 DUP2 SWAP1 SSTORE POP PUSH1 0x40 MLOAD DUP1 PUSH1 0x60 ADD PUSH1 0x40 MSTORE DUP1 PUSH1 0x0 DUP2 MSTORE PUSH1 0x20 ADD PUSH1 0x0 DUP2 MSTORE PUSH1 0x20 ADD PUSH1 0x0 DUP2 MSTORE POP PUSH1 0x9 PUSH1 0x0 DUP1 DUP2 MSTORE PUSH1 0x20 ADD SWAP1 DUP2 MSTORE PUSH1 0x20 ADD PUSH1 0x0 KECCAK256 PUSH1 0x0 DUP3 ADD MLOAD DUP2 PUSH1 0x0 ADD SSTORE PUSH1 0x20 DUP3 ADD MLOAD DUP2 PUSH1 0x1 ADD SSTORE PUSH1 0x40 DUP3 ADD MLOAD DUP2 PUSH1 0x2 ADD SSTORE SWAP1 POP POP PUSH1 0x40 MLOAD DUP1 PUSH1 0x60 ADD PUSH1 0x40 MSTORE DUP1 PUSH1 0x0 DUP2 MSTORE PUSH1 0x20 ADD PUSH1 0x0 DUP2 MSTORE PUSH1 0x20 ADD PUSH1 0x0 DUP2 MSTORE POP PUSH1 0xA PUSH1 0x0 DUP1 DUP2 MSTORE PUSH1 0x20 ADD SWAP1 DUP2 MSTORE PUSH1 0x20 ADD PUSH1 0x0 KECCAK256 PUSH1 0x0 DUP3 ADD MLOAD DUP2 PUSH1 0x0 ADD SSTORE PUSH1 0x20 DUP3 ADD MLOAD DUP2 PUSH1 0x1 ADD SSTORE PUSH1 0x40 DUP3 ADD MLOAD DUP2 PUSH1 0x2 ADD SSTORE SWAP1 POP POP POP POP POP POP POP PUSH3 0x4A2 JUMP JUMPDEST PUSH1 0x0 CALLER SWAP1 POP SWAP1 JUMP JUMPDEST PUSH1 0x0 DUP1 PUSH1 0x0 SWAP1 SLOAD SWAP1 PUSH2 0x100 EXP SWAP1 DIV PUSH20 0xFFFFFFFFFFFFFFFFFFFFFFFFFFFFFFFFFFFFFFFF AND SWAP1 POP DUP2 PUSH1 0x0 DUP1 PUSH2 0x100 EXP DUP2 SLOAD DUP2 PUSH20 0xFFFFFFFFFFFFFFFFFFFFFFFFFFFFFFFFFFFFFFFF MUL NOT AND SWAP1 DUP4 PUSH20 0xFFFFFFFFFFFFFFFFFFFFFFFFFFFFFFFFFFFFFFFF AND MUL OR SWAP1 SSTORE POP DUP2 PUSH20 0xFFFFFFFFFFFFFFFFFFFFFFFFFFFFFFFFFFFFFFFF AND DUP2 PUSH20 0xFFFFFFFFFFFFFFFFFFFFFFFFFFFFFFFFFFFFFFFF AND PUSH32 0x8BE0079C531659141344CD1FD0A4F28419497F9722A3DAAFE3B4186F6B6457E0 PUSH1 0x40 MLOAD PUSH1 0x40 MLOAD DUP1 SWAP2 SUB SWAP1 LOG3 POP POP JUMP JUMPDEST PUSH1 0x0 DUP1 REVERT JUMPDEST PUSH1 0x0 PUSH20 0xFFFFFFFFFFFFFFFFFFFFFFFFFFFFFFFFFFFFFFFF DUP3 AND SWAP1 POP SWAP2 SWAP1 POP JUMP JUMPDEST PUSH1 0x0 PUSH3 0x350 DUP3 PUSH3 0x323 JUMP JUMPDEST SWAP1 POP SWAP2 SWAP1 POP JUMP JUMPDEST PUSH1 0x0 PUSH3 0x364 DUP3 PUSH3 0x343 JUMP JUMPDEST SWAP1 POP SWAP2 SWAP1 POP JUMP JUMPDEST PUSH3 0x376 DUP2 PUSH3 0x357 JUMP JUMPDEST DUP2 EQ PUSH3 0x382 JUMPI PUSH1 0x0 DUP1 REVERT JUMPDEST POP JUMP JUMPDEST PUSH1 0x0 DUP2 MLOAD SWAP1 POP PUSH3 0x396 DUP2 PUSH3 0x36B JUMP JUMPDEST SWAP3 SWAP2 POP POP JUMP JUMPDEST PUSH3 0x3A7 DUP2 PUSH3 0x343 JUMP JUMPDEST DUP2 EQ PUSH3 0x3B3 JUMPI PUSH1 0x0 DUP1 REVERT JUMPDEST POP JUMP JUMPDEST PUSH1 0x0 DUP2 MLOAD SWAP1 POP PUSH3 0x3C7 DUP2 PUSH3 0x39C JUMP JUMPDEST SWAP3 SWAP2 POP POP JUMP JUMPDEST PUSH1 0x0 PUSH16 0xFFFFFFFFFFFFFFFFFFFFFFFFFFFFFFFF DUP3 AND SWAP1 POP SWAP2 SWAP1 POP JUMP JUMPDEST PUSH3 0x3F4 DUP2 PUSH3 0x3CD JUMP JUMPDEST DUP2 EQ PUSH3 0x400 JUMPI PUSH1 0x0 DUP1 REVERT JUMPDEST POP JUMP JUMPDEST PUSH1 0x0 DUP2 MLOAD SWAP1 POP PUSH3 0x414 DUP2 PUSH3 0x3E9 JUMP JUMPDEST SWAP3 SWAP2 POP POP JUMP JUMPDEST PUSH1 0x0 DUP1 PUSH1 0x0 DUP1 PUSH1 0x0 PUSH1 0xA0 DUP7 DUP9 SUB SLT ISZERO PUSH3 0x439 JUMPI PUSH3 0x438 PUSH3 0x31E JUMP JUMPDEST JUMPDEST PUSH1 0x0 PUSH3 0x449 DUP9 DUP3 DUP10 ADD PUSH3 0x385 JUMP JUMPDEST SWAP6 POP POP PUSH1 0x20 PUSH3 0x45C DUP9 DUP3 DUP10 ADD PUSH3 0x385 JUMP JUMPDEST SWAP5 POP POP PUSH1 0x40 PUSH3 0x46F DUP9 DUP3 DUP10 ADD PUSH3 0x3B6 JUMP JUMPDEST SWAP4 POP POP PUSH1 0x60 PUSH3 0x482 DUP9 DUP3 DUP10 ADD PUSH3 0x403 JUMP JUMPDEST SWAP3 POP POP PUSH1 0x80 PUSH3 0x495 DUP9 DUP3 DUP10 ADD PUSH3 0x403 JUMP JUMPDEST SWAP2 POP POP SWAP3 SWAP6 POP SWAP3 SWAP6 SWAP1 SWAP4 POP JUMP JUMPDEST PUSH2 0x5B3B DUP1 PUSH3 0x4B2 PUSH1 0x0 CODECOPY PUSH1 0x0 RETURN INVALID PUSH1 0x80 PUSH1 0x40 MSTORE CALLVALUE DUP1 ISZERO PUSH2 0x10 JUMPI PUSH1 0x0 DUP1 REVERT JUMPDEST POP PUSH1 0x4 CALLDATASIZE LT PUSH2 0x14D JUMPI PUSH1 0x0 CALLDATALOAD PUSH1 0xE0 SHR DUP1 PUSH4 0x67A32638 GT PUSH2 0xC3 JUMPI DUP1 PUSH4 0xCBBC94CF GT PUSH2 0x7C JUMPI DUP1 PUSH4 0xCBBC94CF EQ PUSH2 0x398 JUMPI DUP1 PUSH4 0xD1E09A5E EQ PUSH2 0x3B7 JUMPI DUP1 PUSH4 0xD21220A7 EQ PUSH2 0x3D3 JUMPI DUP1 PUSH4 0xE9A1B82E EQ PUSH2 0x3F1 JUMPI DUP1 PUSH4 0xF2FDE38B EQ PUSH2 0x40D JUMPI DUP1 PUSH4 0xFC741C7C EQ PUSH2 0x429 JUMPI PUSH2 0x14D JUMP JUMPDEST DUP1 PUSH4 0x67A32638 EQ PUSH2 0x2BC JUMPI DUP1 PUSH4 0x715018A6 EQ PUSH2 0x2D8 JUMPI DUP1 PUSH4 0x8DA5CB5B EQ PUSH2 0x2E2 JUMPI DUP1 PUSH4 0x9B55E638 EQ PUSH2 0x300 JUMPI DUP1 PUSH4 0xA85C38EF EQ PUSH2 0x333 JUMPI DUP1 PUSH4 0xC2B5431F EQ PUSH2 0x368 JUMPI PUSH2 0x14D JUMP JUMPDEST DUP1 PUSH4 0x43F0179B GT PUSH2 0x115 JUMPI DUP1 PUSH4 0x43F0179B EQ PUSH2 0x1FC JUMPI DUP1 PUSH4 0x4423C5F1 EQ PUSH2 0x21A JUMPI DUP1 PUSH4 0x514FCAC7 EQ PUSH2 0x24C JUMPI DUP1 PUSH4 0x5700017F EQ PUSH2 0x268 JUMPI DUP1 PUSH4 0x62DE0841 EQ PUSH2 0x284 JUMPI DUP1 PUSH4 0x638BF2C7 EQ PUSH2 0x2A0 JUMPI PUSH2 0x14D JUMP JUMPDEST DUP1 PUSH4 0xB0C1493 EQ PUSH2 0x152 JUMPI DUP1 PUSH4 0x1FB32B86 EQ PUSH2 0x184 JUMPI DUP1 PUSH4 0x25BE124E EQ PUSH2 0x1A2 JUMPI DUP1 PUSH4 0x3394177B EQ PUSH2 0x1C0 JUMPI DUP1 PUSH4 0x39E7FDDC EQ PUSH2 0x1DE JUMPI JUMPDEST PUSH1 0x0 DUP1 REVERT JUMPDEST PUSH2 0x16C PUSH1 0x4 DUP1 CALLDATASIZE SUB DUP2 ADD SWAP1 PUSH2 0x167 SWAP2 SWAP1 PUSH2 0x50E9 JUMP JUMPDEST PUSH2 0x447 JUMP JUMPDEST PUSH1 0x40 MLOAD PUSH2 0x17B SWAP4 SWAP3 SWAP2 SWAP1 PUSH2 0x5125 JUMP JUMPDEST PUSH1 0x40 MLOAD DUP1 SWAP2 SUB SWAP1 RETURN JUMPDEST PUSH2 0x18C PUSH2 0x471 JUMP JUMPDEST PUSH1 0x40 MLOAD PUSH2 0x199 SWAP2 SWAP1 PUSH2 0x5187 JUMP JUMPDEST PUSH1 0x40 MLOAD DUP1 SWAP2 SUB SWAP1 RETURN JUMPDEST PUSH2 0x1AA PUSH2 0x497 JUMP JUMPDEST PUSH1 0x40 MLOAD PUSH2 0x1B7 SWAP2 SWAP1 PUSH2 0x5221 JUMP JUMPDEST PUSH1 0x40 MLOAD DUP1 SWAP2 SUB SWAP1 RETURN JUMPDEST PUSH2 0x1C8 PUSH2 0x4BD JUMP JUMPDEST PUSH1 0x40 MLOAD PUSH2 0x1D5 SWAP2 SWAP1 PUSH2 0x5187 JUMP JUMPDEST PUSH1 0x40 MLOAD DUP1 SWAP2 SUB SWAP1 RETURN JUMPDEST PUSH2 0x1E6 PUSH2 0x4E3 JUMP JUMPDEST PUSH1 0x40 MLOAD PUSH2 0x1F3 SWAP2 SWAP1 PUSH2 0x525D JUMP JUMPDEST PUSH1 0x40 MLOAD DUP1 SWAP2 SUB SWAP1 RETURN JUMPDEST PUSH2 0x204 PUSH2 0x509 JUMP JUMPDEST PUSH1 0x40 MLOAD PUSH2 0x211 SWAP2 SWAP1 PUSH2 0x5187 JUMP JUMPDEST PUSH1 0x40 MLOAD DUP1 SWAP2 SUB SWAP1 RETURN JUMPDEST PUSH2 0x234 PUSH1 0x4 DUP1 CALLDATASIZE SUB DUP2 ADD SWAP1 PUSH2 0x22F SWAP2 SWAP1 PUSH2 0x50E9 JUMP JUMPDEST PUSH2 0x52B JUMP JUMPDEST PUSH1 0x40 MLOAD PUSH2 0x243 SWAP4 SWAP3 SWAP2 SWAP1 PUSH2 0x5125 JUMP JUMPDEST PUSH1 0x40 MLOAD DUP1 SWAP2 SUB SWAP1 RETURN JUMPDEST PUSH2 0x266 PUSH1 0x4 DUP1 CALLDATASIZE SUB DUP2 ADD SWAP1 PUSH2 0x261 SWAP2 SWAP1 PUSH2 0x50E9 JUMP JUMPDEST PUSH2 0x555 JUMP JUMPDEST STOP JUMPDEST PUSH2 0x282 PUSH1 0x4 DUP1 CALLDATASIZE SUB DUP2 ADD SWAP1 PUSH2 0x27D SWAP2 SWAP1 PUSH2 0x52DD JUMP JUMPDEST PUSH2 0x6F6 JUMP JUMPDEST STOP JUMPDEST PUSH2 0x29E PUSH1 0x4 DUP1 CALLDATASIZE SUB DUP2 ADD SWAP1 PUSH2 0x299 SWAP2 SWAP1 PUSH2 0x5330 JUMP JUMPDEST PUSH2 0x7C5 JUMP JUMPDEST STOP JUMPDEST PUSH2 0x2BA PUSH1 0x4 DUP1 CALLDATASIZE SUB DUP2 ADD SWAP1 PUSH2 0x2B5 SWAP2 SWAP1 PUSH2 0x5397 JUMP JUMPDEST PUSH2 0x1755 JUMP JUMPDEST STOP JUMPDEST PUSH2 0x2D6 PUSH1 0x4 DUP1 CALLDATASIZE SUB DUP2 ADD SWAP1 PUSH2 0x2D1 SWAP2 SWAP1 PUSH2 0x53D7 JUMP JUMPDEST PUSH2 0x1C3E JUMP JUMPDEST STOP JUMPDEST PUSH2 0x2E0 PUSH2 0x1CD0 JUMP JUMPDEST STOP JUMPDEST PUSH2 0x2EA PUSH2 0x1CE4 JUMP JUMPDEST PUSH1 0x40 MLOAD PUSH2 0x2F7 SWAP2 SWAP1 PUSH2 0x525D JUMP JUMPDEST PUSH1 0x40 MLOAD DUP1 SWAP2 SUB SWAP1 RETURN JUMPDEST PUSH2 0x31A PUSH1 0x4 DUP1 CALLDATASIZE SUB DUP2 ADD SWAP1 PUSH2 0x315 SWAP2 SWAP1 PUSH2 0x50E9 JUMP JUMPDEST PUSH2 0x1D0D JUMP JUMPDEST PUSH1 0x40 MLOAD PUSH2 0x32A SWAP5 SWAP4 SWAP3 SWAP2 SWAP1 PUSH2 0x5413 JUMP JUMPDEST PUSH1 0x40 MLOAD DUP1 SWAP2 SUB SWAP1 RETURN JUMPDEST PUSH2 0x34D PUSH1 0x4 DUP1 CALLDATASIZE SUB DUP2 ADD SWAP1 PUSH2 0x348 SWAP2 SWAP1 PUSH2 0x50E9 JUMP JUMPDEST PUSH2 0x1E32 JUMP JUMPDEST PUSH1 0x40 MLOAD PUSH2 0x35F SWAP7 SWAP6 SWAP5 SWAP4 SWAP3 SWAP2 SWAP1 PUSH2 0x5458 JUMP JUMPDEST PUSH1 0x40 MLOAD DUP1 SWAP2 SUB SWAP1 RETURN JUMPDEST PUSH2 0x382 PUSH1 0x4 DUP1 CALLDATASIZE SUB DUP2 ADD SWAP1 PUSH2 0x37D SWAP2 SWAP1 PUSH2 0x50E9 JUMP JUMPDEST PUSH2 0x1EE0 JUMP JUMPDEST PUSH1 0x40 MLOAD PUSH2 0x38F SWAP2 SWAP1 PUSH2 0x54B9 JUMP JUMPDEST PUSH1 0x40 MLOAD DUP1 SWAP2 SUB SWAP1 RETURN JUMPDEST PUSH2 0x3A0 PUSH2 0x1EF8 JUMP JUMPDEST PUSH1 0x40 MLOAD PUSH2 0x3AE SWAP3 SWAP2 SWAP1 PUSH2 0x54D4 JUMP JUMPDEST PUSH1 0x40 MLOAD DUP1 SWAP2 SUB SWAP1 RETURN JUMPDEST PUSH2 0x3D1 PUSH1 0x4 DUP1 CALLDATASIZE SUB DUP2 ADD SWAP1 PUSH2 0x3CC SWAP2 SWAP1 PUSH2 0x53D7 JUMP JUMPDEST PUSH2 0x1F49 JUMP JUMPDEST STOP JUMPDEST PUSH2 0x3DB PUSH2 0x1FDB JUMP JUMPDEST PUSH1 0x40 MLOAD PUSH2 0x3E8 SWAP2 SWAP1 PUSH2 0x5221 JUMP JUMPDEST PUSH1 0x40 MLOAD DUP1 SWAP2 SUB SWAP1 RETURN JUMPDEST PUSH2 0x40B PUSH1 0x4 DUP1 CALLDATASIZE SUB DUP2 ADD SWAP1 PUSH2 0x406 SWAP2 SWAP1 PUSH2 0x52DD JUMP JUMPDEST PUSH2 0x2001 JUMP JUMPDEST STOP JUMPDEST PUSH2 0x427 PUSH1 0x4 DUP1 CALLDATASIZE SUB DUP2 ADD SWAP1 PUSH2 0x422 SWAP2 SWAP1 PUSH2 0x5529 JUMP JUMPDEST PUSH2 0x20D0 JUMP JUMPDEST STOP JUMPDEST PUSH2 0x431 PUSH2 0x2153 JUMP JUMPDEST PUSH1 0x40 MLOAD PUSH2 0x43E SWAP2 SWAP1 PUSH2 0x5187 JUMP JUMPDEST PUSH1 0x40 MLOAD DUP1 SWAP2 SUB SWAP1 RETURN JUMPDEST PUSH1 0xA PUSH1 0x20 MSTORE DUP1 PUSH1 0x0 MSTORE PUSH1 0x40 PUSH1 0x0 KECCAK256 PUSH1 0x0 SWAP2 POP SWAP1 POP DUP1 PUSH1 0x0 ADD SLOAD SWAP1 DUP1 PUSH1 0x1 ADD SLOAD SWAP1 DUP1 PUSH1 0x2 ADD SLOAD SWAP1 POP DUP4 JUMP JUMPDEST PUSH1 0x0 PUSH1 0x4 PUSH1 0x10 SWAP1 SLOAD SWAP1 PUSH2 0x100 EXP SWAP1 DIV PUSH16 0xFFFFFFFFFFFFFFFFFFFFFFFFFFFFFFFF AND SWAP1 POP SWAP1 JUMP JUMPDEST PUSH1 0x2 PUSH1 0x0 SWAP1 SLOAD SWAP1 PUSH2 0x100 EXP SWAP1 DIV PUSH20 0xFFFFFFFFFFFFFFFFFFFFFFFFFFFFFFFFFFFFFFFF AND DUP2 JUMP JUMPDEST PUSH1 0x0 PUSH1 0x4 PUSH1 0x0 SWAP1 SLOAD SWAP1 PUSH2 0x100 EXP SWAP1 DIV PUSH16 0xFFFFFFFFFFFFFFFFFFFFFFFFFFFFFFFF AND SWAP1 POP SWAP1 JUMP JUMPDEST PUSH1 0x3 PUSH1 0x0 SWAP1 SLOAD SWAP1 PUSH2 0x100 EXP SWAP1 DIV PUSH20 0xFFFFFFFFFFFFFFFFFFFFFFFFFFFFFFFFFFFFFFFF AND DUP2 JUMP JUMPDEST PUSH1 0x4 PUSH1 0x0 SWAP1 SLOAD SWAP1 PUSH2 0x100 EXP SWAP1 DIV PUSH16 0xFFFFFFFFFFFFFFFFFFFFFFFFFFFFFFFF AND DUP2 JUMP JUMPDEST PUSH1 0x9 PUSH1 0x20 MSTORE DUP1 PUSH1 0x0 MSTORE PUSH1 0x40 PUSH1 0x0 KECCAK256 PUSH1 0x0 SWAP2 POP SWAP1 POP DUP1 PUSH1 0x0 ADD SLOAD SWAP1 DUP1 PUSH1 0x1 ADD SLOAD SWAP1 DUP1 PUSH1 0x2 ADD SLOAD SWAP1 POP DUP4 JUMP JUMPDEST PUSH2 0x55D PUSH2 0x2175 JUMP JUMPDEST PUSH1 0x1 PUSH2 0x568 DUP3 PUSH2 0x21C4 JUMP JUMPDEST SUB PUSH2 0x62E JUMPI PUSH1 0xA PUSH1 0x0 DUP3 DUP2 MSTORE PUSH1 0x20 ADD SWAP1 DUP2 MSTORE PUSH1 0x20 ADD PUSH1 0x0 KECCAK256 PUSH1 0x1 ADD SLOAD PUSH1 0xA PUSH1 0x0 PUSH1 0xA PUSH1 0x0 DUP6 DUP2 MSTORE PUSH1 0x20 ADD SWAP1 DUP2 MSTORE PUSH1 0x20 ADD PUSH1 0x0 KECCAK256 PUSH1 0x2 ADD SLOAD DUP2 MSTORE PUSH1 0x20 ADD SWAP1 DUP2 MSTORE PUSH1 0x20 ADD PUSH1 0x0 KECCAK256 PUSH1 0x1 ADD DUP2 SWAP1 SSTORE POP PUSH1 0xA PUSH1 0x0 DUP3 DUP2 MSTORE PUSH1 0x20 ADD SWAP1 DUP2 MSTORE PUSH1 0x20 ADD PUSH1 0x0 KECCAK256 PUSH1 0x2 ADD SLOAD PUSH1 0xA PUSH1 0x0 PUSH1 0xA PUSH1 0x0 DUP6 DUP2 MSTORE PUSH1 0x20 ADD SWAP1 DUP2 MSTORE PUSH1 0x20 ADD PUSH1 0x0 KECCAK256 PUSH1 0x1 ADD SLOAD DUP2 MSTORE PUSH1 0x20 ADD SWAP1 DUP2 MSTORE PUSH1 0x20 ADD PUSH1 0x0 KECCAK256 PUSH1 0x2 ADD DUP2 SWAP1 SSTORE POP PUSH1 0xA PUSH1 0x0 DUP3 DUP2 MSTORE PUSH1 0x20 ADD SWAP1 DUP2 MSTORE PUSH1 0x20 ADD PUSH1 0x0 KECCAK256 PUSH1 0x0 DUP1 DUP3 ADD PUSH1 0x0 SWAP1 SSTORE PUSH1 0x1 DUP3 ADD PUSH1 0x0 SWAP1 SSTORE PUSH1 0x2 DUP3 ADD PUSH1 0x0 SWAP1 SSTORE POP POP PUSH2 0x6EB JUMP JUMPDEST PUSH1 0x9 PUSH1 0x0 DUP3 DUP2 MSTORE PUSH1 0x20 ADD SWAP1 DUP2 MSTORE PUSH1 0x20 ADD PUSH1 0x0 KECCAK256 PUSH1 0x1 ADD SLOAD PUSH1 0x9 PUSH1 0x0 PUSH1 0x9 PUSH1 0x0 DUP6 DUP2 MSTORE PUSH1 0x20 ADD SWAP1 DUP2 MSTORE PUSH1 0x20 ADD PUSH1 0x0 KECCAK256 PUSH1 0x2 ADD SLOAD DUP2 MSTORE PUSH1 0x20 ADD SWAP1 DUP2 MSTORE PUSH1 0x20 ADD PUSH1 0x0 KECCAK256 PUSH1 0x1 ADD DUP2 SWAP1 SSTORE POP PUSH1 0x9 PUSH1 0x0 DUP3 DUP2 MSTORE PUSH1 0x20 ADD SWAP1 DUP2 MSTORE PUSH1 0x20 ADD PUSH1 0x0 KECCAK256 PUSH1 0x2 ADD SLOAD PUSH1 0x9 PUSH1 0x0 PUSH1 0x9 PUSH1 0x0 DUP6 DUP2 MSTORE PUSH1 0x20 ADD SWAP1 DUP2 MSTORE PUSH1 0x20 ADD PUSH1 0x0 KECCAK256 PUSH1 0x1 ADD SLOAD DUP2 MSTORE PUSH1 0x20 ADD SWAP1 DUP2 MSTORE PUSH1 0x20 ADD PUSH1 0x0 KECCAK256 PUSH1 0x2 ADD DUP2 SWAP1 SSTORE POP PUSH1 0x9 PUSH1 0x0 DUP3 DUP2 MSTORE PUSH1 0x20 ADD SWAP1 DUP2 MSTORE PUSH1 0x20 ADD PUSH1 0x0 KECCAK256 PUSH1 0x0 DUP1 DUP3 ADD PUSH1 0x0 SWAP1 SSTORE PUSH1 0x1 DUP3 ADD PUSH1 0x0 SWAP1 SSTORE PUSH1 0x2 DUP3 ADD PUSH1 0x0 SWAP1 SSTORE POP POP JUMPDEST PUSH2 0x6F3 PUSH2 0x267F JUMP JUMPDEST POP JUMP JUMPDEST PUSH2 0x6FE PUSH2 0x2175 JUMP JUMPDEST PUSH1 0x0 PUSH1 0x1 SWAP1 POP PUSH1 0x0 DUP4 PUSH16 0xFFFFFFFFFFFFFFFFFFFFFFFFFFFFFFFF AND DUP6 PUSH16 0xFFFFFFFFFFFFFFFFFFFFFFFFFFFFFFFF AND GT ISZERO PUSH2 0x769 JUMPI DUP4 PUSH7 0x38D7EA4C68000 DUP7 PUSH2 0x746 SWAP2 SWAP1 PUSH2 0x5585 JUMP JUMPDEST PUSH2 0x750 SWAP2 SWAP1 PUSH2 0x55F1 JUMP JUMPDEST PUSH16 0xFFFFFFFFFFFFFFFFFFFFFFFFFFFFFFFF AND SWAP1 POP PUSH2 0x7A0 JUMP JUMPDEST PUSH1 0x2 SWAP2 POP DUP5 PUSH7 0x38D7EA4C68000 DUP6 PUSH2 0x781 SWAP2 SWAP1 PUSH2 0x5585 JUMP JUMPDEST PUSH2 0x78B SWAP2 SWAP1 PUSH2 0x55F1 JUMP JUMPDEST PUSH16 0xFFFFFFFFFFFFFFFFFFFFFFFFFFFFFFFF AND SWAP1 POP JUMPDEST PUSH1 0x0 DUP1 PUSH2 0x7B0 DUP4 DUP6 DUP8 DUP11 DUP11 PUSH2 0x2689 JUMP JUMPDEST SWAP2 POP SWAP2 POP POP POP POP POP PUSH2 0x7C0 PUSH2 0x267F JUMP JUMPDEST POP POP POP JUMP JUMPDEST PUSH2 0x7CD PUSH2 0x2175 JUMP JUMPDEST PUSH1 0x0 DUP5 PUSH16 0xFFFFFFFFFFFFFFFFFFFFFFFFFFFFFFFF AND EQ DUP1 PUSH2 0x800 JUMPI POP PUSH1 0x0 DUP4 PUSH16 0xFFFFFFFFFFFFFFFFFFFFFFFFFFFFFFFF AND EQ JUMPDEST ISZERO PUSH2 0x837 JUMPI PUSH1 0x40 MLOAD PUSH32 0x82C4A8C900000000000000000000000000000000000000000000000000000000 DUP2 MSTORE PUSH1 0x4 ADD PUSH1 0x40 MLOAD DUP1 SWAP2 SUB SWAP1 REVERT JUMPDEST PUSH1 0x1 DUP3 PUSH1 0xFF AND GT ISZERO PUSH2 0x875 JUMPI PUSH1 0x40 MLOAD PUSH32 0xEEEEF12E00000000000000000000000000000000000000000000000000000000 DUP2 MSTORE PUSH1 0x4 ADD PUSH1 0x40 MLOAD DUP1 SWAP2 SUB SWAP1 REVERT JUMPDEST PUSH1 0x0 PUSH1 0x1 SWAP1 POP PUSH1 0x0 DUP5 PUSH16 0xFFFFFFFFFFFFFFFFFFFFFFFFFFFFFFFF AND DUP7 PUSH16 0xFFFFFFFFFFFFFFFFFFFFFFFFFFFFFFFF AND GT ISZERO PUSH2 0x8E0 JUMPI DUP5 PUSH7 0x38D7EA4C68000 DUP8 PUSH2 0x8BD SWAP2 SWAP1 PUSH2 0x5585 JUMP JUMPDEST PUSH2 0x8C7 SWAP2 SWAP1 PUSH2 0x55F1 JUMP JUMPDEST PUSH16 0xFFFFFFFFFFFFFFFFFFFFFFFFFFFFFFFF AND SWAP1 POP PUSH2 0x917 JUMP JUMPDEST PUSH1 0x2 SWAP2 POP DUP6 PUSH7 0x38D7EA4C68000 DUP7 PUSH2 0x8F8 SWAP2 SWAP1 PUSH2 0x5585 JUMP JUMPDEST PUSH2 0x902 SWAP2 SWAP1 PUSH2 0x55F1 JUMP JUMPDEST PUSH16 0xFFFFFFFFFFFFFFFFFFFFFFFFFFFFFFFF AND SWAP1 POP JUMPDEST PUSH2 0x924 DUP2 DUP4 DUP7 DUP10 DUP10 PUSH2 0x2689 JUMP JUMPDEST DUP1 SWAP7 POP DUP2 SWAP8 POP POP POP PUSH1 0x1 DUP5 PUSH1 0xFF AND SUB PUSH2 0x9D0 JUMPI PUSH1 0x0 DUP7 PUSH16 0xFFFFFFFFFFFFFFFFFFFFFFFFFFFFFFFF AND SUB PUSH2 0x958 JUMPI POP POP PUSH2 0x1747 JUMP JUMPDEST PUSH1 0x1 DUP3 PUSH1 0xFF AND EQ PUSH2 0x998 JUMPI PUSH7 0x38D7EA4C68000 DUP2 DUP8 PUSH16 0xFFFFFFFFFFFFFFFFFFFFFFFFFFFFFFFF AND PUSH2 0x989 SWAP2 SWAP1 PUSH2 0x5622 JUMP JUMPDEST PUSH2 0x993 SWAP2 SWAP1 PUSH2 0x5664 JUMP JUMPDEST PUSH2 0x9C9 JUMP JUMPDEST DUP1 PUSH7 0x38D7EA4C68000 DUP8 PUSH16 0xFFFFFFFFFFFFFFFFFFFFFFFFFFFFFFFF AND PUSH2 0x9BE SWAP2 SWAP1 PUSH2 0x5622 JUMP JUMPDEST PUSH2 0x9C8 SWAP2 SWAP1 PUSH2 0x5664 JUMP JUMPDEST JUMPDEST SWAP5 POP PUSH2 0xA65 JUMP JUMPDEST PUSH1 0x0 DUP6 PUSH16 0xFFFFFFFFFFFFFFFFFFFFFFFFFFFFFFFF AND SUB PUSH2 0x9F1 JUMPI POP POP PUSH2 0x1747 JUMP JUMPDEST PUSH1 0x1 DUP3 PUSH1 0xFF AND EQ PUSH2 0xA31 JUMPI DUP1 PUSH7 0x38D7EA4C68000 DUP7 PUSH16 0xFFFFFFFFFFFFFFFFFFFFFFFFFFFFFFFF AND PUSH2 0xA22 SWAP2 SWAP1 PUSH2 0x5622 JUMP JUMPDEST PUSH2 0xA2C SWAP2 SWAP1 PUSH2 0x5664 JUMP JUMPDEST PUSH2 0xA62 JUMP JUMPDEST PUSH7 0x38D7EA4C68000 DUP2 DUP7 PUSH16 0xFFFFFFFFFFFFFFFFFFFFFFFFFFFFFFFF AND PUSH2 0xA57 SWAP2 SWAP1 PUSH2 0x5622 JUMP JUMPDEST PUSH2 0xA61 SWAP2 SWAP1 PUSH2 0x5664 JUMP JUMPDEST JUMPDEST SWAP6 POP JUMPDEST PUSH1 0x0 PUSH2 0xA74 DUP8 DUP8 DUP5 DUP7 DUP10 PUSH2 0x3661 JUMP JUMPDEST SWAP1 POP PUSH1 0x1 DUP6 PUSH1 0xFF AND SUB PUSH2 0x10E4 JUMPI PUSH1 0x1 DUP5 EQ DUP1 PUSH2 0xAA6 JUMPI POP PUSH1 0x0 PUSH1 0xA PUSH1 0x0 DUP7 DUP2 MSTORE PUSH1 0x20 ADD SWAP1 DUP2 MSTORE PUSH1 0x20 ADD PUSH1 0x0 KECCAK256 PUSH1 0x1 ADD SLOAD EQ JUMPDEST ISZERO PUSH2 0xC90 JUMPI PUSH1 0x1 PUSH1 0x6 PUSH1 0x0 PUSH1 0xA PUSH1 0x0 DUP1 DUP2 MSTORE PUSH1 0x20 ADD SWAP1 DUP2 MSTORE PUSH1 0x20 ADD PUSH1 0x0 KECCAK256 PUSH1 0x2 ADD SLOAD DUP2 MSTORE PUSH1 0x20 ADD SWAP1 DUP2 MSTORE PUSH1 0x20 ADD PUSH1 0x0 KECCAK256 PUSH1 0x1 ADD PUSH1 0x15 SWAP1 SLOAD SWAP1 PUSH2 0x100 EXP SWAP1 DIV PUSH1 0xFF AND PUSH1 0xFF AND EQ DUP1 ISZERO PUSH2 0xAFA JUMPI POP PUSH1 0x1 DUP4 PUSH1 0xFF AND EQ JUMPDEST ISZERO PUSH2 0xB5D JUMPI PUSH1 0x6 PUSH1 0x0 PUSH1 0xA PUSH1 0x0 DUP1 DUP2 MSTORE PUSH1 0x20 ADD SWAP1 DUP2 MSTORE PUSH1 0x20 ADD PUSH1 0x0 KECCAK256 PUSH1 0x2 ADD SLOAD DUP2 MSTORE PUSH1 0x20 ADD SWAP1 DUP2 MSTORE PUSH1 0x20 ADD PUSH1 0x0 KECCAK256 PUSH1 0x2 ADD SLOAD DUP3 GT PUSH2 0xB45 JUMPI PUSH2 0xB3E DUP3 DUP5 PUSH1 0x1 PUSH2 0x3C1B JUMP JUMPDEST SWAP4 POP PUSH2 0xB58 JUMP JUMPDEST PUSH2 0xB50 DUP2 PUSH1 0x1 PUSH2 0x4009 JUMP JUMPDEST POP POP POP PUSH2 0x1747 JUMP JUMPDEST PUSH2 0xC8B JUMP JUMPDEST PUSH1 0x2 PUSH1 0x6 PUSH1 0x0 PUSH1 0xA PUSH1 0x0 DUP1 DUP2 MSTORE PUSH1 0x20 ADD SWAP1 DUP2 MSTORE PUSH1 0x20 ADD PUSH1 0x0 KECCAK256 PUSH1 0x2 ADD SLOAD DUP2 MSTORE PUSH1 0x20 ADD SWAP1 DUP2 MSTORE PUSH1 0x20 ADD PUSH1 0x0 KECCAK256 PUSH1 0x1 ADD PUSH1 0x15 SWAP1 SLOAD SWAP1 PUSH2 0x100 EXP SWAP1 DIV PUSH1 0xFF AND PUSH1 0xFF AND EQ DUP1 ISZERO PUSH2 0xBAC JUMPI POP PUSH1 0x2 DUP4 PUSH1 0xFF AND EQ JUMPDEST ISZERO PUSH2 0xC0F JUMPI PUSH1 0x6 PUSH1 0x0 PUSH1 0xA PUSH1 0x0 DUP1 DUP2 MSTORE PUSH1 0x20 ADD SWAP1 DUP2 MSTORE PUSH1 0x20 ADD PUSH1 0x0 KECCAK256 PUSH1 0x2 ADD SLOAD DUP2 MSTORE PUSH1 0x20 ADD SWAP1 DUP2 MSTORE PUSH1 0x20 ADD PUSH1 0x0 KECCAK256 PUSH1 0x2 ADD SLOAD DUP3 LT PUSH2 0xBF7 JUMPI PUSH2 0xBF0 DUP3 DUP5 PUSH1 0x1 PUSH2 0x3C1B JUMP JUMPDEST SWAP4 POP PUSH2 0xC0A JUMP JUMPDEST PUSH2 0xC02 DUP2 PUSH1 0x1 PUSH2 0x4009 JUMP JUMPDEST POP POP POP PUSH2 0x1747 JUMP JUMPDEST PUSH2 0xC8A JUMP JUMPDEST PUSH1 0x1 PUSH1 0x6 PUSH1 0x0 PUSH1 0xA PUSH1 0x0 DUP1 DUP2 MSTORE PUSH1 0x20 ADD SWAP1 DUP2 MSTORE PUSH1 0x20 ADD PUSH1 0x0 KECCAK256 PUSH1 0x2 ADD SLOAD DUP2 MSTORE PUSH1 0x20 ADD SWAP1 DUP2 MSTORE PUSH1 0x20 ADD PUSH1 0x0 KECCAK256 PUSH1 0x1 ADD PUSH1 0x15 SWAP1 SLOAD SWAP1 PUSH2 0x100 EXP SWAP1 DIV PUSH1 0xFF AND PUSH1 0xFF AND EQ DUP1 ISZERO PUSH2 0xC5E JUMPI POP PUSH1 0x2 DUP4 PUSH1 0xFF AND EQ JUMPDEST ISZERO PUSH2 0xC76 JUMPI PUSH2 0xC6F DUP3 DUP5 PUSH1 0x1 PUSH2 0x3C1B JUMP JUMPDEST SWAP4 POP PUSH2 0xC89 JUMP JUMPDEST PUSH2 0xC81 DUP2 PUSH1 0x1 PUSH2 0x4009 JUMP JUMPDEST POP POP POP PUSH2 0x1747 JUMP JUMPDEST JUMPDEST JUMPDEST PUSH2 0x10D3 JUMP JUMPDEST PUSH1 0x0 DUP5 SUB PUSH2 0xE3A JUMPI PUSH1 0x1 PUSH1 0x6 PUSH1 0x0 PUSH1 0xA PUSH1 0x0 DUP1 DUP2 MSTORE PUSH1 0x20 ADD SWAP1 DUP2 MSTORE PUSH1 0x20 ADD PUSH1 0x0 KECCAK256 PUSH1 0x1 ADD SLOAD DUP2 MSTORE PUSH1 0x20 ADD SWAP1 DUP2 MSTORE PUSH1 0x20 ADD PUSH1 0x0 KECCAK256 PUSH1 0x1 ADD PUSH1 0x15 SWAP1 SLOAD SWAP1 PUSH2 0x100 EXP SWAP1 DIV PUSH1 0xFF AND PUSH1 0xFF AND EQ DUP1 ISZERO PUSH2 0xCE7 JUMPI POP PUSH1 0x1 DUP4 PUSH1 0xFF AND EQ JUMPDEST ISZERO PUSH2 0xD34 JUMPI PUSH1 0x6 PUSH1 0x0 PUSH1 0xA PUSH1 0x0 DUP1 DUP2 MSTORE PUSH1 0x20 ADD SWAP1 DUP2 MSTORE PUSH1 0x20 ADD PUSH1 0x0 KECCAK256 PUSH1 0x1 ADD SLOAD DUP2 MSTORE PUSH1 0x20 ADD SWAP1 DUP2 MSTORE PUSH1 0x20 ADD PUSH1 0x0 KECCAK256 PUSH1 0x2 ADD SLOAD DUP3 GT ISZERO PUSH2 0xD2F JUMPI PUSH2 0xD2C DUP3 DUP5 PUSH1 0x1 PUSH2 0x3C1B JUMP JUMPDEST SWAP4 POP JUMPDEST PUSH2 0xE35 JUMP JUMPDEST PUSH1 0x2 PUSH1 0x6 PUSH1 0x0 PUSH1 0xA PUSH1 0x0 DUP1 DUP2 MSTORE PUSH1 0x20 ADD SWAP1 DUP2 MSTORE PUSH1 0x20 ADD PUSH1 0x0 KECCAK256 PUSH1 0x1 ADD SLOAD DUP2 MSTORE PUSH1 0x20 ADD SWAP1 DUP2 MSTORE PUSH1 0x20 ADD PUSH1 0x0 KECCAK256 PUSH1 0x1 ADD PUSH1 0x15 SWAP1 SLOAD SWAP1 PUSH2 0x100 EXP SWAP1 DIV PUSH1 0xFF AND PUSH1 0xFF AND EQ DUP1 ISZERO PUSH2 0xD83 JUMPI POP PUSH1 0x2 DUP4 PUSH1 0xFF AND EQ JUMPDEST ISZERO PUSH2 0xDD0 JUMPI PUSH1 0x6 PUSH1 0x0 PUSH1 0xA PUSH1 0x0 DUP1 DUP2 MSTORE PUSH1 0x20 ADD SWAP1 DUP2 MSTORE PUSH1 0x20 ADD PUSH1 0x0 KECCAK256 PUSH1 0x1 ADD SLOAD DUP2 MSTORE PUSH1 0x20 ADD SWAP1 DUP2 MSTORE PUSH1 0x20 ADD PUSH1 0x0 KECCAK256 PUSH1 0x2 ADD SLOAD DUP3 LT ISZERO PUSH2 0xDCB JUMPI PUSH2 0xDC8 DUP3 DUP5 PUSH1 0x1 PUSH2 0x3C1B JUMP JUMPDEST SWAP4 POP JUMPDEST PUSH2 0xE34 JUMP JUMPDEST PUSH1 0x1 PUSH1 0x6 PUSH1 0x0 PUSH1 0xA PUSH1 0x0 DUP1 DUP2 MSTORE PUSH1 0x20 ADD SWAP1 DUP2 MSTORE PUSH1 0x20 ADD PUSH1 0x0 KECCAK256 PUSH1 0x1 ADD SLOAD DUP2 MSTORE PUSH1 0x20 ADD SWAP1 DUP2 MSTORE PUSH1 0x20 ADD PUSH1 0x0 KECCAK256 PUSH1 0x1 ADD PUSH1 0x15 SWAP1 SLOAD SWAP1 PUSH2 0x100 EXP SWAP1 DIV PUSH1 0xFF AND PUSH1 0xFF AND EQ DUP1 ISZERO PUSH2 0xE1F JUMPI POP PUSH1 0x2 DUP4 PUSH1 0xFF AND EQ JUMPDEST ISZERO PUSH2 0xE33 JUMPI PUSH2 0xE30 DUP3 DUP5 PUSH1 0x1 PUSH2 0x3C1B JUMP JUMPDEST SWAP4 POP JUMPDEST JUMPDEST JUMPDEST PUSH2 0x10D2 JUMP JUMPDEST PUSH1 0x1 PUSH1 0x6 PUSH1 0x0 PUSH1 0xA PUSH1 0x0 DUP9 DUP2 MSTORE PUSH1 0x20 ADD SWAP1 DUP2 MSTORE PUSH1 0x20 ADD PUSH1 0x0 KECCAK256 PUSH1 0x1 ADD SLOAD DUP2 MSTORE PUSH1 0x20 ADD SWAP1 DUP2 MSTORE PUSH1 0x20 ADD PUSH1 0x0 KECCAK256 PUSH1 0x1 ADD PUSH1 0x15 SWAP1 SLOAD SWAP1 PUSH2 0x100 EXP SWAP1 DIV PUSH1 0xFF AND PUSH1 0xFF AND EQ DUP1 ISZERO PUSH2 0xE89 JUMPI POP PUSH1 0x1 DUP4 PUSH1 0xFF AND EQ JUMPDEST ISZERO PUSH2 0xF31 JUMPI PUSH1 0x6 PUSH1 0x0 PUSH1 0xA PUSH1 0x0 DUP8 DUP2 MSTORE PUSH1 0x20 ADD SWAP1 DUP2 MSTORE PUSH1 0x20 ADD PUSH1 0x0 KECCAK256 PUSH1 0x1 ADD SLOAD DUP2 MSTORE PUSH1 0x20 ADD SWAP1 DUP2 MSTORE PUSH1 0x20 ADD PUSH1 0x0 KECCAK256 PUSH1 0x2 ADD SLOAD DUP3 GT ISZERO PUSH2 0xED1 JUMPI PUSH2 0xECE DUP3 DUP5 PUSH1 0x1 PUSH2 0x3C1B JUMP JUMPDEST SWAP4 POP JUMPDEST PUSH1 0x1 PUSH1 0x6 PUSH1 0x0 DUP7 DUP2 MSTORE PUSH1 0x20 ADD SWAP1 DUP2 MSTORE PUSH1 0x20 ADD PUSH1 0x0 KECCAK256 PUSH1 0x1 ADD PUSH1 0x15 SWAP1 SLOAD SWAP1 PUSH2 0x100 EXP SWAP1 DIV PUSH1 0xFF AND PUSH1 0xFF AND SUB PUSH2 0xF2C JUMPI PUSH1 0x6 PUSH1 0x0 DUP6 DUP2 MSTORE PUSH1 0x20 ADD SWAP1 DUP2 MSTORE PUSH1 0x20 ADD PUSH1 0x0 KECCAK256 PUSH1 0x2 ADD SLOAD DUP3 GT PUSH2 0xF2B JUMPI PUSH2 0xF28 DUP3 DUP5 PUSH1 0x1 PUSH2 0x3C1B JUMP JUMPDEST SWAP4 POP JUMPDEST JUMPDEST PUSH2 0x10D1 JUMP JUMPDEST PUSH1 0x2 PUSH1 0x6 PUSH1 0x0 PUSH1 0xA PUSH1 0x0 DUP9 DUP2 MSTORE PUSH1 0x20 ADD SWAP1 DUP2 MSTORE PUSH1 0x20 ADD PUSH1 0x0 KECCAK256 PUSH1 0x1 ADD SLOAD DUP2 MSTORE PUSH1 0x20 ADD SWAP1 DUP2 MSTORE PUSH1 0x20 ADD PUSH1 0x0 KECCAK256 PUSH1 0x1 ADD PUSH1 0x15 SWAP1 SLOAD SWAP1 PUSH2 0x100 EXP SWAP1 DIV PUSH1 0xFF AND PUSH1 0xFF AND EQ DUP1 ISZERO PUSH2 0xF80 JUMPI POP PUSH1 0x2 DUP4 PUSH1 0xFF AND EQ JUMPDEST ISZERO PUSH2 0xFF9 JUMPI PUSH1 0x6 PUSH1 0x0 PUSH1 0xA PUSH1 0x0 DUP8 DUP2 MSTORE PUSH1 0x20 ADD SWAP1 DUP2 MSTORE PUSH1 0x20 ADD PUSH1 0x0 KECCAK256 PUSH1 0x1 ADD SLOAD DUP2 MSTORE PUSH1 0x20 ADD SWAP1 DUP2 MSTORE PUSH1 0x20 ADD PUSH1 0x0 KECCAK256 PUSH1 0x2 ADD SLOAD DUP3 LT ISZERO PUSH2 0xFC8 JUMPI PUSH2 0xFC5 DUP3 DUP5 PUSH1 0x1 PUSH2 0x3C1B JUMP JUMPDEST SWAP4 POP JUMPDEST PUSH1 0x6 PUSH1 0x0 DUP6 DUP2 MSTORE PUSH1 0x20 ADD SWAP1 DUP2 MSTORE PUSH1 0x20 ADD PUSH1 0x0 KECCAK256 PUSH1 0x2 ADD SLOAD DUP3 LT PUSH2 0xFF4 JUMPI PUSH2 0xFF1 DUP3 DUP5 PUSH1 0x1 PUSH2 0x3C1B JUMP JUMPDEST SWAP4 POP JUMPDEST PUSH2 0x10D0 JUMP JUMPDEST PUSH1 0x1 PUSH1 0x6 PUSH1 0x0 PUSH1 0xA PUSH1 0x0 DUP9 DUP2 MSTORE PUSH1 0x20 ADD SWAP1 DUP2 MSTORE PUSH1 0x20 ADD PUSH1 0x0 KECCAK256 PUSH1 0x1 ADD SLOAD DUP2 MSTORE PUSH1 0x20 ADD SWAP1 DUP2 MSTORE PUSH1 0x20 ADD PUSH1 0x0 KECCAK256 PUSH1 0x1 ADD PUSH1 0x15 SWAP1 SLOAD SWAP1 PUSH2 0x100 EXP SWAP1 DIV PUSH1 0xFF AND PUSH1 0xFF AND EQ DUP1 ISZERO PUSH2 0x1048 JUMPI POP PUSH1 0x2 DUP4 PUSH1 0xFF AND EQ JUMPDEST ISZERO PUSH2 0x10C0 JUMPI PUSH1 0x1 PUSH1 0x6 PUSH1 0x0 DUP7 DUP2 MSTORE PUSH1 0x20 ADD SWAP1 DUP2 MSTORE PUSH1 0x20 ADD PUSH1 0x0 KECCAK256 PUSH1 0x1 ADD PUSH1 0x15 SWAP1 SLOAD SWAP1 PUSH2 0x100 EXP SWAP1 DIV PUSH1 0xFF AND PUSH1 0xFF AND SUB PUSH2 0x108E JUMPI PUSH2 0x1087 DUP3 DUP5 PUSH1 0x1 PUSH2 0x3C1B JUMP JUMPDEST SWAP4 POP PUSH2 0x10BB JUMP JUMPDEST PUSH1 0x6 PUSH1 0x0 DUP6 DUP2 MSTORE PUSH1 0x20 ADD SWAP1 DUP2 MSTORE PUSH1 0x20 ADD PUSH1 0x0 KECCAK256 PUSH1 0x2 ADD SLOAD DUP3 GT PUSH2 0x10BA JUMPI PUSH2 0x10B7 DUP3 DUP5 PUSH1 0x1 PUSH2 0x3C1B JUMP JUMPDEST SWAP4 POP JUMPDEST JUMPDEST PUSH2 0x10CF JUMP JUMPDEST PUSH2 0x10CC DUP3 DUP5 PUSH1 0x1 PUSH2 0x3C1B JUMP JUMPDEST SWAP4 POP JUMPDEST JUMPDEST JUMPDEST JUMPDEST JUMPDEST PUSH2 0x10DF DUP5 DUP3 PUSH1 0x1 PUSH2 0x421C JUMP JUMPDEST PUSH2 0x1743 JUMP JUMPDEST PUSH1 0x1 DUP5 EQ DUP1 PUSH2 0x1109 JUMPI POP PUSH1 0x0 PUSH1 0x9 PUSH1 0x0 DUP7 DUP2 MSTORE PUSH1 0x20 ADD SWAP1 DUP2 MSTORE PUSH1 0x20 ADD PUSH1 0x0 KECCAK256 PUSH1 0x1 ADD SLOAD EQ JUMPDEST ISZERO PUSH2 0x12F3 JUMPI PUSH1 0x1 PUSH1 0x6 PUSH1 0x0 PUSH1 0x9 PUSH1 0x0 DUP1 DUP2 MSTORE PUSH1 0x20 ADD SWAP1 DUP2 MSTORE PUSH1 0x20 ADD PUSH1 0x0 KECCAK256 PUSH1 0x2 ADD SLOAD DUP2 MSTORE PUSH1 0x20 ADD SWAP1 DUP2 MSTORE PUSH1 0x20 ADD PUSH1 0x0 KECCAK256 PUSH1 0x1 ADD PUSH1 0x15 SWAP1 SLOAD SWAP1 PUSH2 0x100 EXP SWAP1 DIV PUSH1 0xFF AND PUSH1 0xFF AND EQ DUP1 ISZERO PUSH2 0x115D JUMPI POP PUSH1 0x1 DUP4 PUSH1 0xFF AND EQ JUMPDEST ISZERO PUSH2 0x11C0 JUMPI PUSH1 0x6 PUSH1 0x0 PUSH1 0x9 PUSH1 0x0 DUP1 DUP2 MSTORE PUSH1 0x20 ADD SWAP1 DUP2 MSTORE PUSH1 0x20 ADD PUSH1 0x0 KECCAK256 PUSH1 0x2 ADD SLOAD DUP2 MSTORE PUSH1 0x20 ADD SWAP1 DUP2 MSTORE PUSH1 0x20 ADD PUSH1 0x0 KECCAK256 PUSH1 0x2 ADD SLOAD DUP3 LT PUSH2 0x11A8 JUMPI PUSH2 0x11A1 DUP3 DUP5 PUSH1 0x0 PUSH2 0x3C1B JUMP JUMPDEST SWAP4 POP PUSH2 0x11BB JUMP JUMPDEST PUSH2 0x11B3 DUP2 PUSH1 0x0 PUSH2 0x4009 JUMP JUMPDEST POP POP POP PUSH2 0x1747 JUMP JUMPDEST PUSH2 0x12EE JUMP JUMPDEST PUSH1 0x2 PUSH1 0x6 PUSH1 0x0 PUSH1 0x9 PUSH1 0x0 DUP1 DUP2 MSTORE PUSH1 0x20 ADD SWAP1 DUP2 MSTORE PUSH1 0x20 ADD PUSH1 0x0 KECCAK256 PUSH1 0x2 ADD SLOAD DUP2 MSTORE PUSH1 0x20 ADD SWAP1 DUP2 MSTORE PUSH1 0x20 ADD PUSH1 0x0 KECCAK256 PUSH1 0x1 ADD PUSH1 0x15 SWAP1 SLOAD SWAP1 PUSH2 0x100 EXP SWAP1 DIV PUSH1 0xFF AND PUSH1 0xFF AND EQ DUP1 ISZERO PUSH2 0x120F JUMPI POP PUSH1 0x2 DUP4 PUSH1 0xFF AND EQ JUMPDEST ISZERO PUSH2 0x1272 JUMPI PUSH1 0x6 PUSH1 0x0 PUSH1 0x9 PUSH1 0x0 DUP1 DUP2 MSTORE PUSH1 0x20 ADD SWAP1 DUP2 MSTORE PUSH1 0x20 ADD PUSH1 0x0 KECCAK256 PUSH1 0x2 ADD SLOAD DUP2 MSTORE PUSH1 0x20 ADD SWAP1 DUP2 MSTORE PUSH1 0x20 ADD PUSH1 0x0 KECCAK256 PUSH1 0x2 ADD SLOAD DUP3 GT PUSH2 0x125A JUMPI PUSH2 0x1253 DUP3 DUP5 PUSH1 0x0 PUSH2 0x3C1B JUMP JUMPDEST SWAP4 POP PUSH2 0x126D JUMP JUMPDEST PUSH2 0x1265 DUP2 PUSH1 0x0 PUSH2 0x4009 JUMP JUMPDEST POP POP POP PUSH2 0x1747 JUMP JUMPDEST PUSH2 0x12ED JUMP JUMPDEST PUSH1 0x2 PUSH1 0x6 PUSH1 0x0 PUSH1 0x9 PUSH1 0x0 DUP1 DUP2 MSTORE PUSH1 0x20 ADD SWAP1 DUP2 MSTORE PUSH1 0x20 ADD PUSH1 0x0 KECCAK256 PUSH1 0x2 ADD SLOAD DUP2 MSTORE PUSH1 0x20 ADD SWAP1 DUP2 MSTORE PUSH1 0x20 ADD PUSH1 0x0 KECCAK256 PUSH1 0x1 ADD PUSH1 0x15 SWAP1 SLOAD SWAP1 PUSH2 0x100 EXP SWAP1 DIV PUSH1 0xFF AND PUSH1 0xFF AND EQ DUP1 ISZERO PUSH2 0x12C1 JUMPI POP PUSH1 0x1 DUP4 PUSH1 0xFF AND EQ JUMPDEST ISZERO PUSH2 0x12D9 JUMPI PUSH2 0x12D2 DUP3 DUP5 PUSH1 0x0 PUSH2 0x3C1B JUMP JUMPDEST SWAP4 POP PUSH2 0x12EC JUMP JUMPDEST PUSH2 0x12E4 DUP2 PUSH1 0x0 PUSH2 0x4009 JUMP JUMPDEST POP POP POP PUSH2 0x1747 JUMP JUMPDEST JUMPDEST JUMPDEST PUSH2 0x1736 JUMP JUMPDEST PUSH1 0x0 DUP5 SUB PUSH2 0x149D JUMPI PUSH1 0x1 PUSH1 0x6 PUSH1 0x0 PUSH1 0x9 PUSH1 0x0 DUP1 DUP2 MSTORE PUSH1 0x20 ADD SWAP1 DUP2 MSTORE PUSH1 0x20 ADD PUSH1 0x0 KECCAK256 PUSH1 0x1 ADD SLOAD DUP2 MSTORE PUSH1 0x20 ADD SWAP1 DUP2 MSTORE PUSH1 0x20 ADD PUSH1 0x0 KECCAK256 PUSH1 0x1 ADD PUSH1 0x15 SWAP1 SLOAD SWAP1 PUSH2 0x100 EXP SWAP1 DIV PUSH1 0xFF AND PUSH1 0xFF AND EQ DUP1 ISZERO PUSH2 0x134A JUMPI POP PUSH1 0x1 DUP4 PUSH1 0xFF AND EQ JUMPDEST ISZERO PUSH2 0x1397 JUMPI PUSH1 0x6 PUSH1 0x0 PUSH1 0x9 PUSH1 0x0 DUP1 DUP2 MSTORE PUSH1 0x20 ADD SWAP1 DUP2 MSTORE PUSH1 0x20 ADD PUSH1 0x0 KECCAK256 PUSH1 0x1 ADD SLOAD DUP2 MSTORE PUSH1 0x20 ADD SWAP1 DUP2 MSTORE PUSH1 0x20 ADD PUSH1 0x0 KECCAK256 PUSH1 0x2 ADD SLOAD DUP3 LT ISZERO PUSH2 0x1392 JUMPI PUSH2 0x138F DUP3 DUP5 PUSH1 0x0 PUSH2 0x3C1B JUMP JUMPDEST SWAP4 POP JUMPDEST PUSH2 0x1498 JUMP JUMPDEST PUSH1 0x2 PUSH1 0x6 PUSH1 0x0 PUSH1 0x9 PUSH1 0x0 DUP1 DUP2 MSTORE PUSH1 0x20 ADD SWAP1 DUP2 MSTORE PUSH1 0x20 ADD PUSH1 0x0 KECCAK256 PUSH1 0x1 ADD SLOAD DUP2 MSTORE PUSH1 0x20 ADD SWAP1 DUP2 MSTORE PUSH1 0x20 ADD PUSH1 0x0 KECCAK256 PUSH1 0x1 ADD PUSH1 0x15 SWAP1 SLOAD SWAP1 PUSH2 0x100 EXP SWAP1 DIV PUSH1 0xFF AND PUSH1 0xFF AND EQ DUP1 ISZERO PUSH2 0x13E6 JUMPI POP PUSH1 0x2 DUP4 PUSH1 0xFF AND EQ JUMPDEST ISZERO PUSH2 0x1433 JUMPI PUSH1 0x6 PUSH1 0x0 PUSH1 0x9 PUSH1 0x0 DUP1 DUP2 MSTORE PUSH1 0x20 ADD SWAP1 DUP2 MSTORE PUSH1 0x20 ADD PUSH1 0x0 KECCAK256 PUSH1 0x1 ADD SLOAD DUP2 MSTORE PUSH1 0x20 ADD SWAP1 DUP2 MSTORE PUSH1 0x20 ADD PUSH1 0x0 KECCAK256 PUSH1 0x2 ADD SLOAD DUP3 GT ISZERO PUSH2 0x142E JUMPI PUSH2 0x142B DUP3 DUP5 PUSH1 0x0 PUSH2 0x3C1B JUMP JUMPDEST SWAP4 POP JUMPDEST PUSH2 0x1497 JUMP JUMPDEST PUSH1 0x2 PUSH1 0x6 PUSH1 0x0 PUSH1 0x9 PUSH1 0x0 DUP1 DUP2 MSTORE PUSH1 0x20 ADD SWAP1 DUP2 MSTORE PUSH1 0x20 ADD PUSH1 0x0 KECCAK256 PUSH1 0x1 ADD SLOAD DUP2 MSTORE PUSH1 0x20 ADD SWAP1 DUP2 MSTORE PUSH1 0x20 ADD PUSH1 0x0 KECCAK256 PUSH1 0x1 ADD PUSH1 0x15 SWAP1 SLOAD SWAP1 PUSH2 0x100 EXP SWAP1 DIV PUSH1 0xFF AND PUSH1 0xFF AND EQ DUP1 ISZERO PUSH2 0x1482 JUMPI POP PUSH1 0x1 DUP4 PUSH1 0xFF AND EQ JUMPDEST ISZERO PUSH2 0x1496 JUMPI PUSH2 0x1493 DUP3 DUP5 PUSH1 0x0 PUSH2 0x3C1B JUMP JUMPDEST SWAP4 POP JUMPDEST JUMPDEST JUMPDEST PUSH2 0x1735 JUMP JUMPDEST PUSH1 0x1 PUSH1 0x6 PUSH1 0x0 PUSH1 0x9 PUSH1 0x0 DUP9 DUP2 MSTORE PUSH1 0x20 ADD SWAP1 DUP2 MSTORE PUSH1 0x20 ADD PUSH1 0x0 KECCAK256 PUSH1 0x1 ADD SLOAD DUP2 MSTORE PUSH1 0x20 ADD SWAP1 DUP2 MSTORE PUSH1 0x20 ADD PUSH1 0x0 KECCAK256 PUSH1 0x1 ADD PUSH1 0x15 SWAP1 SLOAD SWAP1 PUSH2 0x100 EXP SWAP1 DIV PUSH1 0xFF AND PUSH1 0xFF AND EQ DUP1 ISZERO PUSH2 0x14EC JUMPI POP PUSH1 0x1 DUP4 PUSH1 0xFF AND EQ JUMPDEST ISZERO PUSH2 0x1565 JUMPI PUSH1 0x6 PUSH1 0x0 PUSH1 0x9 PUSH1 0x0 DUP8 DUP2 MSTORE PUSH1 0x20 ADD SWAP1 DUP2 MSTORE PUSH1 0x20 ADD PUSH1 0x0 KECCAK256 PUSH1 0x1 ADD SLOAD DUP2 MSTORE PUSH1 0x20 ADD SWAP1 DUP2 MSTORE PUSH1 0x20 ADD PUSH1 0x0 KECCAK256 PUSH1 0x2 ADD SLOAD DUP3 LT ISZERO PUSH2 0x1534 JUMPI PUSH2 0x1531 DUP3 DUP5 PUSH1 0x0 PUSH2 0x3C1B JUMP JUMPDEST SWAP4 POP JUMPDEST PUSH1 0x6 PUSH1 0x0 DUP6 DUP2 MSTORE PUSH1 0x20 ADD SWAP1 DUP2 MSTORE PUSH1 0x20 ADD PUSH1 0x0 KECCAK256 PUSH1 0x2 ADD SLOAD DUP3 LT PUSH2 0x1560 JUMPI PUSH2 0x155D DUP3 DUP5 PUSH1 0x0 PUSH2 0x3C1B JUMP JUMPDEST SWAP4 POP JUMPDEST PUSH2 0x1734 JUMP JUMPDEST PUSH1 0x2 PUSH1 0x6 PUSH1 0x0 PUSH1 0x9 PUSH1 0x0 DUP9 DUP2 MSTORE PUSH1 0x20 ADD SWAP1 DUP2 MSTORE PUSH1 0x20 ADD PUSH1 0x0 KECCAK256 PUSH1 0x1 ADD SLOAD DUP2 MSTORE PUSH1 0x20 ADD SWAP1 DUP2 MSTORE PUSH1 0x20 ADD PUSH1 0x0 KECCAK256 PUSH1 0x1 ADD PUSH1 0x15 SWAP1 SLOAD SWAP1 PUSH2 0x100 EXP SWAP1 DIV PUSH1 0xFF AND PUSH1 0xFF AND EQ DUP1 ISZERO PUSH2 0x15B4 JUMPI POP PUSH1 0x2 DUP4 PUSH1 0xFF AND EQ JUMPDEST ISZERO PUSH2 0x165C JUMPI PUSH1 0x6 PUSH1 0x0 PUSH1 0x9 PUSH1 0x0 DUP8 DUP2 MSTORE PUSH1 0x20 ADD SWAP1 DUP2 MSTORE PUSH1 0x20 ADD PUSH1 0x0 KECCAK256 PUSH1 0x1 ADD SLOAD DUP2 MSTORE PUSH1 0x20 ADD SWAP1 DUP2 MSTORE PUSH1 0x20 ADD PUSH1 0x0 KECCAK256 PUSH1 0x2 ADD SLOAD DUP3 GT ISZERO PUSH2 0x15FC JUMPI PUSH2 0x15F9 DUP3 DUP5 PUSH1 0x0 PUSH2 0x3C1B JUMP JUMPDEST SWAP4 POP JUMPDEST PUSH1 0x2 PUSH1 0x6 PUSH1 0x0 DUP7 DUP2 MSTORE PUSH1 0x20 ADD SWAP1 DUP2 MSTORE PUSH1 0x20 ADD PUSH1 0x0 KECCAK256 PUSH1 0x1 ADD PUSH1 0x15 SWAP1 SLOAD SWAP1 PUSH2 0x100 EXP SWAP1 DIV PUSH1 0xFF AND PUSH1 0xFF AND SUB PUSH2 0x1657 JUMPI PUSH1 0x6 PUSH1 0x0 DUP6 DUP2 MSTORE PUSH1 0x20 ADD SWAP1 DUP2 MSTORE PUSH1 0x20 ADD PUSH1 0x0 KECCAK256 PUSH1 0x2 ADD SLOAD DUP3 GT PUSH2 0x1656 JUMPI PUSH2 0x1653 DUP3 DUP5 PUSH1 0x0 PUSH2 0x3C1B JUMP JUMPDEST SWAP4 POP JUMPDEST JUMPDEST PUSH2 0x1733 JUMP JUMPDEST PUSH1 0x2 PUSH1 0x6 PUSH1 0x0 PUSH1 0x9 PUSH1 0x0 DUP9 DUP2 MSTORE PUSH1 0x20 ADD SWAP1 DUP2 MSTORE PUSH1 0x20 ADD PUSH1 0x0 KECCAK256 PUSH1 0x1 ADD SLOAD DUP2 MSTORE PUSH1 0x20 ADD SWAP1 DUP2 MSTORE PUSH1 0x20 ADD PUSH1 0x0 KECCAK256 PUSH1 0x1 ADD PUSH1 0x15 SWAP1 SLOAD SWAP1 PUSH2 0x100 EXP SWAP1 DIV PUSH1 0xFF AND PUSH1 0xFF AND EQ DUP1 ISZERO PUSH2 0x16AB JUMPI POP PUSH1 0x1 DUP4 PUSH1 0xFF AND EQ JUMPDEST ISZERO PUSH2 0x1723 JUMPI PUSH1 0x2 PUSH1 0x6 PUSH1 0x0 DUP7 DUP2 MSTORE PUSH1 0x20 ADD SWAP1 DUP2 MSTORE PUSH1 0x20 ADD PUSH1 0x0 KECCAK256 PUSH1 0x1 ADD PUSH1 0x15 SWAP1 SLOAD SWAP1 PUSH2 0x100 EXP SWAP1 DIV PUSH1 0xFF AND PUSH1 0xFF AND SUB PUSH2 0x16F1 JUMPI PUSH2 0x16EA DUP3 DUP5 PUSH1 0x0 PUSH2 0x3C1B JUMP JUMPDEST SWAP4 POP PUSH2 0x171E JUMP JUMPDEST PUSH1 0x6 PUSH1 0x0 DUP6 DUP2 MSTORE PUSH1 0x20 ADD SWAP1 DUP2 MSTORE PUSH1 0x20 ADD PUSH1 0x0 KECCAK256 PUSH1 0x2 ADD SLOAD DUP3 LT PUSH2 0x171D JUMPI PUSH2 0x171A DUP3 DUP5 PUSH1 0x0 PUSH2 0x3C1B JUMP JUMPDEST SWAP4 POP JUMPDEST JUMPDEST PUSH2 0x1732 JUMP JUMPDEST PUSH2 0x172F DUP3 DUP5 PUSH1 0x0 PUSH2 0x3C1B JUMP JUMPDEST SWAP4 POP JUMPDEST JUMPDEST JUMPDEST JUMPDEST JUMPDEST PUSH2 0x1742 DUP5 DUP3 PUSH1 0x0 PUSH2 0x421C JUMP JUMPDEST JUMPDEST POP POP POP JUMPDEST PUSH2 0x174F PUSH2 0x267F JUMP JUMPDEST POP POP POP POP JUMP JUMPDEST PUSH2 0x175D PUSH2 0x2175 JUMP JUMPDEST PUSH1 0x1 DUP2 PUSH1 0xFF AND SUB PUSH2 0x19CF JUMPI PUSH1 0x0 PUSH1 0x9 PUSH1 0x0 PUSH1 0x9 PUSH1 0x0 DUP1 DUP2 MSTORE PUSH1 0x20 ADD SWAP1 DUP2 MSTORE PUSH1 0x20 ADD PUSH1 0x0 KECCAK256 PUSH1 0x2 ADD SLOAD DUP2 MSTORE PUSH1 0x20 ADD SWAP1 DUP2 MSTORE PUSH1 0x20 ADD PUSH1 0x0 KECCAK256 PUSH1 0x40 MLOAD DUP1 PUSH1 0x60 ADD PUSH1 0x40 MSTORE SWAP1 DUP2 PUSH1 0x0 DUP3 ADD SLOAD DUP2 MSTORE PUSH1 0x20 ADD PUSH1 0x1 DUP3 ADD SLOAD DUP2 MSTORE PUSH1 0x20 ADD PUSH1 0x2 DUP3 ADD SLOAD DUP2 MSTORE POP POP SWAP1 POP JUMPDEST PUSH1 0x0 DUP2 PUSH1 0x0 ADD MLOAD EQ ISZERO DUP1 ISZERO PUSH2 0x17E7 JUMPI POP PUSH1 0x0 DUP4 PUSH16 0xFFFFFFFFFFFFFFFFFFFFFFFFFFFFFFFF AND EQ ISZERO JUMPDEST ISZERO PUSH2 0x19C9 JUMPI PUSH1 0x0 PUSH1 0x6 PUSH1 0x0 DUP4 PUSH1 0x0 ADD MLOAD DUP2 MSTORE PUSH1 0x20 ADD SWAP1 DUP2 MSTORE PUSH1 0x20 ADD PUSH1 0x0 KECCAK256 PUSH1 0x0 ADD PUSH1 0x10 SWAP1 SLOAD SWAP1 PUSH2 0x100 EXP SWAP1 DIV PUSH16 0xFFFFFFFFFFFFFFFFFFFFFFFFFFFFFFFF AND PUSH16 0xFFFFFFFFFFFFFFFFFFFFFFFFFFFFFFFF AND DUP5 PUSH16 0xFFFFFFFFFFFFFFFFFFFFFFFFFFFFFFFF AND LT PUSH2 0x188B JUMPI PUSH1 0x6 PUSH1 0x0 DUP4 PUSH1 0x0 ADD MLOAD DUP2 MSTORE PUSH1 0x20 ADD SWAP1 DUP2 MSTORE PUSH1 0x20 ADD PUSH1 0x0 KECCAK256 PUSH1 0x0 ADD PUSH1 0x10 SWAP1 SLOAD SWAP1 PUSH2 0x100 EXP SWAP1 DIV PUSH16 0xFFFFFFFFFFFFFFFFFFFFFFFFFFFFFFFF AND PUSH2 0x188D JUMP JUMPDEST DUP4 JUMPDEST SWAP1 POP PUSH2 0x189D DUP3 PUSH1 0x0 ADD MLOAD DUP3 PUSH2 0x442C JUMP JUMPDEST ISZERO PUSH2 0x1973 JUMPI PUSH1 0x9 PUSH1 0x0 DUP4 PUSH1 0x0 ADD MLOAD DUP2 MSTORE PUSH1 0x20 ADD SWAP1 DUP2 MSTORE PUSH1 0x20 ADD PUSH1 0x0 KECCAK256 PUSH1 0x1 ADD SLOAD PUSH1 0x9 PUSH1 0x0 PUSH1 0x9 PUSH1 0x0 DUP7 PUSH1 0x0 ADD MLOAD DUP2 MSTORE PUSH1 0x20 ADD SWAP1 DUP2 MSTORE PUSH1 0x20 ADD PUSH1 0x0 KECCAK256 PUSH1 0x2 ADD SLOAD DUP2 MSTORE PUSH1 0x20 ADD SWAP1 DUP2 MSTORE PUSH1 0x20 ADD PUSH1 0x0 KECCAK256 PUSH1 0x1 ADD DUP2 SWAP1 SSTORE POP PUSH1 0x9 PUSH1 0x0 DUP4 PUSH1 0x0 ADD MLOAD DUP2 MSTORE PUSH1 0x20 ADD SWAP1 DUP2 MSTORE PUSH1 0x20 ADD PUSH1 0x0 KECCAK256 PUSH1 0x2 ADD SLOAD PUSH1 0x9 PUSH1 0x0 PUSH1 0x9 PUSH1 0x0 DUP7 PUSH1 0x0 ADD MLOAD DUP2 MSTORE PUSH1 0x20 ADD SWAP1 DUP2 MSTORE PUSH1 0x20 ADD PUSH1 0x0 KECCAK256 PUSH1 0x1 ADD SLOAD DUP2 MSTORE PUSH1 0x20 ADD SWAP1 DUP2 MSTORE PUSH1 0x20 ADD PUSH1 0x0 KECCAK256 PUSH1 0x2 ADD DUP2 SWAP1 SSTORE POP PUSH1 0x9 PUSH1 0x0 DUP4 PUSH1 0x0 ADD MLOAD DUP2 MSTORE PUSH1 0x20 ADD SWAP1 DUP2 MSTORE PUSH1 0x20 ADD PUSH1 0x0 KECCAK256 PUSH1 0x0 DUP1 DUP3 ADD PUSH1 0x0 SWAP1 SSTORE PUSH1 0x1 DUP3 ADD PUSH1 0x0 SWAP1 SSTORE PUSH1 0x2 DUP3 ADD PUSH1 0x0 SWAP1 SSTORE POP POP JUMPDEST DUP1 DUP5 PUSH2 0x197F SWAP2 SWAP1 PUSH2 0x5695 JUMP JUMPDEST SWAP4 POP PUSH1 0x9 PUSH1 0x0 DUP4 PUSH1 0x40 ADD MLOAD DUP2 MSTORE PUSH1 0x20 ADD SWAP1 DUP2 MSTORE PUSH1 0x20 ADD PUSH1 0x0 KECCAK256 PUSH1 0x40 MLOAD DUP1 PUSH1 0x60 ADD PUSH1 0x40 MSTORE SWAP1 DUP2 PUSH1 0x0 DUP3 ADD SLOAD DUP2 MSTORE PUSH1 0x20 ADD PUSH1 0x1 DUP3 ADD SLOAD DUP2 MSTORE PUSH1 0x20 ADD PUSH1 0x2 DUP3 ADD SLOAD DUP2 MSTORE POP POP SWAP2 POP POP PUSH2 0x17BF JUMP JUMPDEST POP PUSH2 0x1C32 JUMP JUMPDEST PUSH1 0x0 PUSH1 0xA PUSH1 0x0 PUSH1 0xA PUSH1 0x0 DUP1 DUP2 MSTORE PUSH1 0x20 ADD SWAP1 DUP2 MSTORE PUSH1 0x20 ADD PUSH1 0x0 KECCAK256 PUSH1 0x2 ADD SLOAD DUP2 MSTORE PUSH1 0x20 ADD SWAP1 DUP2 MSTORE PUSH1 0x20 ADD PUSH1 0x0 KECCAK256 PUSH1 0x40 MLOAD DUP1 PUSH1 0x60 ADD PUSH1 0x40 MSTORE SWAP1 DUP2 PUSH1 0x0 DUP3 ADD SLOAD DUP2 MSTORE PUSH1 0x20 ADD PUSH1 0x1 DUP3 ADD SLOAD DUP2 MSTORE PUSH1 0x20 ADD PUSH1 0x2 DUP3 ADD SLOAD DUP2 MSTORE POP POP SWAP1 POP JUMPDEST PUSH1 0x0 DUP2 PUSH1 0x0 ADD MLOAD EQ ISZERO DUP1 ISZERO PUSH2 0x1A4E JUMPI POP PUSH1 0x0 DUP4 PUSH16 0xFFFFFFFFFFFFFFFFFFFFFFFFFFFFFFFF AND EQ ISZERO JUMPDEST ISZERO PUSH2 0x1C30 JUMPI PUSH1 0x0 PUSH1 0x6 PUSH1 0x0 DUP4 PUSH1 0x0 ADD MLOAD DUP2 MSTORE PUSH1 0x20 ADD SWAP1 DUP2 MSTORE PUSH1 0x20 ADD PUSH1 0x0 KECCAK256 PUSH1 0x0 ADD PUSH1 0x10 SWAP1 SLOAD SWAP1 PUSH2 0x100 EXP SWAP1 DIV PUSH16 0xFFFFFFFFFFFFFFFFFFFFFFFFFFFFFFFF AND PUSH16 0xFFFFFFFFFFFFFFFFFFFFFFFFFFFFFFFF AND DUP5 PUSH16 0xFFFFFFFFFFFFFFFFFFFFFFFFFFFFFFFF AND LT PUSH2 0x1AF2 JUMPI PUSH1 0x6 PUSH1 0x0 DUP4 PUSH1 0x0 ADD MLOAD DUP2 MSTORE PUSH1 0x20 ADD SWAP1 DUP2 MSTORE PUSH1 0x20 ADD PUSH1 0x0 KECCAK256 PUSH1 0x0 ADD PUSH1 0x10 SWAP1 SLOAD SWAP1 PUSH2 0x100 EXP SWAP1 DIV PUSH16 0xFFFFFFFFFFFFFFFFFFFFFFFFFFFFFFFF AND PUSH2 0x1AF4 JUMP JUMPDEST DUP4 JUMPDEST SWAP1 POP PUSH2 0x1B04 DUP3 PUSH1 0x0 ADD MLOAD DUP3 PUSH2 0x442C JUMP JUMPDEST ISZERO PUSH2 0x1BDA JUMPI PUSH1 0xA PUSH1 0x0 DUP4 PUSH1 0x0 ADD MLOAD DUP2 MSTORE PUSH1 0x20 ADD SWAP1 DUP2 MSTORE PUSH1 0x20 ADD PUSH1 0x0 KECCAK256 PUSH1 0x1 ADD SLOAD PUSH1 0xA PUSH1 0x0 PUSH1 0xA PUSH1 0x0 DUP7 PUSH1 0x0 ADD MLOAD DUP2 MSTORE PUSH1 0x20 ADD SWAP1 DUP2 MSTORE PUSH1 0x20 ADD PUSH1 0x0 KECCAK256 PUSH1 0x2 ADD SLOAD DUP2 MSTORE PUSH1 0x20 ADD SWAP1 DUP2 MSTORE PUSH1 0x20 ADD PUSH1 0x0 KECCAK256 PUSH1 0x1 ADD DUP2 SWAP1 SSTORE POP PUSH1 0xA PUSH1 0x0 DUP4 PUSH1 0x0 ADD MLOAD DUP2 MSTORE PUSH1 0x20 ADD SWAP1 DUP2 MSTORE PUSH1 0x20 ADD PUSH1 0x0 KECCAK256 PUSH1 0x2 ADD SLOAD PUSH1 0xA PUSH1 0x0 PUSH1 0xA PUSH1 0x0 DUP7 PUSH1 0x0 ADD MLOAD DUP2 MSTORE PUSH1 0x20 ADD SWAP1 DUP2 MSTORE PUSH1 0x20 ADD PUSH1 0x0 KECCAK256 PUSH1 0x1 ADD SLOAD DUP2 MSTORE PUSH1 0x20 ADD SWAP1 DUP2 MSTORE PUSH1 0x20 ADD PUSH1 0x0 KECCAK256 PUSH1 0x2 ADD DUP2 SWAP1 SSTORE POP PUSH1 0xA PUSH1 0x0 DUP4 PUSH1 0x0 ADD MLOAD DUP2 MSTORE PUSH1 0x20 ADD SWAP1 DUP2 MSTORE PUSH1 0x20 ADD PUSH1 0x0 KECCAK256 PUSH1 0x0 DUP1 DUP3 ADD PUSH1 0x0 SWAP1 SSTORE PUSH1 0x1 DUP3 ADD PUSH1 0x0 SWAP1 SSTORE PUSH1 0x2 DUP3 ADD PUSH1 0x0 SWAP1 SSTORE POP POP JUMPDEST DUP1 DUP5 PUSH2 0x1BE6 SWAP2 SWAP1 PUSH2 0x5695 JUMP JUMPDEST SWAP4 POP PUSH1 0xA PUSH1 0x0 DUP4 PUSH1 0x40 ADD MLOAD DUP2 MSTORE PUSH1 0x20 ADD SWAP1 DUP2 MSTORE PUSH1 0x20 ADD PUSH1 0x0 KECCAK256 PUSH1 0x40 MLOAD DUP1 PUSH1 0x60 ADD PUSH1 0x40 MSTORE SWAP1 DUP2 PUSH1 0x0 DUP3 ADD SLOAD DUP2 MSTORE PUSH1 0x20 ADD PUSH1 0x1 DUP3 ADD SLOAD DUP2 MSTORE PUSH1 0x20 ADD PUSH1 0x2 DUP3 ADD SLOAD DUP2 MSTORE POP POP SWAP2 POP POP PUSH2 0x1A26 JUMP JUMPDEST POP JUMPDEST PUSH2 0x1C3A PUSH2 0x267F JUMP JUMPDEST POP POP JUMP JUMPDEST PUSH2 0x1C46 PUSH2 0x4EEE JUMP JUMPDEST PUSH2 0x1388 DUP2 PUSH16 0xFFFFFFFFFFFFFFFFFFFFFFFFFFFFFFFF AND GT ISZERO PUSH2 0x1C94 JUMPI PUSH1 0x40 MLOAD PUSH32 0xAC98D7E100000000000000000000000000000000000000000000000000000000 DUP2 MSTORE PUSH1 0x4 ADD PUSH1 0x40 MLOAD DUP1 SWAP2 SUB SWAP1 REVERT JUMPDEST DUP1 PUSH1 0x4 PUSH1 0x0 PUSH2 0x100 EXP DUP2 SLOAD DUP2 PUSH16 0xFFFFFFFFFFFFFFFFFFFFFFFFFFFFFFFF MUL NOT AND SWAP1 DUP4 PUSH16 0xFFFFFFFFFFFFFFFFFFFFFFFFFFFFFFFF AND MUL OR SWAP1 SSTORE POP POP JUMP JUMPDEST PUSH2 0x1CD8 PUSH2 0x4EEE JUMP JUMPDEST PUSH2 0x1CE2 PUSH1 0x0 PUSH2 0x4F6C JUMP JUMPDEST JUMP JUMPDEST PUSH1 0x0 DUP1 PUSH1 0x0 SWAP1 SLOAD SWAP1 PUSH2 0x100 EXP SWAP1 DIV PUSH20 0xFFFFFFFFFFFFFFFFFFFFFFFFFFFFFFFFFFFFFFFF AND SWAP1 POP SWAP1 JUMP JUMPDEST PUSH1 0x0 DUP1 PUSH1 0x0 DUP1 DUP5 PUSH1 0x1 PUSH1 0x7 PUSH1 0x0 DUP4 DUP2 MSTORE PUSH1 0x20 ADD SWAP1 DUP2 MSTORE PUSH1 0x20 ADD PUSH1 0x0 KECCAK256 SLOAD EQ PUSH2 0x1D61 JUMPI PUSH1 0x40 MLOAD PUSH32 0xD4DBB56500000000000000000000000000000000000000000000000000000000 DUP2 MSTORE PUSH1 0x4 ADD PUSH1 0x40 MLOAD DUP1 SWAP2 SUB SWAP1 REVERT JUMPDEST PUSH1 0x6 PUSH1 0x0 DUP8 DUP2 MSTORE PUSH1 0x20 ADD SWAP1 DUP2 MSTORE PUSH1 0x20 ADD PUSH1 0x0 KECCAK256 PUSH1 0x0 ADD PUSH1 0x0 SWAP1 SLOAD SWAP1 PUSH2 0x100 EXP SWAP1 DIV PUSH16 0xFFFFFFFFFFFFFFFFFFFFFFFFFFFFFFFF AND PUSH1 0x6 PUSH1 0x0 DUP9 DUP2 MSTORE PUSH1 0x20 ADD SWAP1 DUP2 MSTORE PUSH1 0x20 ADD PUSH1 0x0 KECCAK256 PUSH1 0x0 ADD PUSH1 0x10 SWAP1 SLOAD SWAP1 PUSH2 0x100 EXP SWAP1 DIV PUSH16 0xFFFFFFFFFFFFFFFFFFFFFFFFFFFFFFFF AND PUSH1 0x6 PUSH1 0x0 DUP10 DUP2 MSTORE PUSH1 0x20 ADD SWAP1 DUP2 MSTORE PUSH1 0x20 ADD PUSH1 0x0 KECCAK256 PUSH1 0x1 ADD PUSH1 0x0 SWAP1 SLOAD SWAP1 PUSH2 0x100 EXP SWAP1 DIV PUSH20 0xFFFFFFFFFFFFFFFFFFFFFFFFFFFFFFFFFFFFFFFF AND PUSH1 0x6 PUSH1 0x0 DUP11 DUP2 MSTORE PUSH1 0x20 ADD SWAP1 DUP2 MSTORE PUSH1 0x20 ADD PUSH1 0x0 KECCAK256 PUSH1 0x1 ADD PUSH1 0x14 SWAP1 SLOAD SWAP1 PUSH2 0x100 EXP SWAP1 DIV PUSH1 0xFF AND SWAP5 POP SWAP5 POP SWAP5 POP SWAP5 POP POP SWAP2 SWAP4 POP SWAP2 SWAP4 JUMP JUMPDEST PUSH1 0x6 PUSH1 0x20 MSTORE DUP1 PUSH1 0x0 MSTORE PUSH1 0x40 PUSH1 0x0 KECCAK256 PUSH1 0x0 SWAP2 POP SWAP1 POP DUP1 PUSH1 0x0 ADD PUSH1 0x0 SWAP1 SLOAD SWAP1 PUSH2 0x100 EXP SWAP1 DIV PUSH16 0xFFFFFFFFFFFFFFFFFFFFFFFFFFFFFFFF AND SWAP1 DUP1 PUSH1 0x0 ADD PUSH1 0x10 SWAP1 SLOAD SWAP1 PUSH2 0x100 EXP SWAP1 DIV PUSH16 0xFFFFFFFFFFFFFFFFFFFFFFFFFFFFFFFF AND SWAP1 DUP1 PUSH1 0x1 ADD PUSH1 0x0 SWAP1 SLOAD SWAP1 PUSH2 0x100 EXP SWAP1 DIV PUSH20 0xFFFFFFFFFFFFFFFFFFFFFFFFFFFFFFFFFFFFFFFF AND SWAP1 DUP1 PUSH1 0x1 ADD PUSH1 0x14 SWAP1 SLOAD SWAP1 PUSH2 0x100 EXP SWAP1 DIV PUSH1 0xFF AND SWAP1 DUP1 PUSH1 0x1 ADD PUSH1 0x15 SWAP1 SLOAD SWAP1 PUSH2 0x100 EXP SWAP1 DIV PUSH1 0xFF AND SWAP1 DUP1 PUSH1 0x2 ADD SLOAD SWAP1 POP DUP7 JUMP JUMPDEST PUSH1 0x7 PUSH1 0x20 MSTORE DUP1 PUSH1 0x0 MSTORE PUSH1 0x40 PUSH1 0x0 KECCAK256 PUSH1 0x0 SWAP2 POP SWAP1 POP SLOAD DUP2 JUMP JUMPDEST PUSH1 0x0 DUP1 PUSH1 0x1 PUSH1 0x0 SWAP1 SLOAD SWAP1 PUSH2 0x100 EXP SWAP1 DIV PUSH20 0xFFFFFFFFFFFFFFFFFFFFFFFFFFFFFFFFFFFFFFFF AND PUSH1 0x2 PUSH1 0x0 SWAP1 SLOAD SWAP1 PUSH2 0x100 EXP SWAP1 DIV PUSH20 0xFFFFFFFFFFFFFFFFFFFFFFFFFFFFFFFFFFFFFFFF AND SWAP2 POP SWAP2 POP SWAP1 SWAP2 JUMP JUMPDEST PUSH2 0x1F51 PUSH2 0x4EEE JUMP JUMPDEST PUSH2 0x1388 DUP2 PUSH16 0xFFFFFFFFFFFFFFFFFFFFFFFFFFFFFFFF AND GT ISZERO PUSH2 0x1F9F JUMPI PUSH1 0x40 MLOAD PUSH32 0xAC98D7E100000000000000000000000000000000000000000000000000000000 DUP2 MSTORE PUSH1 0x4 ADD PUSH1 0x40 MLOAD DUP1 SWAP2 SUB SWAP1 REVERT JUMPDEST DUP1 PUSH1 0x4 PUSH1 0x10 PUSH2 0x100 EXP DUP2 SLOAD DUP2 PUSH16 0xFFFFFFFFFFFFFFFFFFFFFFFFFFFFFFFF MUL NOT AND SWAP1 DUP4 PUSH16 0xFFFFFFFFFFFFFFFFFFFFFFFFFFFFFFFF AND MUL OR SWAP1 SSTORE POP POP JUMP JUMPDEST PUSH1 0x1 PUSH1 0x0 SWAP1 SLOAD SWAP1 PUSH2 0x100 EXP SWAP1 DIV PUSH20 0xFFFFFFFFFFFFFFFFFFFFFFFFFFFFFFFFFFFFFFFF AND DUP2 JUMP JUMPDEST PUSH2 0x2009 PUSH2 0x2175 JUMP JUMPDEST PUSH1 0x0 PUSH1 0x1 SWAP1 POP PUSH1 0x0 DUP4 PUSH16 0xFFFFFFFFFFFFFFFFFFFFFFFFFFFFFFFF AND DUP6 PUSH16 0xFFFFFFFFFFFFFFFFFFFFFFFFFFFFFFFF AND GT ISZERO PUSH2 0x2074 JUMPI DUP4 PUSH7 0x38D7EA4C68000 DUP7 PUSH2 0x2051 SWAP2 SWAP1 PUSH2 0x5585 JUMP JUMPDEST PUSH2 0x205B SWAP2 SWAP1 PUSH2 0x55F1 JUMP JUMPDEST PUSH16 0xFFFFFFFFFFFFFFFFFFFFFFFFFFFFFFFF AND SWAP1 POP PUSH2 0x20AB JUMP JUMPDEST PUSH1 0x2 SWAP2 POP DUP5 PUSH7 0x38D7EA4C68000 DUP6 PUSH2 0x208C SWAP2 SWAP1 PUSH2 0x5585 JUMP JUMPDEST PUSH2 0x2096 SWAP2 SWAP1 PUSH2 0x55F1 JUMP JUMPDEST PUSH16 0xFFFFFFFFFFFFFFFFFFFFFFFFFFFFFFFF AND SWAP1 POP JUMPDEST PUSH1 0x0 DUP1 PUSH2 0x20BB DUP4 DUP6 DUP8 DUP11 DUP11 PUSH2 0x2689 JUMP JUMPDEST SWAP2 POP SWAP2 POP POP POP POP POP PUSH2 0x20CB PUSH2 0x267F JUMP JUMPDEST POP POP POP JUMP JUMPDEST PUSH2 0x20D8 PUSH2 0x4EEE JUMP JUMPDEST PUSH1 0x0 PUSH20 0xFFFFFFFFFFFFFFFFFFFFFFFFFFFFFFFFFFFFFFFF AND DUP2 PUSH20 0xFFFFFFFFFFFFFFFFFFFFFFFFFFFFFFFFFFFFFFFF AND SUB PUSH2 0x2147 JUMPI PUSH1 0x40 MLOAD PUSH32 0x8C379A000000000000000000000000000000000000000000000000000000000 DUP2 MSTORE PUSH1 0x4 ADD PUSH2 0x213E SWAP1 PUSH2 0x575C JUMP JUMPDEST PUSH1 0x40 MLOAD DUP1 SWAP2 SUB SWAP1 REVERT JUMPDEST PUSH2 0x2150 DUP2 PUSH2 0x4F6C JUMP JUMPDEST POP JUMP JUMPDEST PUSH1 0x4 PUSH1 0x10 SWAP1 SLOAD SWAP1 PUSH2 0x100 EXP SWAP1 DIV PUSH16 0xFFFFFFFFFFFFFFFFFFFFFFFFFFFFFFFF AND DUP2 JUMP JUMPDEST PUSH1 0x2 PUSH1 0x8 SLOAD SUB PUSH2 0x21BA JUMPI PUSH1 0x40 MLOAD PUSH32 0x8C379A000000000000000000000000000000000000000000000000000000000 DUP2 MSTORE PUSH1 0x4 ADD PUSH2 0x21B1 SWAP1 PUSH2 0x57C8 JUMP JUMPDEST PUSH1 0x40 MLOAD DUP1 SWAP2 SUB SWAP1 REVERT JUMPDEST PUSH1 0x2 PUSH1 0x8 DUP2 SWAP1 SSTORE POP JUMP JUMPDEST PUSH1 0x0 DUP2 PUSH1 0x1 PUSH1 0x7 PUSH1 0x0 DUP4 DUP2 MSTORE PUSH1 0x20 ADD SWAP1 DUP2 MSTORE PUSH1 0x20 ADD PUSH1 0x0 KECCAK256 SLOAD EQ PUSH2 0x2214 JUMPI PUSH1 0x40 MLOAD PUSH32 0xD4DBB56500000000000000000000000000000000000000000000000000000000 DUP2 MSTORE PUSH1 0x4 ADD PUSH1 0x40 MLOAD DUP1 SWAP2 SUB SWAP1 REVERT JUMPDEST PUSH1 0x6 PUSH1 0x0 DUP5 DUP2 MSTORE PUSH1 0x20 ADD SWAP1 DUP2 MSTORE PUSH1 0x20 ADD PUSH1 0x0 KECCAK256 PUSH1 0x1 ADD PUSH1 0x0 SWAP1 SLOAD SWAP1 PUSH2 0x100 EXP SWAP1 DIV PUSH20 0xFFFFFFFFFFFFFFFFFFFFFFFFFFFFFFFFFFFFFFFF AND PUSH20 0xFFFFFFFFFFFFFFFFFFFFFFFFFFFFFFFFFFFFFFFF AND CALLER PUSH20 0xFFFFFFFFFFFFFFFFFFFFFFFFFFFFFFFFFFFFFFFF AND EQ PUSH2 0x22AF JUMPI PUSH1 0x40 MLOAD PUSH32 0x71B3EE5400000000000000000000000000000000000000000000000000000000 DUP2 MSTORE PUSH1 0x4 ADD PUSH1 0x40 MLOAD DUP1 SWAP2 SUB SWAP1 REVERT JUMPDEST PUSH1 0x6 PUSH1 0x0 DUP5 DUP2 MSTORE PUSH1 0x20 ADD SWAP1 DUP2 MSTORE PUSH1 0x20 ADD PUSH1 0x0 KECCAK256 PUSH1 0x1 ADD PUSH1 0x14 SWAP1 SLOAD SWAP1 PUSH2 0x100 EXP SWAP1 DIV PUSH1 0xFF AND PUSH1 0xFF AND SWAP2 POP PUSH1 0x0 PUSH1 0x1 DUP4 EQ PUSH2 0x230A JUMPI PUSH1 0x2 PUSH1 0x0 SWAP1 SLOAD SWAP1 PUSH2 0x100 EXP SWAP1 DIV PUSH20 0xFFFFFFFFFFFFFFFFFFFFFFFFFFFFFFFFFFFFFFFF AND PUSH2 0x232E JUMP JUMPDEST PUSH1 0x1 PUSH1 0x0 SWAP1 SLOAD SWAP1 PUSH2 0x100 EXP SWAP1 DIV PUSH20 0xFFFFFFFFFFFFFFFFFFFFFFFFFFFFFFFFFFFFFFFF AND JUMPDEST SWAP1 POP DUP1 PUSH20 0xFFFFFFFFFFFFFFFFFFFFFFFFFFFFFFFFFFFFFFFF AND PUSH4 0xA9059CBB CALLER PUSH1 0x6 PUSH1 0x0 DUP9 DUP2 MSTORE PUSH1 0x20 ADD SWAP1 DUP2 MSTORE PUSH1 0x20 ADD PUSH1 0x0 KECCAK256 PUSH1 0x0 ADD PUSH1 0x0 SWAP1 SLOAD SWAP1 PUSH2 0x100 EXP SWAP1 DIV PUSH16 0xFFFFFFFFFFFFFFFFFFFFFFFFFFFFFFFF AND PUSH1 0x40 MLOAD DUP4 PUSH4 0xFFFFFFFF AND PUSH1 0xE0 SHL DUP2 MSTORE PUSH1 0x4 ADD PUSH2 0x239D SWAP3 SWAP2 SWAP1 PUSH2 0x5819 JUMP JUMPDEST PUSH1 0x20 PUSH1 0x40 MLOAD DUP1 DUP4 SUB DUP2 PUSH1 0x0 DUP8 GAS CALL ISZERO DUP1 ISZERO PUSH2 0x23BC JUMPI RETURNDATASIZE PUSH1 0x0 DUP1 RETURNDATACOPY RETURNDATASIZE PUSH1 0x0 REVERT JUMPDEST POP POP POP POP PUSH1 0x40 MLOAD RETURNDATASIZE PUSH1 0x1F NOT PUSH1 0x1F DUP3 ADD AND DUP3 ADD DUP1 PUSH1 0x40 MSTORE POP DUP2 ADD SWAP1 PUSH2 0x23E0 SWAP2 SWAP1 PUSH2 0x587A JUMP JUMPDEST PUSH2 0x2416 JUMPI PUSH1 0x40 MLOAD PUSH32 0x16E8BB8A00000000000000000000000000000000000000000000000000000000 DUP2 MSTORE PUSH1 0x4 ADD PUSH1 0x40 MLOAD DUP1 SWAP2 SUB SWAP1 REVERT JUMPDEST PUSH1 0x6 PUSH1 0x0 DUP6 DUP2 MSTORE PUSH1 0x20 ADD SWAP1 DUP2 MSTORE PUSH1 0x20 ADD PUSH1 0x0 KECCAK256 PUSH1 0x0 DUP1 DUP3 ADD PUSH1 0x0 PUSH2 0x100 EXP DUP2 SLOAD SWAP1 PUSH16 0xFFFFFFFFFFFFFFFFFFFFFFFFFFFFFFFF MUL NOT AND SWAP1 SSTORE PUSH1 0x0 DUP3 ADD PUSH1 0x10 PUSH2 0x100 EXP DUP2 SLOAD SWAP1 PUSH16 0xFFFFFFFFFFFFFFFFFFFFFFFFFFFFFFFF MUL NOT AND SWAP1 SSTORE PUSH1 0x1 DUP3 ADD PUSH1 0x0 PUSH2 0x100 EXP DUP2 SLOAD SWAP1 PUSH20 0xFFFFFFFFFFFFFFFFFFFFFFFFFFFFFFFFFFFFFFFF MUL NOT AND SWAP1 SSTORE PUSH1 0x1 DUP3 ADD PUSH1 0x14 PUSH2 0x100 EXP DUP2 SLOAD SWAP1 PUSH1 0xFF MUL NOT AND SWAP1 SSTORE PUSH1 0x1 DUP3 ADD PUSH1 0x15 PUSH2 0x100 EXP DUP2 SLOAD SWAP1 PUSH1 0xFF MUL NOT AND SWAP1 SSTORE PUSH1 0x2 DUP3 ADD PUSH1 0x0 SWAP1 SSTORE POP POP PUSH1 0x0 PUSH1 0x7 PUSH1 0x0 DUP7 DUP2 MSTORE PUSH1 0x20 ADD SWAP1 DUP2 MSTORE PUSH1 0x20 ADD PUSH1 0x0 KECCAK256 DUP2 SWAP1 SSTORE POP PUSH1 0x6 PUSH1 0x0 DUP6 DUP2 MSTORE PUSH1 0x20 ADD SWAP1 DUP2 MSTORE PUSH1 0x20 ADD PUSH1 0x0 KECCAK256 PUSH1 0x1 ADD PUSH1 0x0 SWAP1 SLOAD SWAP1 PUSH2 0x100 EXP SWAP1 DIV PUSH20 0xFFFFFFFFFFFFFFFFFFFFFFFFFFFFFFFFFFFFFFFF AND PUSH20 0xFFFFFFFFFFFFFFFFFFFFFFFFFFFFFFFFFFFFFFFF AND DUP5 PUSH32 0xFBB617A7E150D13B66C2A6E1A6C97BDC657646BC0140F27ECD9D01F221286735 PUSH1 0x1 PUSH1 0x0 SWAP1 SLOAD SWAP1 PUSH2 0x100 EXP SWAP1 DIV PUSH20 0xFFFFFFFFFFFFFFFFFFFFFFFFFFFFFFFFFFFFFFFF AND PUSH1 0x2 PUSH1 0x0 SWAP1 SLOAD SWAP1 PUSH2 0x100 EXP SWAP1 DIV PUSH20 0xFFFFFFFFFFFFFFFFFFFFFFFFFFFFFFFFFFFFFFFF AND PUSH1 0x40 MLOAD PUSH2 0x25A5 SWAP3 SWAP2 SWAP1 PUSH2 0x54D4 JUMP JUMPDEST PUSH1 0x40 MLOAD DUP1 SWAP2 SUB SWAP1 LOG3 PUSH1 0x6 PUSH1 0x0 DUP6 DUP2 MSTORE PUSH1 0x20 ADD SWAP1 DUP2 MSTORE PUSH1 0x20 ADD PUSH1 0x0 KECCAK256 PUSH1 0x1 ADD PUSH1 0x0 SWAP1 SLOAD SWAP1 PUSH2 0x100 EXP SWAP1 DIV PUSH20 0xFFFFFFFFFFFFFFFFFFFFFFFFFFFFFFFFFFFFFFFF AND PUSH20 0xFFFFFFFFFFFFFFFFFFFFFFFFFFFFFFFFFFFFFFFF AND DUP5 PUSH32 0x656784E03A7C385A876628902E43D42B36F34918046DFFA661230A9DAD4E7BA4 PUSH1 0x1 PUSH1 0x0 SWAP1 SLOAD SWAP1 PUSH2 0x100 EXP SWAP1 DIV PUSH20 0xFFFFFFFFFFFFFFFFFFFFFFFFFFFFFFFFFFFFFFFF AND PUSH1 0x2 PUSH1 0x0 SWAP1 SLOAD SWAP1 PUSH2 0x100 EXP SWAP1 DIV PUSH20 0xFFFFFFFFFFFFFFFFFFFFFFFFFFFFFFFFFFFFFFFF AND PUSH1 0x40 MLOAD PUSH2 0x2670 SWAP3 SWAP2 SWAP1 PUSH2 0x54D4 JUMP JUMPDEST PUSH1 0x40 MLOAD DUP1 SWAP2 SUB SWAP1 LOG3 POP POP SWAP2 SWAP1 POP JUMP JUMPDEST PUSH1 0x1 PUSH1 0x8 DUP2 SWAP1 SSTORE POP JUMP JUMPDEST PUSH1 0x0 DUP1 PUSH1 0x1 DUP6 PUSH1 0xFF AND SUB PUSH2 0x2E76 JUMPI PUSH1 0x0 PUSH1 0x9 PUSH1 0x0 PUSH1 0x9 PUSH1 0x0 DUP1 DUP2 MSTORE PUSH1 0x20 ADD SWAP1 DUP2 MSTORE PUSH1 0x20 ADD PUSH1 0x0 KECCAK256 PUSH1 0x2 ADD SLOAD DUP2 MSTORE PUSH1 0x20 ADD SWAP1 DUP2 MSTORE PUSH1 0x20 ADD PUSH1 0x0 KECCAK256 PUSH1 0x40 MLOAD DUP1 PUSH1 0x60 ADD PUSH1 0x40 MSTORE SWAP1 DUP2 PUSH1 0x0 DUP3 ADD SLOAD DUP2 MSTORE PUSH1 0x20 ADD PUSH1 0x1 DUP3 ADD SLOAD DUP2 MSTORE PUSH1 0x20 ADD PUSH1 0x2 DUP3 ADD SLOAD DUP2 MSTORE POP POP SWAP1 POP JUMPDEST PUSH1 0x0 DUP2 PUSH1 0x0 ADD MLOAD EQ ISZERO DUP1 ISZERO PUSH2 0x2716 JUMPI POP PUSH1 0x0 DUP6 PUSH16 0xFFFFFFFFFFFFFFFFFFFFFFFFFFFFFFFF AND EQ ISZERO JUMPDEST ISZERO PUSH2 0x2E70 JUMPI PUSH1 0x1 DUP8 PUSH1 0xFF AND SUB PUSH2 0x2BB0 JUMPI PUSH1 0x1 PUSH1 0x6 PUSH1 0x0 DUP4 PUSH1 0x0 ADD MLOAD DUP2 MSTORE PUSH1 0x20 ADD SWAP1 DUP2 MSTORE PUSH1 0x20 ADD PUSH1 0x0 KECCAK256 PUSH1 0x1 ADD PUSH1 0x15 SWAP1 SLOAD SWAP1 PUSH2 0x100 EXP SWAP1 DIV PUSH1 0xFF AND PUSH1 0xFF AND SUB PUSH2 0x2999 JUMPI PUSH1 0x6 PUSH1 0x0 DUP3 PUSH1 0x0 ADD MLOAD DUP2 MSTORE PUSH1 0x20 ADD SWAP1 DUP2 MSTORE PUSH1 0x20 ADD PUSH1 0x0 KECCAK256 PUSH1 0x2 ADD SLOAD DUP9 LT PUSH2 0x298F JUMPI DUP8 PUSH7 0x38D7EA4C68000 DUP7 PUSH16 0xFFFFFFFFFFFFFFFFFFFFFFFFFFFFFFFF AND PUSH2 0x279F SWAP2 SWAP1 PUSH2 0x5622 JUMP JUMPDEST PUSH2 0x27A9 SWAP2 SWAP1 PUSH2 0x5664 JUMP JUMPDEST SWAP4 POP PUSH1 0x0 PUSH1 0x6 PUSH1 0x0 DUP4 PUSH1 0x0 ADD MLOAD DUP2 MSTORE PUSH1 0x20 ADD SWAP1 DUP2 MSTORE PUSH1 0x20 ADD PUSH1 0x0 KECCAK256 PUSH1 0x0 ADD PUSH1 0x0 SWAP1 SLOAD SWAP1 PUSH2 0x100 EXP SWAP1 DIV PUSH16 0xFFFFFFFFFFFFFFFFFFFFFFFFFFFFFFFF AND PUSH16 0xFFFFFFFFFFFFFFFFFFFFFFFFFFFFFFFF AND DUP6 PUSH16 0xFFFFFFFFFFFFFFFFFFFFFFFFFFFFFFFF AND LT PUSH2 0x284A JUMPI PUSH1 0x6 PUSH1 0x0 DUP4 PUSH1 0x0 ADD MLOAD DUP2 MSTORE PUSH1 0x20 ADD SWAP1 DUP2 MSTORE PUSH1 0x20 ADD PUSH1 0x0 KECCAK256 PUSH1 0x0 ADD PUSH1 0x0 SWAP1 SLOAD SWAP1 PUSH2 0x100 EXP SWAP1 DIV PUSH16 0xFFFFFFFFFFFFFFFFFFFFFFFFFFFFFFFF AND PUSH2 0x284C JUMP JUMPDEST DUP5 JUMPDEST SWAP1 POP PUSH2 0x285C DUP3 PUSH1 0x0 ADD MLOAD DUP3 PUSH2 0x442C JUMP JUMPDEST ISZERO PUSH2 0x2932 JUMPI PUSH1 0x9 PUSH1 0x0 DUP4 PUSH1 0x0 ADD MLOAD DUP2 MSTORE PUSH1 0x20 ADD SWAP1 DUP2 MSTORE PUSH1 0x20 ADD PUSH1 0x0 KECCAK256 PUSH1 0x1 ADD SLOAD PUSH1 0x9 PUSH1 0x0 PUSH1 0x9 PUSH1 0x0 DUP7 PUSH1 0x0 ADD MLOAD DUP2 MSTORE PUSH1 0x20 ADD SWAP1 DUP2 MSTORE PUSH1 0x20 ADD PUSH1 0x0 KECCAK256 PUSH1 0x2 ADD SLOAD DUP2 MSTORE PUSH1 0x20 ADD SWAP1 DUP2 MSTORE PUSH1 0x20 ADD PUSH1 0x0 KECCAK256 PUSH1 0x1 ADD DUP2 SWAP1 SSTORE POP PUSH1 0x9 PUSH1 0x0 DUP4 PUSH1 0x0 ADD MLOAD DUP2 MSTORE PUSH1 0x20 ADD SWAP1 DUP2 MSTORE PUSH1 0x20 ADD PUSH1 0x0 KECCAK256 PUSH1 0x2 ADD SLOAD PUSH1 0x9 PUSH1 0x0 PUSH1 0x9 PUSH1 0x0 DUP7 PUSH1 0x0 ADD MLOAD DUP2 MSTORE PUSH1 0x20 ADD SWAP1 DUP2 MSTORE PUSH1 0x20 ADD PUSH1 0x0 KECCAK256 PUSH1 0x1 ADD SLOAD DUP2 MSTORE PUSH1 0x20 ADD SWAP1 DUP2 MSTORE PUSH1 0x20 ADD PUSH1 0x0 KECCAK256 PUSH1 0x2 ADD DUP2 SWAP1 SSTORE POP PUSH1 0x9 PUSH1 0x0 DUP4 PUSH1 0x0 ADD MLOAD DUP2 MSTORE PUSH1 0x20 ADD SWAP1 DUP2 MSTORE PUSH1 0x20 ADD PUSH1 0x0 KECCAK256 PUSH1 0x0 DUP1 DUP3 ADD PUSH1 0x0 SWAP1 SSTORE PUSH1 0x1 DUP3 ADD PUSH1 0x0 SWAP1 SSTORE PUSH1 0x2 DUP3 ADD PUSH1 0x0 SWAP1 SSTORE POP POP JUMPDEST PUSH7 0x38D7EA4C68000 PUSH1 0x6 PUSH1 0x0 DUP5 PUSH1 0x0 ADD MLOAD DUP2 MSTORE PUSH1 0x20 ADD SWAP1 DUP2 MSTORE PUSH1 0x20 ADD PUSH1 0x0 KECCAK256 PUSH1 0x2 ADD SLOAD DUP3 PUSH16 0xFFFFFFFFFFFFFFFFFFFFFFFFFFFFFFFF AND PUSH2 0x2972 SWAP2 SWAP1 PUSH2 0x5622 JUMP JUMPDEST PUSH2 0x297C SWAP2 SWAP1 PUSH2 0x5664 JUMP JUMPDEST DUP7 PUSH2 0x2987 SWAP2 SWAP1 PUSH2 0x5695 JUMP JUMPDEST SWAP6 POP POP PUSH2 0x2994 JUMP JUMPDEST PUSH2 0x2E70 JUMP JUMPDEST PUSH2 0x2BAB JUMP JUMPDEST DUP8 PUSH7 0x38D7EA4C68000 DUP7 PUSH16 0xFFFFFFFFFFFFFFFFFFFFFFFFFFFFFFFF AND PUSH2 0x29BF SWAP2 SWAP1 PUSH2 0x5622 JUMP JUMPDEST PUSH2 0x29C9 SWAP2 SWAP1 PUSH2 0x5664 JUMP JUMPDEST SWAP4 POP PUSH1 0x0 PUSH1 0x6 PUSH1 0x0 DUP4 PUSH1 0x0 ADD MLOAD DUP2 MSTORE PUSH1 0x20 ADD SWAP1 DUP2 MSTORE PUSH1 0x20 ADD PUSH1 0x0 KECCAK256 PUSH1 0x0 ADD PUSH1 0x0 SWAP1 SLOAD SWAP1 PUSH2 0x100 EXP SWAP1 DIV PUSH16 0xFFFFFFFFFFFFFFFFFFFFFFFFFFFFFFFF AND PUSH16 0xFFFFFFFFFFFFFFFFFFFFFFFFFFFFFFFF AND DUP6 PUSH16 0xFFFFFFFFFFFFFFFFFFFFFFFFFFFFFFFF AND LT PUSH2 0x2A6A JUMPI PUSH1 0x6 PUSH1 0x0 DUP4 PUSH1 0x0 ADD MLOAD DUP2 MSTORE PUSH1 0x20 ADD SWAP1 DUP2 MSTORE PUSH1 0x20 ADD PUSH1 0x0 KECCAK256 PUSH1 0x0 ADD PUSH1 0x0 SWAP1 SLOAD SWAP1 PUSH2 0x100 EXP SWAP1 DIV PUSH16 0xFFFFFFFFFFFFFFFFFFFFFFFFFFFFFFFF AND PUSH2 0x2A6C JUMP JUMPDEST DUP5 JUMPDEST SWAP1 POP PUSH2 0x2A7C DUP3 PUSH1 0x0 ADD MLOAD DUP3 PUSH2 0x442C JUMP JUMPDEST ISZERO PUSH2 0x2B52 JUMPI PUSH1 0x9 PUSH1 0x0 DUP4 PUSH1 0x0 ADD MLOAD DUP2 MSTORE PUSH1 0x20 ADD SWAP1 DUP2 MSTORE PUSH1 0x20 ADD PUSH1 0x0 KECCAK256 PUSH1 0x1 ADD SLOAD PUSH1 0x9 PUSH1 0x0 PUSH1 0x9 PUSH1 0x0 DUP7 PUSH1 0x0 ADD MLOAD DUP2 MSTORE PUSH1 0x20 ADD SWAP1 DUP2 MSTORE PUSH1 0x20 ADD PUSH1 0x0 KECCAK256 PUSH1 0x2 ADD SLOAD DUP2 MSTORE PUSH1 0x20 ADD SWAP1 DUP2 MSTORE PUSH1 0x20 ADD PUSH1 0x0 KECCAK256 PUSH1 0x1 ADD DUP2 SWAP1 SSTORE POP PUSH1 0x9 PUSH1 0x0 DUP4 PUSH1 0x0 ADD MLOAD DUP2 MSTORE PUSH1 0x20 ADD SWAP1 DUP2 MSTORE PUSH1 0x20 ADD PUSH1 0x0 KECCAK256 PUSH1 0x2 ADD SLOAD PUSH1 0x9 PUSH1 0x0 PUSH1 0x9 PUSH1 0x0 DUP7 PUSH1 0x0 ADD MLOAD DUP2 MSTORE PUSH1 0x20 ADD SWAP1 DUP2 MSTORE PUSH1 0x20 ADD PUSH1 0x0 KECCAK256 PUSH1 0x1 ADD SLOAD DUP2 MSTORE PUSH1 0x20 ADD SWAP1 DUP2 MSTORE PUSH1 0x20 ADD PUSH1 0x0 KECCAK256 PUSH1 0x2 ADD DUP2 SWAP1 SSTORE POP PUSH1 0x9 PUSH1 0x0 DUP4 PUSH1 0x0 ADD MLOAD DUP2 MSTORE PUSH1 0x20 ADD SWAP1 DUP2 MSTORE PUSH1 0x20 ADD PUSH1 0x0 KECCAK256 PUSH1 0x0 DUP1 DUP3 ADD PUSH1 0x0 SWAP1 SSTORE PUSH1 0x1 DUP3 ADD PUSH1 0x0 SWAP1 SSTORE PUSH1 0x2 DUP3 ADD PUSH1 0x0 SWAP1 SSTORE POP POP JUMPDEST PUSH1 0x6 PUSH1 0x0 DUP4 PUSH1 0x0 ADD MLOAD DUP2 MSTORE PUSH1 0x20 ADD SWAP1 DUP2 MSTORE PUSH1 0x20 ADD PUSH1 0x0 KECCAK256 PUSH1 0x2 ADD SLOAD PUSH7 0x38D7EA4C68000 DUP3 PUSH16 0xFFFFFFFFFFFFFFFFFFFFFFFFFFFFFFFF AND PUSH2 0x2B92 SWAP2 SWAP1 PUSH2 0x5622 JUMP JUMPDEST PUSH2 0x2B9C SWAP2 SWAP1 PUSH2 0x5664 JUMP JUMPDEST DUP7 PUSH2 0x2BA7 SWAP2 SWAP1 PUSH2 0x5695 JUMP JUMPDEST SWAP6 POP POP JUMPDEST PUSH2 0x2E29 JUMP JUMPDEST PUSH1 0x2 PUSH1 0x6 PUSH1 0x0 DUP4 PUSH1 0x0 ADD MLOAD DUP2 MSTORE PUSH1 0x20 ADD SWAP1 DUP2 MSTORE PUSH1 0x20 ADD PUSH1 0x0 KECCAK256 PUSH1 0x1 ADD PUSH1 0x15 SWAP1 SLOAD SWAP1 PUSH2 0x100 EXP SWAP1 DIV PUSH1 0xFF AND PUSH1 0xFF AND SUB PUSH2 0x2E23 JUMPI PUSH1 0x6 PUSH1 0x0 DUP3 PUSH1 0x0 ADD MLOAD DUP2 MSTORE PUSH1 0x20 ADD SWAP1 DUP2 MSTORE PUSH1 0x20 ADD PUSH1 0x0 KECCAK256 PUSH1 0x2 ADD SLOAD DUP9 GT PUSH2 0x2E19 JUMPI PUSH7 0x38D7EA4C68000 DUP9 DUP7 PUSH16 0xFFFFFFFFFFFFFFFFFFFFFFFFFFFFFFFF AND PUSH2 0x2C29 SWAP2 SWAP1 PUSH2 0x5622 JUMP JUMPDEST PUSH2 0x2C33 SWAP2 SWAP1 PUSH2 0x5664 JUMP JUMPDEST SWAP4 POP PUSH1 0x0 PUSH1 0x6 PUSH1 0x0 DUP4 PUSH1 0x0 ADD MLOAD DUP2 MSTORE PUSH1 0x20 ADD SWAP1 DUP2 MSTORE PUSH1 0x20 ADD PUSH1 0x0 KECCAK256 PUSH1 0x0 ADD PUSH1 0x0 SWAP1 SLOAD SWAP1 PUSH2 0x100 EXP SWAP1 DIV PUSH16 0xFFFFFFFFFFFFFFFFFFFFFFFFFFFFFFFF AND PUSH16 0xFFFFFFFFFFFFFFFFFFFFFFFFFFFFFFFF AND DUP6 PUSH16 0xFFFFFFFFFFFFFFFFFFFFFFFFFFFFFFFF AND LT PUSH2 0x2CD4 JUMPI PUSH1 0x6 PUSH1 0x0 DUP4 PUSH1 0x0 ADD MLOAD DUP2 MSTORE PUSH1 0x20 ADD SWAP1 DUP2 MSTORE PUSH1 0x20 ADD PUSH1 0x0 KECCAK256 PUSH1 0x0 ADD PUSH1 0x0 SWAP1 SLOAD SWAP1 PUSH2 0x100 EXP SWAP1 DIV PUSH16 0xFFFFFFFFFFFFFFFFFFFFFFFFFFFFFFFF AND PUSH2 0x2CD6 JUMP JUMPDEST DUP5 JUMPDEST SWAP1 POP PUSH2 0x2CE6 DUP3 PUSH1 0x0 ADD MLOAD DUP3 PUSH2 0x442C JUMP JUMPDEST ISZERO PUSH2 0x2DBC JUMPI PUSH1 0x9 PUSH1 0x0 DUP4 PUSH1 0x0 ADD MLOAD DUP2 MSTORE PUSH1 0x20 ADD SWAP1 DUP2 MSTORE PUSH1 0x20 ADD PUSH1 0x0 KECCAK256 PUSH1 0x1 ADD SLOAD PUSH1 0x9 PUSH1 0x0 PUSH1 0x9 PUSH1 0x0 DUP7 PUSH1 0x0 ADD MLOAD DUP2 MSTORE PUSH1 0x20 ADD SWAP1 DUP2 MSTORE PUSH1 0x20 ADD PUSH1 0x0 KECCAK256 PUSH1 0x2 ADD SLOAD DUP2 MSTORE PUSH1 0x20 ADD SWAP1 DUP2 MSTORE PUSH1 0x20 ADD PUSH1 0x0 KECCAK256 PUSH1 0x1 ADD DUP2 SWAP1 SSTORE POP PUSH1 0x9 PUSH1 0x0 DUP4 PUSH1 0x0 ADD MLOAD DUP2 MSTORE PUSH1 0x20 ADD SWAP1 DUP2 MSTORE PUSH1 0x20 ADD PUSH1 0x0 KECCAK256 PUSH1 0x2 ADD SLOAD PUSH1 0x9 PUSH1 0x0 PUSH1 0x9 PUSH1 0x0 DUP7 PUSH1 0x0 ADD MLOAD DUP2 MSTORE PUSH1 0x20 ADD SWAP1 DUP2 MSTORE PUSH1 0x20 ADD PUSH1 0x0 KECCAK256 PUSH1 0x1 ADD SLOAD DUP2 MSTORE PUSH1 0x20 ADD SWAP1 DUP2 MSTORE PUSH1 0x20 ADD PUSH1 0x0 KECCAK256 PUSH1 0x2 ADD DUP2 SWAP1 SSTORE POP PUSH1 0x9 PUSH1 0x0 DUP4 PUSH1 0x0 ADD MLOAD DUP2 MSTORE PUSH1 0x20 ADD SWAP1 DUP2 MSTORE PUSH1 0x20 ADD PUSH1 0x0 KECCAK256 PUSH1 0x0 DUP1 DUP3 ADD PUSH1 0x0 SWAP1 SSTORE PUSH1 0x1 DUP3 ADD PUSH1 0x0 SWAP1 SSTORE PUSH1 0x2 DUP3 ADD PUSH1 0x0 SWAP1 SSTORE POP POP JUMPDEST PUSH1 0x6 PUSH1 0x0 DUP4 PUSH1 0x0 ADD MLOAD DUP2 MSTORE PUSH1 0x20 ADD SWAP1 DUP2 MSTORE PUSH1 0x20 ADD PUSH1 0x0 KECCAK256 PUSH1 0x2 ADD SLOAD PUSH7 0x38D7EA4C68000 DUP3 PUSH16 0xFFFFFFFFFFFFFFFFFFFFFFFFFFFFFFFF AND PUSH2 0x2DFC SWAP2 SWAP1 PUSH2 0x5622 JUMP JUMPDEST PUSH2 0x2E06 SWAP2 SWAP1 PUSH2 0x5664 JUMP JUMPDEST DUP7 PUSH2 0x2E11 SWAP2 SWAP1 PUSH2 0x5695 JUMP JUMPDEST SWAP6 POP POP PUSH2 0x2E1E JUMP JUMPDEST PUSH2 0x2E70 JUMP JUMPDEST PUSH2 0x2E28 JUMP JUMPDEST PUSH2 0x2E70 JUMP JUMPDEST JUMPDEST PUSH1 0x9 PUSH1 0x0 DUP3 PUSH1 0x40 ADD MLOAD DUP2 MSTORE PUSH1 0x20 ADD SWAP1 DUP2 MSTORE PUSH1 0x20 ADD PUSH1 0x0 KECCAK256 PUSH1 0x40 MLOAD DUP1 PUSH1 0x60 ADD PUSH1 0x40 MSTORE SWAP1 DUP2 PUSH1 0x0 DUP3 ADD SLOAD DUP2 MSTORE PUSH1 0x20 ADD PUSH1 0x1 DUP3 ADD SLOAD DUP2 MSTORE PUSH1 0x20 ADD PUSH1 0x2 DUP3 ADD SLOAD DUP2 MSTORE POP POP SWAP1 POP PUSH2 0x26EE JUMP JUMPDEST POP PUSH2 0x3651 JUMP JUMPDEST PUSH1 0x0 PUSH1 0xA PUSH1 0x0 PUSH1 0xA PUSH1 0x0 DUP1 DUP2 MSTORE PUSH1 0x20 ADD SWAP1 DUP2 MSTORE PUSH1 0x20 ADD PUSH1 0x0 KECCAK256 PUSH1 0x2 ADD SLOAD DUP2 MSTORE PUSH1 0x20 ADD SWAP1 DUP2 MSTORE PUSH1 0x20 ADD PUSH1 0x0 KECCAK256 PUSH1 0x40 MLOAD DUP1 PUSH1 0x60 ADD PUSH1 0x40 MSTORE SWAP1 DUP2 PUSH1 0x0 DUP3 ADD SLOAD DUP2 MSTORE PUSH1 0x20 ADD PUSH1 0x1 DUP3 ADD SLOAD DUP2 MSTORE PUSH1 0x20 ADD PUSH1 0x2 DUP3 ADD SLOAD DUP2 MSTORE POP POP SWAP1 POP JUMPDEST PUSH1 0x0 DUP2 PUSH1 0x0 ADD MLOAD EQ ISZERO DUP1 ISZERO PUSH2 0x2EF5 JUMPI POP PUSH1 0x0 DUP5 PUSH16 0xFFFFFFFFFFFFFFFFFFFFFFFFFFFFFFFF AND EQ ISZERO JUMPDEST ISZERO PUSH2 0x364F JUMPI PUSH1 0x1 DUP8 PUSH1 0xFF AND SUB PUSH2 0x3182 JUMPI PUSH1 0x1 PUSH1 0x6 PUSH1 0x0 DUP4 PUSH1 0x0 ADD MLOAD DUP2 MSTORE PUSH1 0x20 ADD SWAP1 DUP2 MSTORE PUSH1 0x20 ADD PUSH1 0x0 KECCAK256 PUSH1 0x1 ADD PUSH1 0x15 SWAP1 SLOAD SWAP1 PUSH2 0x100 EXP SWAP1 DIV PUSH1 0xFF AND PUSH1 0xFF AND SUB PUSH2 0x3178 JUMPI PUSH1 0x6 PUSH1 0x0 DUP3 PUSH1 0x0 ADD MLOAD DUP2 MSTORE PUSH1 0x20 ADD SWAP1 DUP2 MSTORE PUSH1 0x20 ADD PUSH1 0x0 KECCAK256 PUSH1 0x2 ADD SLOAD DUP9 GT PUSH2 0x316E JUMPI PUSH7 0x38D7EA4C68000 DUP9 DUP6 PUSH16 0xFFFFFFFFFFFFFFFFFFFFFFFFFFFFFFFF AND PUSH2 0x2F7E SWAP2 SWAP1 PUSH2 0x5622 JUMP JUMPDEST PUSH2 0x2F88 SWAP2 SWAP1 PUSH2 0x5664 JUMP JUMPDEST SWAP5 POP PUSH1 0x0 PUSH1 0x6 PUSH1 0x0 DUP4 PUSH1 0x0 ADD MLOAD DUP2 MSTORE PUSH1 0x20 ADD SWAP1 DUP2 MSTORE PUSH1 0x20 ADD PUSH1 0x0 KECCAK256 PUSH1 0x0 ADD PUSH1 0x0 SWAP1 SLOAD SWAP1 PUSH2 0x100 EXP SWAP1 DIV PUSH16 0xFFFFFFFFFFFFFFFFFFFFFFFFFFFFFFFF AND PUSH16 0xFFFFFFFFFFFFFFFFFFFFFFFFFFFFFFFF AND DUP7 PUSH16 0xFFFFFFFFFFFFFFFFFFFFFFFFFFFFFFFF AND LT PUSH2 0x3029 JUMPI PUSH1 0x6 PUSH1 0x0 DUP4 PUSH1 0x0 ADD MLOAD DUP2 MSTORE PUSH1 0x20 ADD SWAP1 DUP2 MSTORE PUSH1 0x20 ADD PUSH1 0x0 KECCAK256 PUSH1 0x0 ADD PUSH1 0x0 SWAP1 SLOAD SWAP1 PUSH2 0x100 EXP SWAP1 DIV PUSH16 0xFFFFFFFFFFFFFFFFFFFFFFFFFFFFFFFF AND PUSH2 0x302B JUMP JUMPDEST DUP6 JUMPDEST SWAP1 POP PUSH2 0x303B DUP3 PUSH1 0x0 ADD MLOAD DUP3 PUSH2 0x442C JUMP JUMPDEST ISZERO PUSH2 0x3111 JUMPI PUSH1 0xA PUSH1 0x0 DUP4 PUSH1 0x0 ADD MLOAD DUP2 MSTORE PUSH1 0x20 ADD SWAP1 DUP2 MSTORE PUSH1 0x20 ADD PUSH1 0x0 KECCAK256 PUSH1 0x1 ADD SLOAD PUSH1 0xA PUSH1 0x0 PUSH1 0xA PUSH1 0x0 DUP7 PUSH1 0x0 ADD MLOAD DUP2 MSTORE PUSH1 0x20 ADD SWAP1 DUP2 MSTORE PUSH1 0x20 ADD PUSH1 0x0 KECCAK256 PUSH1 0x2 ADD SLOAD DUP2 MSTORE PUSH1 0x20 ADD SWAP1 DUP2 MSTORE PUSH1 0x20 ADD PUSH1 0x0 KECCAK256 PUSH1 0x1 ADD DUP2 SWAP1 SSTORE POP PUSH1 0xA PUSH1 0x0 DUP4 PUSH1 0x0 ADD MLOAD DUP2 MSTORE PUSH1 0x20 ADD SWAP1 DUP2 MSTORE PUSH1 0x20 ADD PUSH1 0x0 KECCAK256 PUSH1 0x2 ADD SLOAD PUSH1 0xA PUSH1 0x0 PUSH1 0xA PUSH1 0x0 DUP7 PUSH1 0x0 ADD MLOAD DUP2 MSTORE PUSH1 0x20 ADD SWAP1 DUP2 MSTORE PUSH1 0x20 ADD PUSH1 0x0 KECCAK256 PUSH1 0x1 ADD SLOAD DUP2 MSTORE PUSH1 0x20 ADD SWAP1 DUP2 MSTORE PUSH1 0x20 ADD PUSH1 0x0 KECCAK256 PUSH1 0x2 ADD DUP2 SWAP1 SSTORE POP PUSH1 0xA PUSH1 0x0 DUP4 PUSH1 0x0 ADD MLOAD DUP2 MSTORE PUSH1 0x20 ADD SWAP1 DUP2 MSTORE PUSH1 0x20 ADD PUSH1 0x0 KECCAK256 PUSH1 0x0 DUP1 DUP3 ADD PUSH1 0x0 SWAP1 SSTORE PUSH1 0x1 DUP3 ADD PUSH1 0x0 SWAP1 SSTORE PUSH1 0x2 DUP3 ADD PUSH1 0x0 SWAP1 SSTORE POP POP JUMPDEST PUSH1 0x6 PUSH1 0x0 DUP4 PUSH1 0x0 ADD MLOAD DUP2 MSTORE PUSH1 0x20 ADD SWAP1 DUP2 MSTORE PUSH1 0x20 ADD PUSH1 0x0 KECCAK256 PUSH1 0x2 ADD SLOAD PUSH7 0x38D7EA4C68000 DUP3 PUSH16 0xFFFFFFFFFFFFFFFFFFFFFFFFFFFFFFFF AND PUSH2 0x3151 SWAP2 SWAP1 PUSH2 0x5622 JUMP JUMPDEST PUSH2 0x315B SWAP2 SWAP1 PUSH2 0x5664 JUMP JUMPDEST DUP6 PUSH2 0x3166 SWAP2 SWAP1 PUSH2 0x5695 JUMP JUMPDEST SWAP5 POP POP PUSH2 0x3173 JUMP JUMPDEST PUSH2 0x364F JUMP JUMPDEST PUSH2 0x317D JUMP JUMPDEST PUSH2 0x364F JUMP JUMPDEST PUSH2 0x3608 JUMP JUMPDEST PUSH1 0x2 PUSH1 0x6 PUSH1 0x0 DUP4 PUSH1 0x0 ADD MLOAD DUP2 MSTORE PUSH1 0x20 ADD SWAP1 DUP2 MSTORE PUSH1 0x20 ADD PUSH1 0x0 KECCAK256 PUSH1 0x1 ADD PUSH1 0x15 SWAP1 SLOAD SWAP1 PUSH2 0x100 EXP SWAP1 DIV PUSH1 0xFF AND PUSH1 0xFF AND SUB PUSH2 0x33F5 JUMPI PUSH1 0x6 PUSH1 0x0 DUP3 PUSH1 0x0 ADD MLOAD DUP2 MSTORE PUSH1 0x20 ADD SWAP1 DUP2 MSTORE PUSH1 0x20 ADD PUSH1 0x0 KECCAK256 PUSH1 0x2 ADD SLOAD DUP9 LT PUSH2 0x33EB JUMPI DUP8 PUSH7 0x38D7EA4C68000 DUP6 PUSH16 0xFFFFFFFFFFFFFFFFFFFFFFFFFFFFFFFF AND PUSH2 0x31FB SWAP2 SWAP1 PUSH2 0x5622 JUMP JUMPDEST PUSH2 0x3205 SWAP2 SWAP1 PUSH2 0x5664 JUMP JUMPDEST SWAP5 POP PUSH1 0x0 PUSH1 0x6 PUSH1 0x0 DUP4 PUSH1 0x0 ADD MLOAD DUP2 MSTORE PUSH1 0x20 ADD SWAP1 DUP2 MSTORE PUSH1 0x20 ADD PUSH1 0x0 KECCAK256 PUSH1 0x0 ADD PUSH1 0x0 SWAP1 SLOAD SWAP1 PUSH2 0x100 EXP SWAP1 DIV PUSH16 0xFFFFFFFFFFFFFFFFFFFFFFFFFFFFFFFF AND PUSH16 0xFFFFFFFFFFFFFFFFFFFFFFFFFFFFFFFF AND DUP7 PUSH16 0xFFFFFFFFFFFFFFFFFFFFFFFFFFFFFFFF AND LT PUSH2 0x32A6 JUMPI PUSH1 0x6 PUSH1 0x0 DUP4 PUSH1 0x0 ADD MLOAD DUP2 MSTORE PUSH1 0x20 ADD SWAP1 DUP2 MSTORE PUSH1 0x20 ADD PUSH1 0x0 KECCAK256 PUSH1 0x0 ADD PUSH1 0x0 SWAP1 SLOAD SWAP1 PUSH2 0x100 EXP SWAP1 DIV PUSH16 0xFFFFFFFFFFFFFFFFFFFFFFFFFFFFFFFF AND PUSH2 0x32A8 JUMP JUMPDEST DUP6 JUMPDEST SWAP1 POP PUSH2 0x32B8 DUP3 PUSH1 0x0 ADD MLOAD DUP3 PUSH2 0x442C JUMP JUMPDEST ISZERO PUSH2 0x338E JUMPI PUSH1 0xA PUSH1 0x0 DUP4 PUSH1 0x0 ADD MLOAD DUP2 MSTORE PUSH1 0x20 ADD SWAP1 DUP2 MSTORE PUSH1 0x20 ADD PUSH1 0x0 KECCAK256 PUSH1 0x1 ADD SLOAD PUSH1 0xA PUSH1 0x0 PUSH1 0xA PUSH1 0x0 DUP7 PUSH1 0x0 ADD MLOAD DUP2 MSTORE PUSH1 0x20 ADD SWAP1 DUP2 MSTORE PUSH1 0x20 ADD PUSH1 0x0 KECCAK256 PUSH1 0x2 ADD SLOAD DUP2 MSTORE PUSH1 0x20 ADD SWAP1 DUP2 MSTORE PUSH1 0x20 ADD PUSH1 0x0 KECCAK256 PUSH1 0x1 ADD DUP2 SWAP1 SSTORE POP PUSH1 0xA PUSH1 0x0 DUP4 PUSH1 0x0 ADD MLOAD DUP2 MSTORE PUSH1 0x20 ADD SWAP1 DUP2 MSTORE PUSH1 0x20 ADD PUSH1 0x0 KECCAK256 PUSH1 0x2 ADD SLOAD PUSH1 0xA PUSH1 0x0 PUSH1 0xA PUSH1 0x0 DUP7 PUSH1 0x0 ADD MLOAD DUP2 MSTORE PUSH1 0x20 ADD SWAP1 DUP2 MSTORE PUSH1 0x20 ADD PUSH1 0x0 KECCAK256 PUSH1 0x1 ADD SLOAD DUP2 MSTORE PUSH1 0x20 ADD SWAP1 DUP2 MSTORE PUSH1 0x20 ADD PUSH1 0x0 KECCAK256 PUSH1 0x2 ADD DUP2 SWAP1 SSTORE POP PUSH1 0xA PUSH1 0x0 DUP4 PUSH1 0x0 ADD MLOAD DUP2 MSTORE PUSH1 0x20 ADD SWAP1 DUP2 MSTORE PUSH1 0x20 ADD PUSH1 0x0 KECCAK256 PUSH1 0x0 DUP1 DUP3 ADD PUSH1 0x0 SWAP1 SSTORE PUSH1 0x1 DUP3 ADD PUSH1 0x0 SWAP1 SSTORE PUSH1 0x2 DUP3 ADD PUSH1 0x0 SWAP1 SSTORE POP POP JUMPDEST PUSH7 0x38D7EA4C68000 PUSH1 0x6 PUSH1 0x0 DUP5 PUSH1 0x0 ADD MLOAD DUP2 MSTORE PUSH1 0x20 ADD SWAP1 DUP2 MSTORE PUSH1 0x20 ADD PUSH1 0x0 KECCAK256 PUSH1 0x2 ADD SLOAD DUP3 PUSH16 0xFFFFFFFFFFFFFFFFFFFFFFFFFFFFFFFF AND PUSH2 0x33CE SWAP2 SWAP1 PUSH2 0x5622 JUMP JUMPDEST PUSH2 0x33D8 SWAP2 SWAP1 PUSH2 0x5664 JUMP JUMPDEST DUP6 PUSH2 0x33E3 SWAP2 SWAP1 PUSH2 0x5695 JUMP JUMPDEST SWAP5 POP POP PUSH2 0x33F0 JUMP JUMPDEST PUSH2 0x364F JUMP JUMPDEST PUSH2 0x3607 JUMP JUMPDEST DUP8 PUSH7 0x38D7EA4C68000 DUP6 PUSH16 0xFFFFFFFFFFFFFFFFFFFFFFFFFFFFFFFF AND PUSH2 0x341B SWAP2 SWAP1 PUSH2 0x5622 JUMP JUMPDEST PUSH2 0x3425 SWAP2 SWAP1 PUSH2 0x5664 JUMP JUMPDEST SWAP5 POP PUSH1 0x0 PUSH1 0x6 PUSH1 0x0 DUP4 PUSH1 0x0 ADD MLOAD DUP2 MSTORE PUSH1 0x20 ADD SWAP1 DUP2 MSTORE PUSH1 0x20 ADD PUSH1 0x0 KECCAK256 PUSH1 0x0 ADD PUSH1 0x0 SWAP1 SLOAD SWAP1 PUSH2 0x100 EXP SWAP1 DIV PUSH16 0xFFFFFFFFFFFFFFFFFFFFFFFFFFFFFFFF AND PUSH16 0xFFFFFFFFFFFFFFFFFFFFFFFFFFFFFFFF AND DUP7 PUSH16 0xFFFFFFFFFFFFFFFFFFFFFFFFFFFFFFFF AND LT PUSH2 0x34C6 JUMPI PUSH1 0x6 PUSH1 0x0 DUP4 PUSH1 0x0 ADD MLOAD DUP2 MSTORE PUSH1 0x20 ADD SWAP1 DUP2 MSTORE PUSH1 0x20 ADD PUSH1 0x0 KECCAK256 PUSH1 0x0 ADD PUSH1 0x0 SWAP1 SLOAD SWAP1 PUSH2 0x100 EXP SWAP1 DIV PUSH16 0xFFFFFFFFFFFFFFFFFFFFFFFFFFFFFFFF AND PUSH2 0x34C8 JUMP JUMPDEST DUP6 JUMPDEST SWAP1 POP PUSH2 0x34D8 DUP3 PUSH1 0x0 ADD MLOAD DUP3 PUSH2 0x442C JUMP JUMPDEST ISZERO PUSH2 0x35AE JUMPI PUSH1 0xA PUSH1 0x0 DUP4 PUSH1 0x0 ADD MLOAD DUP2 MSTORE PUSH1 0x20 ADD SWAP1 DUP2 MSTORE PUSH1 0x20 ADD PUSH1 0x0 KECCAK256 PUSH1 0x1 ADD SLOAD PUSH1 0xA PUSH1 0x0 PUSH1 0xA PUSH1 0x0 DUP7 PUSH1 0x0 ADD MLOAD DUP2 MSTORE PUSH1 0x20 ADD SWAP1 DUP2 MSTORE PUSH1 0x20 ADD PUSH1 0x0 KECCAK256 PUSH1 0x2 ADD SLOAD DUP2 MSTORE PUSH1 0x20 ADD SWAP1 DUP2 MSTORE PUSH1 0x20 ADD PUSH1 0x0 KECCAK256 PUSH1 0x1 ADD DUP2 SWAP1 SSTORE POP PUSH1 0xA PUSH1 0x0 DUP4 PUSH1 0x0 ADD MLOAD DUP2 MSTORE PUSH1 0x20 ADD SWAP1 DUP2 MSTORE PUSH1 0x20 ADD PUSH1 0x0 KECCAK256 PUSH1 0x2 ADD SLOAD PUSH1 0xA PUSH1 0x0 PUSH1 0xA PUSH1 0x0 DUP7 PUSH1 0x0 ADD MLOAD DUP2 MSTORE PUSH1 0x20 ADD SWAP1 DUP2 MSTORE PUSH1 0x20 ADD PUSH1 0x0 KECCAK256 PUSH1 0x1 ADD SLOAD DUP2 MSTORE PUSH1 0x20 ADD SWAP1 DUP2 MSTORE PUSH1 0x20 ADD PUSH1 0x0 KECCAK256 PUSH1 0x2 ADD DUP2 SWAP1 SSTORE POP PUSH1 0xA PUSH1 0x0 DUP4 PUSH1 0x0 ADD MLOAD DUP2 MSTORE PUSH1 0x20 ADD SWAP1 DUP2 MSTORE PUSH1 0x20 ADD PUSH1 0x0 KECCAK256 PUSH1 0x0 DUP1 DUP3 ADD PUSH1 0x0 SWAP1 SSTORE PUSH1 0x1 DUP3 ADD PUSH1 0x0 SWAP1 SSTORE PUSH1 0x2 DUP3 ADD PUSH1 0x0 SWAP1 SSTORE POP POP JUMPDEST PUSH1 0x6 PUSH1 0x0 DUP4 PUSH1 0x0 ADD MLOAD DUP2 MSTORE PUSH1 0x20 ADD SWAP1 DUP2 MSTORE PUSH1 0x20 ADD PUSH1 0x0 KECCAK256 PUSH1 0x2 ADD SLOAD PUSH7 0x38D7EA4C68000 DUP3 PUSH16 0xFFFFFFFFFFFFFFFFFFFFFFFFFFFFFFFF AND PUSH2 0x35EE SWAP2 SWAP1 PUSH2 0x5622 JUMP JUMPDEST PUSH2 0x35F8 SWAP2 SWAP1 PUSH2 0x5664 JUMP JUMPDEST DUP6 PUSH2 0x3603 SWAP2 SWAP1 PUSH2 0x5695 JUMP JUMPDEST SWAP5 POP POP JUMPDEST JUMPDEST PUSH1 0xA PUSH1 0x0 DUP3 PUSH1 0x40 ADD MLOAD DUP2 MSTORE PUSH1 0x20 ADD SWAP1 DUP2 MSTORE PUSH1 0x20 ADD PUSH1 0x0 KECCAK256 PUSH1 0x40 MLOAD DUP1 PUSH1 0x60 ADD PUSH1 0x40 MSTORE SWAP1 DUP2 PUSH1 0x0 DUP3 ADD SLOAD DUP2 MSTORE PUSH1 0x20 ADD PUSH1 0x1 DUP3 ADD SLOAD DUP2 MSTORE PUSH1 0x20 ADD PUSH1 0x2 DUP3 ADD SLOAD DUP2 MSTORE POP POP SWAP1 POP PUSH2 0x2ECD JUMP JUMPDEST POP JUMPDEST DUP4 DUP4 SWAP2 POP SWAP2 POP SWAP6 POP SWAP6 SWAP4 POP POP POP POP JUMP JUMPDEST PUSH1 0x0 PUSH1 0x1 DUP3 PUSH1 0xFF AND GT ISZERO PUSH2 0x36A1 JUMPI PUSH1 0x40 MLOAD PUSH32 0xEEEEF12E00000000000000000000000000000000000000000000000000000000 DUP2 MSTORE PUSH1 0x4 ADD PUSH1 0x40 MLOAD DUP1 SWAP2 SUB SWAP1 REVERT JUMPDEST PUSH1 0x0 DUP7 PUSH16 0xFFFFFFFFFFFFFFFFFFFFFFFFFFFFFFFF AND EQ DUP1 PUSH2 0x36D4 JUMPI POP PUSH1 0x0 DUP6 PUSH16 0xFFFFFFFFFFFFFFFFFFFFFFFFFFFFFFFF AND EQ JUMPDEST ISZERO PUSH2 0x370B JUMPI PUSH1 0x40 MLOAD PUSH32 0x82C4A8C900000000000000000000000000000000000000000000000000000000 DUP2 MSTORE PUSH1 0x4 ADD PUSH1 0x40 MLOAD DUP1 SWAP2 SUB SWAP1 REVERT JUMPDEST PUSH2 0x3713 PUSH2 0x5038 JUMP JUMPDEST PUSH1 0x1 DUP4 PUSH1 0xFF AND SUB PUSH2 0x386D JUMPI PUSH1 0x1 PUSH1 0x0 SWAP1 SLOAD SWAP1 PUSH2 0x100 EXP SWAP1 DIV PUSH20 0xFFFFFFFFFFFFFFFFFFFFFFFFFFFFFFFFFFFFFFFF AND PUSH20 0xFFFFFFFFFFFFFFFFFFFFFFFFFFFFFFFFFFFFFFFF AND PUSH4 0x23B872DD CALLER ADDRESS DUP11 PUSH16 0xFFFFFFFFFFFFFFFFFFFFFFFFFFFFFFFF AND PUSH1 0x40 MLOAD DUP5 PUSH4 0xFFFFFFFF AND PUSH1 0xE0 SHL DUP2 MSTORE PUSH1 0x4 ADD PUSH2 0x378F SWAP4 SWAP3 SWAP2 SWAP1 PUSH2 0x58A7 JUMP JUMPDEST PUSH1 0x20 PUSH1 0x40 MLOAD DUP1 DUP4 SUB DUP2 PUSH1 0x0 DUP8 GAS CALL ISZERO DUP1 ISZERO PUSH2 0x37AE JUMPI RETURNDATASIZE PUSH1 0x0 DUP1 RETURNDATACOPY RETURNDATASIZE PUSH1 0x0 REVERT JUMPDEST POP POP POP POP PUSH1 0x40 MLOAD RETURNDATASIZE PUSH1 0x1F NOT PUSH1 0x1F DUP3 ADD AND DUP3 ADD DUP1 PUSH1 0x40 MSTORE POP DUP2 ADD SWAP1 PUSH2 0x37D2 SWAP2 SWAP1 PUSH2 0x587A JUMP JUMPDEST PUSH2 0x3808 JUMPI PUSH1 0x40 MLOAD PUSH32 0xBDC9548300000000000000000000000000000000000000000000000000000000 DUP2 MSTORE PUSH1 0x4 ADD PUSH1 0x40 MLOAD DUP1 SWAP2 SUB SWAP1 REVERT JUMPDEST DUP7 DUP2 PUSH1 0x0 ADD SWAP1 PUSH16 0xFFFFFFFFFFFFFFFFFFFFFFFFFFFFFFFF AND SWAP1 DUP2 PUSH16 0xFFFFFFFFFFFFFFFFFFFFFFFFFFFFFFFF AND DUP2 MSTORE POP POP DUP6 DUP2 PUSH1 0x20 ADD SWAP1 PUSH16 0xFFFFFFFFFFFFFFFFFFFFFFFFFFFFFFFF AND SWAP1 DUP2 PUSH16 0xFFFFFFFFFFFFFFFFFFFFFFFFFFFFFFFF AND DUP2 MSTORE POP POP PUSH2 0x39B8 JUMP JUMPDEST PUSH1 0x2 PUSH1 0x0 SWAP1 SLOAD SWAP1 PUSH2 0x100 EXP SWAP1 DIV PUSH20 0xFFFFFFFFFFFFFFFFFFFFFFFFFFFFFFFFFFFFFFFF AND PUSH20 0xFFFFFFFFFFFFFFFFFFFFFFFFFFFFFFFFFFFFFFFF AND PUSH4 0x23B872DD CALLER ADDRESS DUP10 PUSH16 0xFFFFFFFFFFFFFFFFFFFFFFFFFFFFFFFF AND PUSH1 0x40 MLOAD DUP5 PUSH4 0xFFFFFFFF AND PUSH1 0xE0 SHL DUP2 MSTORE PUSH1 0x4 ADD PUSH2 0x38DE SWAP4 SWAP3 SWAP2 SWAP1 PUSH2 0x58A7 JUMP JUMPDEST PUSH1 0x20 PUSH1 0x40 MLOAD DUP1 DUP4 SUB DUP2 PUSH1 0x0 DUP8 GAS CALL ISZERO DUP1 ISZERO PUSH2 0x38FD JUMPI RETURNDATASIZE PUSH1 0x0 DUP1 RETURNDATACOPY RETURNDATASIZE PUSH1 0x0 REVERT JUMPDEST POP POP POP POP PUSH1 0x40 MLOAD RETURNDATASIZE PUSH1 0x1F NOT PUSH1 0x1F DUP3 ADD AND DUP3 ADD DUP1 PUSH1 0x40 MSTORE POP DUP2 ADD SWAP1 PUSH2 0x3921 SWAP2 SWAP1 PUSH2 0x587A JUMP JUMPDEST PUSH2 0x3957 JUMPI PUSH1 0x40 MLOAD PUSH32 0xBDC9548300000000000000000000000000000000000000000000000000000000 DUP2 MSTORE PUSH1 0x4 ADD PUSH1 0x40 MLOAD DUP1 SWAP2 SUB SWAP1 REVERT JUMPDEST DUP6 DUP2 PUSH1 0x0 ADD SWAP1 PUSH16 0xFFFFFFFFFFFFFFFFFFFFFFFFFFFFFFFF AND SWAP1 DUP2 PUSH16 0xFFFFFFFFFFFFFFFFFFFFFFFFFFFFFFFF AND DUP2 MSTORE POP POP DUP7 DUP2 PUSH1 0x20 ADD SWAP1 PUSH16 0xFFFFFFFFFFFFFFFFFFFFFFFFFFFFFFFF AND SWAP1 DUP2 PUSH16 0xFFFFFFFFFFFFFFFFFFFFFFFFFFFFFFFF AND DUP2 MSTORE POP POP JUMPDEST CALLER DUP2 PUSH1 0x40 ADD SWAP1 PUSH20 0xFFFFFFFFFFFFFFFFFFFFFFFFFFFFFFFFFFFFFFFF AND SWAP1 DUP2 PUSH20 0xFFFFFFFFFFFFFFFFFFFFFFFFFFFFFFFFFFFFFFFF AND DUP2 MSTORE POP POP DUP3 DUP2 PUSH1 0x60 ADD SWAP1 PUSH1 0xFF AND SWAP1 DUP2 PUSH1 0xFF AND DUP2 MSTORE POP POP DUP5 DUP2 PUSH1 0xA0 ADD DUP2 DUP2 MSTORE POP POP DUP4 DUP2 PUSH1 0x80 ADD SWAP1 PUSH1 0xFF AND SWAP1 DUP2 PUSH1 0xFF AND DUP2 MSTORE POP POP PUSH1 0x5 PUSH1 0x0 DUP2 SLOAD PUSH2 0x3A2D SWAP1 PUSH2 0x58DE JUMP JUMPDEST SWAP2 SWAP1 POP DUP2 SWAP1 SSTORE SWAP2 POP DUP1 PUSH1 0x6 PUSH1 0x0 DUP5 DUP2 MSTORE PUSH1 0x20 ADD SWAP1 DUP2 MSTORE PUSH1 0x20 ADD PUSH1 0x0 KECCAK256 PUSH1 0x0 DUP3 ADD MLOAD DUP2 PUSH1 0x0 ADD PUSH1 0x0 PUSH2 0x100 EXP DUP2 SLOAD DUP2 PUSH16 0xFFFFFFFFFFFFFFFFFFFFFFFFFFFFFFFF MUL NOT AND SWAP1 DUP4 PUSH16 0xFFFFFFFFFFFFFFFFFFFFFFFFFFFFFFFF AND MUL OR SWAP1 SSTORE POP PUSH1 0x20 DUP3 ADD MLOAD DUP2 PUSH1 0x0 ADD PUSH1 0x10 PUSH2 0x100 EXP DUP2 SLOAD DUP2 PUSH16 0xFFFFFFFFFFFFFFFFFFFFFFFFFFFFFFFF MUL NOT AND SWAP1 DUP4 PUSH16 0xFFFFFFFFFFFFFFFFFFFFFFFFFFFFFFFF AND MUL OR SWAP1 SSTORE POP PUSH1 0x40 DUP3 ADD MLOAD DUP2 PUSH1 0x1 ADD PUSH1 0x0 PUSH2 0x100 EXP DUP2 SLOAD DUP2 PUSH20 0xFFFFFFFFFFFFFFFFFFFFFFFFFFFFFFFFFFFFFFFF MUL NOT AND SWAP1 DUP4 PUSH20 0xFFFFFFFFFFFFFFFFFFFFFFFFFFFFFFFFFFFFFFFF AND MUL OR SWAP1 SSTORE POP PUSH1 0x60 DUP3 ADD MLOAD DUP2 PUSH1 0x1 ADD PUSH1 0x14 PUSH2 0x100 EXP DUP2 SLOAD DUP2 PUSH1 0xFF MUL NOT AND SWAP1 DUP4 PUSH1 0xFF AND MUL OR SWAP1 SSTORE POP PUSH1 0x80 DUP3 ADD MLOAD DUP2 PUSH1 0x1 ADD PUSH1 0x15 PUSH2 0x100 EXP DUP2 SLOAD DUP2 PUSH1 0xFF MUL NOT AND SWAP1 DUP4 PUSH1 0xFF AND MUL OR SWAP1 SSTORE POP PUSH1 0xA0 DUP3 ADD MLOAD DUP2 PUSH1 0x2 ADD SSTORE SWAP1 POP POP PUSH1 0x1 PUSH1 0x7 PUSH1 0x0 DUP5 DUP2 MSTORE PUSH1 0x20 ADD SWAP1 DUP2 MSTORE PUSH1 0x20 ADD PUSH1 0x0 KECCAK256 DUP2 SWAP1 SSTORE POP CALLER PUSH20 0xFFFFFFFFFFFFFFFFFFFFFFFFFFFFFFFFFFFFFFFF AND DUP3 PUSH32 0x86A795D5B728822A49A78619D8BF7FEF97A37F2DD7341784EC2CA7496F803FF8 PUSH1 0x1 PUSH1 0x0 SWAP1 SLOAD SWAP1 PUSH2 0x100 EXP SWAP1 DIV PUSH20 0xFFFFFFFFFFFFFFFFFFFFFFFFFFFFFFFFFFFFFFFF AND PUSH1 0x2 PUSH1 0x0 SWAP1 SLOAD SWAP1 PUSH2 0x100 EXP SWAP1 DIV PUSH20 0xFFFFFFFFFFFFFFFFFFFFFFFFFFFFFFFFFFFFFFFF AND DUP8 DUP13 DUP13 PUSH1 0x40 MLOAD PUSH2 0x3C09 SWAP6 SWAP5 SWAP4 SWAP3 SWAP2 SWAP1 PUSH2 0x5926 JUMP JUMPDEST PUSH1 0x40 MLOAD DUP1 SWAP2 SUB SWAP1 LOG3 POP SWAP6 SWAP5 POP POP POP POP POP JUMP JUMPDEST PUSH1 0x0 DUP1 DUP3 PUSH1 0xFF AND SUB PUSH2 0x3E14 JUMPI PUSH1 0x0 PUSH1 0x9 PUSH1 0x0 PUSH1 0x9 PUSH1 0x0 DUP1 DUP2 MSTORE PUSH1 0x20 ADD SWAP1 DUP2 MSTORE PUSH1 0x20 ADD PUSH1 0x0 KECCAK256 PUSH1 0x2 ADD SLOAD DUP2 MSTORE PUSH1 0x20 ADD SWAP1 DUP2 MSTORE PUSH1 0x20 ADD PUSH1 0x0 KECCAK256 PUSH1 0x40 MLOAD DUP1 PUSH1 0x60 ADD PUSH1 0x40 MSTORE SWAP1 DUP2 PUSH1 0x0 DUP3 ADD SLOAD DUP2 MSTORE PUSH1 0x20 ADD PUSH1 0x1 DUP3 ADD SLOAD DUP2 MSTORE PUSH1 0x20 ADD PUSH1 0x2 DUP3 ADD SLOAD DUP2 MSTORE POP POP SWAP1 POP JUMPDEST PUSH1 0x0 DUP2 PUSH1 0x0 ADD MLOAD EQ PUSH2 0x3E0E JUMPI PUSH1 0x1 PUSH1 0x6 PUSH1 0x0 DUP4 PUSH1 0x0 ADD MLOAD DUP2 MSTORE PUSH1 0x20 ADD SWAP1 DUP2 MSTORE PUSH1 0x20 ADD PUSH1 0x0 KECCAK256 PUSH1 0x1 ADD PUSH1 0x15 SWAP1 SLOAD SWAP1 PUSH2 0x100 EXP SWAP1 DIV PUSH1 0xFF AND PUSH1 0xFF AND EQ DUP1 ISZERO PUSH2 0x3CC7 JUMPI POP PUSH1 0x1 DUP5 PUSH1 0xFF AND EQ JUMPDEST ISZERO PUSH2 0x3D00 JUMPI PUSH1 0x6 PUSH1 0x0 DUP3 PUSH1 0x0 ADD MLOAD DUP2 MSTORE PUSH1 0x20 ADD SWAP1 DUP2 MSTORE PUSH1 0x20 ADD PUSH1 0x0 KECCAK256 PUSH1 0x2 ADD SLOAD DUP6 LT ISZERO PUSH2 0x3CFB JUMPI DUP1 PUSH1 0x0 ADD MLOAD SWAP2 POP POP PUSH2 0x4002 JUMP JUMPDEST PUSH2 0x3DC7 JUMP JUMPDEST PUSH1 0x2 PUSH1 0x6 PUSH1 0x0 DUP4 PUSH1 0x0 ADD MLOAD DUP2 MSTORE PUSH1 0x20 ADD SWAP1 DUP2 MSTORE PUSH1 0x20 ADD PUSH1 0x0 KECCAK256 PUSH1 0x1 ADD PUSH1 0x15 SWAP1 SLOAD SWAP1 PUSH2 0x100 EXP SWAP1 DIV PUSH1 0xFF AND PUSH1 0xFF AND EQ DUP1 ISZERO PUSH2 0x3D3D JUMPI POP PUSH1 0x2 DUP5 PUSH1 0xFF AND EQ JUMPDEST ISZERO PUSH2 0x3D76 JUMPI PUSH1 0x6 PUSH1 0x0 DUP3 PUSH1 0x0 ADD MLOAD DUP2 MSTORE PUSH1 0x20 ADD SWAP1 DUP2 MSTORE PUSH1 0x20 ADD PUSH1 0x0 KECCAK256 PUSH1 0x2 ADD SLOAD DUP6 GT ISZERO PUSH2 0x3D71 JUMPI DUP1 PUSH1 0x0 ADD MLOAD SWAP2 POP POP PUSH2 0x4002 JUMP JUMPDEST PUSH2 0x3DC6 JUMP JUMPDEST PUSH1 0x1 PUSH1 0x6 PUSH1 0x0 DUP4 PUSH1 0x0 ADD MLOAD DUP2 MSTORE PUSH1 0x20 ADD SWAP1 DUP2 MSTORE PUSH1 0x20 ADD PUSH1 0x0 KECCAK256 PUSH1 0x1 ADD PUSH1 0x15 SWAP1 SLOAD SWAP1 PUSH2 0x100 EXP SWAP1 DIV PUSH1 0xFF AND PUSH1 0xFF AND EQ DUP1 ISZERO PUSH2 0x3DB3 JUMPI POP PUSH1 0x2 DUP5 PUSH1 0xFF AND EQ JUMPDEST ISZERO PUSH2 0x3DC5 JUMPI DUP1 PUSH1 0x0 ADD MLOAD SWAP2 POP POP PUSH2 0x4002 JUMP JUMPDEST JUMPDEST JUMPDEST PUSH1 0x9 PUSH1 0x0 DUP3 PUSH1 0x40 ADD MLOAD DUP2 MSTORE PUSH1 0x20 ADD SWAP1 DUP2 MSTORE PUSH1 0x20 ADD PUSH1 0x0 KECCAK256 PUSH1 0x40 MLOAD DUP1 PUSH1 0x60 ADD PUSH1 0x40 MSTORE SWAP1 DUP2 PUSH1 0x0 DUP3 ADD SLOAD DUP2 MSTORE PUSH1 0x20 ADD PUSH1 0x1 DUP3 ADD SLOAD DUP2 MSTORE PUSH1 0x20 ADD PUSH1 0x2 DUP3 ADD SLOAD DUP2 MSTORE POP POP SWAP1 POP PUSH2 0x3C7E JUMP JUMPDEST POP PUSH2 0x3FFD JUMP JUMPDEST PUSH1 0x0 PUSH1 0xA PUSH1 0x0 PUSH1 0xA PUSH1 0x0 DUP1 DUP2 MSTORE PUSH1 0x20 ADD SWAP1 DUP2 MSTORE PUSH1 0x20 ADD PUSH1 0x0 KECCAK256 PUSH1 0x2 ADD SLOAD DUP2 MSTORE PUSH1 0x20 ADD SWAP1 DUP2 MSTORE PUSH1 0x20 ADD PUSH1 0x0 KECCAK256 PUSH1 0x40 MLOAD DUP1 PUSH1 0x60 ADD PUSH1 0x40 MSTORE SWAP1 DUP2 PUSH1 0x0 DUP3 ADD SLOAD DUP2 MSTORE PUSH1 0x20 ADD PUSH1 0x1 DUP3 ADD SLOAD DUP2 MSTORE PUSH1 0x20 ADD PUSH1 0x2 DUP3 ADD SLOAD DUP2 MSTORE POP POP SWAP1 POP JUMPDEST PUSH1 0x0 DUP2 PUSH1 0x0 ADD MLOAD EQ PUSH2 0x3FFB JUMPI PUSH1 0x1 PUSH1 0x6 PUSH1 0x0 DUP4 PUSH1 0x0 ADD MLOAD DUP2 MSTORE PUSH1 0x20 ADD SWAP1 DUP2 MSTORE PUSH1 0x20 ADD PUSH1 0x0 KECCAK256 PUSH1 0x1 ADD PUSH1 0x15 SWAP1 SLOAD SWAP1 PUSH2 0x100 EXP SWAP1 DIV PUSH1 0xFF AND PUSH1 0xFF AND EQ DUP1 ISZERO PUSH2 0x3EB4 JUMPI POP PUSH1 0x1 DUP5 PUSH1 0xFF AND EQ JUMPDEST ISZERO PUSH2 0x3EED JUMPI PUSH1 0x6 PUSH1 0x0 DUP3 PUSH1 0x0 ADD MLOAD DUP2 MSTORE PUSH1 0x20 ADD SWAP1 DUP2 MSTORE PUSH1 0x20 ADD PUSH1 0x0 KECCAK256 PUSH1 0x2 ADD SLOAD DUP6 GT ISZERO PUSH2 0x3EE8 JUMPI DUP1 PUSH1 0x0 ADD MLOAD SWAP2 POP POP PUSH2 0x4002 JUMP JUMPDEST PUSH2 0x3FB4 JUMP JUMPDEST PUSH1 0x2 PUSH1 0x6 PUSH1 0x0 DUP4 PUSH1 0x0 ADD MLOAD DUP2 MSTORE PUSH1 0x20 ADD SWAP1 DUP2 MSTORE PUSH1 0x20 ADD PUSH1 0x0 KECCAK256 PUSH1 0x1 ADD PUSH1 0x15 SWAP1 SLOAD SWAP1 PUSH2 0x100 EXP SWAP1 DIV PUSH1 0xFF AND PUSH1 0xFF AND EQ DUP1 ISZERO PUSH2 0x3F2A JUMPI POP PUSH1 0x2 DUP5 PUSH1 0xFF AND EQ JUMPDEST ISZERO PUSH2 0x3F63 JUMPI PUSH1 0x6 PUSH1 0x0 DUP3 PUSH1 0x0 ADD MLOAD DUP2 MSTORE PUSH1 0x20 ADD SWAP1 DUP2 MSTORE PUSH1 0x20 ADD PUSH1 0x0 KECCAK256 PUSH1 0x2 ADD SLOAD DUP6 LT ISZERO PUSH2 0x3F5E JUMPI DUP1 PUSH1 0x0 ADD MLOAD SWAP2 POP POP PUSH2 0x4002 JUMP JUMPDEST PUSH2 0x3FB3 JUMP JUMPDEST PUSH1 0x2 PUSH1 0x6 PUSH1 0x0 DUP4 PUSH1 0x0 ADD MLOAD DUP2 MSTORE PUSH1 0x20 ADD SWAP1 DUP2 MSTORE PUSH1 0x20 ADD PUSH1 0x0 KECCAK256 PUSH1 0x1 ADD PUSH1 0x15 SWAP1 SLOAD SWAP1 PUSH2 0x100 EXP SWAP1 DIV PUSH1 0xFF AND PUSH1 0xFF AND EQ DUP1 ISZERO PUSH2 0x3FA0 JUMPI POP PUSH1 0x1 DUP5 PUSH1 0xFF AND EQ JUMPDEST ISZERO PUSH2 0x3FB2 JUMPI DUP1 PUSH1 0x0 ADD MLOAD SWAP2 POP POP PUSH2 0x4002 JUMP JUMPDEST JUMPDEST JUMPDEST PUSH1 0xA PUSH1 0x0 DUP3 PUSH1 0x40 ADD MLOAD DUP2 MSTORE PUSH1 0x20 ADD SWAP1 DUP2 MSTORE PUSH1 0x20 ADD PUSH1 0x0 KECCAK256 PUSH1 0x40 MLOAD DUP1 PUSH1 0x60 ADD PUSH1 0x40 MSTORE SWAP1 DUP2 PUSH1 0x0 DUP3 ADD SLOAD DUP2 MSTORE PUSH1 0x20 ADD PUSH1 0x1 DUP3 ADD SLOAD DUP2 MSTORE PUSH1 0x20 ADD PUSH1 0x2 DUP3 ADD SLOAD DUP2 MSTORE POP POP SWAP1 POP PUSH2 0x3E6B JUMP JUMPDEST POP JUMPDEST PUSH1 0x0 SWAP1 POP JUMPDEST SWAP4 SWAP3 POP POP POP JUMP JUMPDEST PUSH1 0x0 DUP2 PUSH1 0xFF AND SUB PUSH2 0x4118 JUMPI PUSH1 0x40 MLOAD DUP1 PUSH1 0x60 ADD PUSH1 0x40 MSTORE DUP1 DUP4 DUP2 MSTORE PUSH1 0x20 ADD PUSH1 0x0 DUP2 MSTORE PUSH1 0x20 ADD PUSH1 0x9 PUSH1 0x0 DUP1 DUP2 MSTORE PUSH1 0x20 ADD SWAP1 DUP2 MSTORE PUSH1 0x20 ADD PUSH1 0x0 KECCAK256 PUSH1 0x2 ADD SLOAD DUP2 MSTORE POP PUSH1 0x9 PUSH1 0x0 DUP5 DUP2 MSTORE PUSH1 0x20 ADD SWAP1 DUP2 MSTORE PUSH1 0x20 ADD PUSH1 0x0 KECCAK256 PUSH1 0x0 DUP3 ADD MLOAD DUP2 PUSH1 0x0 ADD SSTORE PUSH1 0x20 DUP3 ADD MLOAD DUP2 PUSH1 0x1 ADD SSTORE PUSH1 0x40 DUP3 ADD MLOAD DUP2 PUSH1 0x2 ADD SSTORE SWAP1 POP POP DUP2 PUSH1 0x9 PUSH1 0x0 PUSH1 0x9 PUSH1 0x0 DUP1 DUP2 MSTORE PUSH1 0x20 ADD SWAP1 DUP2 MSTORE PUSH1 0x20 ADD PUSH1 0x0 KECCAK256 PUSH1 0x2 ADD SLOAD DUP2 MSTORE PUSH1 0x20 ADD SWAP1 DUP2 MSTORE PUSH1 0x20 ADD PUSH1 0x0 KECCAK256 PUSH1 0x1 ADD DUP2 SWAP1 SSTORE POP PUSH1 0x9 PUSH1 0x0 DUP1 DUP2 MSTORE PUSH1 0x20 ADD SWAP1 DUP2 MSTORE PUSH1 0x20 ADD PUSH1 0x0 KECCAK256 PUSH1 0x2 ADD SLOAD PUSH1 0x9 PUSH1 0x0 DUP5 DUP2 MSTORE PUSH1 0x20 ADD SWAP1 DUP2 MSTORE PUSH1 0x20 ADD PUSH1 0x0 KECCAK256 PUSH1 0x2 ADD DUP2 SWAP1 SSTORE POP DUP2 PUSH1 0x9 PUSH1 0x0 DUP1 DUP2 MSTORE PUSH1 0x20 ADD SWAP1 DUP2 MSTORE PUSH1 0x20 ADD PUSH1 0x0 KECCAK256 PUSH1 0x2 ADD DUP2 SWAP1 SSTORE POP PUSH1 0x0 PUSH1 0x9 PUSH1 0x0 DUP5 DUP2 MSTORE PUSH1 0x20 ADD SWAP1 DUP2 MSTORE PUSH1 0x20 ADD PUSH1 0x0 KECCAK256 PUSH1 0x1 ADD DUP2 SWAP1 SSTORE POP PUSH2 0x4218 JUMP JUMPDEST PUSH1 0x40 MLOAD DUP1 PUSH1 0x60 ADD PUSH1 0x40 MSTORE DUP1 DUP4 DUP2 MSTORE PUSH1 0x20 ADD PUSH1 0x0 DUP2 MSTORE PUSH1 0x20 ADD PUSH1 0xA PUSH1 0x0 DUP1 DUP2 MSTORE PUSH1 0x20 ADD SWAP1 DUP2 MSTORE PUSH1 0x20 ADD PUSH1 0x0 KECCAK256 PUSH1 0x2 ADD SLOAD DUP2 MSTORE POP PUSH1 0xA PUSH1 0x0 DUP5 DUP2 MSTORE PUSH1 0x20 ADD SWAP1 DUP2 MSTORE PUSH1 0x20 ADD PUSH1 0x0 KECCAK256 PUSH1 0x0 DUP3 ADD MLOAD DUP2 PUSH1 0x0 ADD SSTORE PUSH1 0x20 DUP3 ADD MLOAD DUP2 PUSH1 0x1 ADD SSTORE PUSH1 0x40 DUP3 ADD MLOAD DUP2 PUSH1 0x2 ADD SSTORE SWAP1 POP POP DUP2 PUSH1 0xA PUSH1 0x0 PUSH1 0xA PUSH1 0x0 DUP1 DUP2 MSTORE PUSH1 0x20 ADD SWAP1 DUP2 MSTORE PUSH1 0x20 ADD PUSH1 0x0 KECCAK256 PUSH1 0x2 ADD SLOAD DUP2 MSTORE PUSH1 0x20 ADD SWAP1 DUP2 MSTORE PUSH1 0x20 ADD PUSH1 0x0 KECCAK256 PUSH1 0x1 ADD DUP2 SWAP1 SSTORE POP PUSH1 0xA PUSH1 0x0 DUP1 DUP2 MSTORE PUSH1 0x20 ADD SWAP1 DUP2 MSTORE PUSH1 0x20 ADD PUSH1 0x0 KECCAK256 PUSH1 0x2 ADD SLOAD PUSH1 0xA PUSH1 0x0 DUP5 DUP2 MSTORE PUSH1 0x20 ADD SWAP1 DUP2 MSTORE PUSH1 0x20 ADD PUSH1 0x0 KECCAK256 PUSH1 0x2 ADD DUP2 SWAP1 SSTORE POP DUP2 PUSH1 0xA PUSH1 0x0 DUP1 DUP2 MSTORE PUSH1 0x20 ADD SWAP1 DUP2 MSTORE PUSH1 0x20 ADD PUSH1 0x0 KECCAK256 PUSH1 0x2 ADD DUP2 SWAP1 SSTORE POP PUSH1 0x0 PUSH1 0xA PUSH1 0x0 DUP5 DUP2 MSTORE PUSH1 0x20 ADD SWAP1 DUP2 MSTORE PUSH1 0x20 ADD PUSH1 0x0 KECCAK256 PUSH1 0x1 ADD DUP2 SWAP1 SSTORE POP JUMPDEST POP POP JUMP JUMPDEST PUSH1 0x0 DUP2 PUSH1 0xFF AND SUB PUSH2 0x4329 JUMPI PUSH1 0x40 MLOAD DUP1 PUSH1 0x60 ADD PUSH1 0x40 MSTORE DUP1 DUP4 DUP2 MSTORE PUSH1 0x20 ADD PUSH1 0x9 PUSH1 0x0 DUP7 DUP2 MSTORE PUSH1 0x20 ADD SWAP1 DUP2 MSTORE PUSH1 0x20 ADD PUSH1 0x0 KECCAK256 PUSH1 0x1 ADD SLOAD DUP2 MSTORE PUSH1 0x20 ADD DUP5 DUP2 MSTORE POP PUSH1 0x9 PUSH1 0x0 DUP5 DUP2 MSTORE PUSH1 0x20 ADD SWAP1 DUP2 MSTORE PUSH1 0x20 ADD PUSH1 0x0 KECCAK256 PUSH1 0x0 DUP3 ADD MLOAD DUP2 PUSH1 0x0 ADD SSTORE PUSH1 0x20 DUP3 ADD MLOAD DUP2 PUSH1 0x1 ADD SSTORE PUSH1 0x40 DUP3 ADD MLOAD DUP2 PUSH1 0x2 ADD SSTORE SWAP1 POP POP DUP2 PUSH1 0x9 PUSH1 0x0 PUSH1 0x9 PUSH1 0x0 DUP8 DUP2 MSTORE PUSH1 0x20 ADD SWAP1 DUP2 MSTORE PUSH1 0x20 ADD PUSH1 0x0 KECCAK256 PUSH1 0x1 ADD SLOAD DUP2 MSTORE PUSH1 0x20 ADD SWAP1 DUP2 MSTORE PUSH1 0x20 ADD PUSH1 0x0 KECCAK256 PUSH1 0x2 ADD DUP2 SWAP1 SSTORE POP PUSH1 0x9 PUSH1 0x0 DUP5 DUP2 MSTORE PUSH1 0x20 ADD SWAP1 DUP2 MSTORE PUSH1 0x20 ADD PUSH1 0x0 KECCAK256 PUSH1 0x1 ADD SLOAD PUSH1 0x9 PUSH1 0x0 DUP5 DUP2 MSTORE PUSH1 0x20 ADD SWAP1 DUP2 MSTORE PUSH1 0x20 ADD PUSH1 0x0 KECCAK256 PUSH1 0x1 ADD DUP2 SWAP1 SSTORE POP DUP3 PUSH1 0x9 PUSH1 0x0 DUP5 DUP2 MSTORE PUSH1 0x20 ADD SWAP1 DUP2 MSTORE PUSH1 0x20 ADD PUSH1 0x0 KECCAK256 PUSH1 0x2 ADD DUP2 SWAP1 SSTORE POP DUP2 PUSH1 0x9 PUSH1 0x0 DUP6 DUP2 MSTORE PUSH1 0x20 ADD SWAP1 DUP2 MSTORE PUSH1 0x20 ADD PUSH1 0x0 KECCAK256 PUSH1 0x1 ADD DUP2 SWAP1 SSTORE POP PUSH2 0x4427 JUMP JUMPDEST PUSH1 0x40 MLOAD DUP1 PUSH1 0x60 ADD PUSH1 0x40 MSTORE DUP1 DUP4 DUP2 MSTORE PUSH1 0x20 ADD PUSH1 0xA PUSH1 0x0 DUP7 DUP2 MSTORE PUSH1 0x20 ADD SWAP1 DUP2 MSTORE PUSH1 0x20 ADD PUSH1 0x0 KECCAK256 PUSH1 0x1 ADD SLOAD DUP2 MSTORE PUSH1 0x20 ADD DUP5 DUP2 MSTORE POP PUSH1 0xA PUSH1 0x0 DUP5 DUP2 MSTORE PUSH1 0x20 ADD SWAP1 DUP2 MSTORE PUSH1 0x20 ADD PUSH1 0x0 KECCAK256 PUSH1 0x0 DUP3 ADD MLOAD DUP2 PUSH1 0x0 ADD SSTORE PUSH1 0x20 DUP3 ADD MLOAD DUP2 PUSH1 0x1 ADD SSTORE PUSH1 0x40 DUP3 ADD MLOAD DUP2 PUSH1 0x2 ADD SSTORE SWAP1 POP POP DUP2 PUSH1 0xA PUSH1 0x0 PUSH1 0xA PUSH1 0x0 DUP8 DUP2 MSTORE PUSH1 0x20 ADD SWAP1 DUP2 MSTORE PUSH1 0x20 ADD PUSH1 0x0 KECCAK256 PUSH1 0x1 ADD SLOAD DUP2 MSTORE PUSH1 0x20 ADD SWAP1 DUP2 MSTORE PUSH1 0x20 ADD PUSH1 0x0 KECCAK256 PUSH1 0x2 ADD DUP2 SWAP1 SSTORE POP PUSH1 0xA PUSH1 0x0 DUP5 DUP2 MSTORE PUSH1 0x20 ADD SWAP1 DUP2 MSTORE PUSH1 0x20 ADD PUSH1 0x0 KECCAK256 PUSH1 0x1 ADD SLOAD PUSH1 0xA PUSH1 0x0 DUP5 DUP2 MSTORE PUSH1 0x20 ADD SWAP1 DUP2 MSTORE PUSH1 0x20 ADD PUSH1 0x0 KECCAK256 PUSH1 0x1 ADD DUP2 SWAP1 SSTORE POP DUP3 PUSH1 0xA PUSH1 0x0 DUP5 DUP2 MSTORE PUSH1 0x20 ADD SWAP1 DUP2 MSTORE PUSH1 0x20 ADD PUSH1 0x0 KECCAK256 PUSH1 0x2 ADD DUP2 SWAP1 SSTORE POP DUP2 PUSH1 0xA PUSH1 0x0 DUP6 DUP2 MSTORE PUSH1 0x20 ADD SWAP1 DUP2 MSTORE PUSH1 0x20 ADD PUSH1 0x0 KECCAK256 PUSH1 0x1 ADD DUP2 SWAP1 SSTORE POP JUMPDEST POP POP POP JUMP JUMPDEST PUSH1 0x0 DUP3 PUSH1 0x1 PUSH1 0x7 PUSH1 0x0 DUP4 DUP2 MSTORE PUSH1 0x20 ADD SWAP1 DUP2 MSTORE PUSH1 0x20 ADD PUSH1 0x0 KECCAK256 SLOAD EQ PUSH2 0x447C JUMPI PUSH1 0x40 MLOAD PUSH32 0xD4DBB56500000000000000000000000000000000000000000000000000000000 DUP2 MSTORE PUSH1 0x4 ADD PUSH1 0x40 MLOAD DUP1 SWAP2 SUB SWAP1 REVERT JUMPDEST PUSH1 0x0 DUP4 PUSH16 0xFFFFFFFFFFFFFFFFFFFFFFFFFFFFFFFF AND SUB PUSH2 0x44C8 JUMPI PUSH1 0x40 MLOAD PUSH32 0x42487D8700000000000000000000000000000000000000000000000000000000 DUP2 MSTORE PUSH1 0x4 ADD PUSH1 0x40 MLOAD DUP1 SWAP2 SUB SWAP1 REVERT JUMPDEST PUSH1 0x0 PUSH1 0x6 PUSH1 0x0 DUP7 DUP2 MSTORE PUSH1 0x20 ADD SWAP1 DUP2 MSTORE PUSH1 0x20 ADD PUSH1 0x0 KECCAK256 PUSH1 0x40 MLOAD DUP1 PUSH1 0xC0 ADD PUSH1 0x40 MSTORE SWAP1 DUP2 PUSH1 0x0 DUP3 ADD PUSH1 0x0 SWAP1 SLOAD SWAP1 PUSH2 0x100 EXP SWAP1 DIV PUSH16 0xFFFFFFFFFFFFFFFFFFFFFFFFFFFFFFFF AND PUSH16 0xFFFFFFFFFFFFFFFFFFFFFFFFFFFFFFFF AND PUSH16 0xFFFFFFFFFFFFFFFFFFFFFFFFFFFFFFFF AND DUP2 MSTORE PUSH1 0x20 ADD PUSH1 0x0 DUP3 ADD PUSH1 0x10 SWAP1 SLOAD SWAP1 PUSH2 0x100 EXP SWAP1 DIV PUSH16 0xFFFFFFFFFFFFFFFFFFFFFFFFFFFFFFFF AND PUSH16 0xFFFFFFFFFFFFFFFFFFFFFFFFFFFFFFFF AND PUSH16 0xFFFFFFFFFFFFFFFFFFFFFFFFFFFFFFFF AND DUP2 MSTORE PUSH1 0x20 ADD PUSH1 0x1 DUP3 ADD PUSH1 0x0 SWAP1 SLOAD SWAP1 PUSH2 0x100 EXP SWAP1 DIV PUSH20 0xFFFFFFFFFFFFFFFFFFFFFFFFFFFFFFFFFFFFFFFF AND PUSH20 0xFFFFFFFFFFFFFFFFFFFFFFFFFFFFFFFFFFFFFFFF AND PUSH20 0xFFFFFFFFFFFFFFFFFFFFFFFFFFFFFFFFFFFFFFFF AND DUP2 MSTORE PUSH1 0x20 ADD PUSH1 0x1 DUP3 ADD PUSH1 0x14 SWAP1 SLOAD SWAP1 PUSH2 0x100 EXP SWAP1 DIV PUSH1 0xFF AND PUSH1 0xFF AND PUSH1 0xFF AND DUP2 MSTORE PUSH1 0x20 ADD PUSH1 0x1 DUP3 ADD PUSH1 0x15 SWAP1 SLOAD SWAP1 PUSH2 0x100 EXP SWAP1 DIV PUSH1 0xFF AND PUSH1 0xFF AND PUSH1 0xFF AND DUP2 MSTORE PUSH1 0x20 ADD PUSH1 0x2 DUP3 ADD SLOAD DUP2 MSTORE POP POP SWAP1 POP DUP1 PUSH1 0x0 ADD MLOAD PUSH16 0xFFFFFFFFFFFFFFFFFFFFFFFFFFFFFFFF AND DUP5 PUSH16 0xFFFFFFFFFFFFFFFFFFFFFFFFFFFFFFFF AND GT ISZERO PUSH2 0x467A JUMPI PUSH1 0x40 MLOAD PUSH32 0x7D0884A000000000000000000000000000000000000000000000000000000000 DUP2 MSTORE PUSH1 0x4 ADD PUSH1 0x40 MLOAD DUP1 SWAP2 SUB SWAP1 REVERT JUMPDEST PUSH1 0x0 DUP2 PUSH1 0x0 ADD MLOAD DUP6 DUP4 PUSH1 0x20 ADD MLOAD PUSH2 0x4691 SWAP2 SWAP1 PUSH2 0x5585 JUMP JUMPDEST PUSH2 0x469B SWAP2 SWAP1 PUSH2 0x55F1 JUMP JUMPDEST SWAP1 POP PUSH1 0x0 PUSH2 0x2710 PUSH1 0x4 PUSH1 0x0 SWAP1 SLOAD SWAP1 PUSH2 0x100 EXP SWAP1 DIV PUSH16 0xFFFFFFFFFFFFFFFFFFFFFFFFFFFFFFFF AND DUP4 PUSH2 0x46CC SWAP2 SWAP1 PUSH2 0x5585 JUMP JUMPDEST PUSH2 0x46D6 SWAP2 SWAP1 PUSH2 0x55F1 JUMP JUMPDEST SWAP1 POP PUSH1 0x0 PUSH2 0x2710 PUSH1 0x4 PUSH1 0x10 SWAP1 SLOAD SWAP1 PUSH2 0x100 EXP SWAP1 DIV PUSH16 0xFFFFFFFFFFFFFFFFFFFFFFFFFFFFFFFF AND DUP5 PUSH2 0x4707 SWAP2 SWAP1 PUSH2 0x5585 JUMP JUMPDEST PUSH2 0x4711 SWAP2 SWAP1 PUSH2 0x55F1 JUMP JUMPDEST SWAP1 POP PUSH1 0x0 DUP1 PUSH1 0x1 DUP7 PUSH1 0x60 ADD MLOAD PUSH1 0xFF AND SUB PUSH2 0x4774 JUMPI PUSH1 0x1 PUSH1 0x0 SWAP1 SLOAD SWAP1 PUSH2 0x100 EXP SWAP1 DIV PUSH20 0xFFFFFFFFFFFFFFFFFFFFFFFFFFFFFFFFFFFFFFFF AND SWAP2 POP PUSH1 0x2 PUSH1 0x0 SWAP1 SLOAD SWAP1 PUSH2 0x100 EXP SWAP1 DIV PUSH20 0xFFFFFFFFFFFFFFFFFFFFFFFFFFFFFFFFFFFFFFFF AND SWAP1 POP PUSH2 0x47BF JUMP JUMPDEST PUSH1 0x2 PUSH1 0x0 SWAP1 SLOAD SWAP1 PUSH2 0x100 EXP SWAP1 DIV PUSH20 0xFFFFFFFFFFFFFFFFFFFFFFFFFFFFFFFFFFFFFFFF AND SWAP2 POP PUSH1 0x1 PUSH1 0x0 SWAP1 SLOAD SWAP1 PUSH2 0x100 EXP SWAP1 DIV PUSH20 0xFFFFFFFFFFFFFFFFFFFFFFFFFFFFFFFFFFFFFFFF AND SWAP1 POP JUMPDEST DUP1 PUSH20 0xFFFFFFFFFFFFFFFFFFFFFFFFFFFFFFFFFFFFFFFF AND PUSH4 0x23B872DD CALLER PUSH1 0x3 PUSH1 0x0 SWAP1 SLOAD SWAP1 PUSH2 0x100 EXP SWAP1 DIV PUSH20 0xFFFFFFFFFFFFFFFFFFFFFFFFFFFFFFFFFFFFFFFF AND DUP7 DUP9 PUSH2 0x480B SWAP2 SWAP1 PUSH2 0x5979 JUMP JUMPDEST PUSH1 0x40 MLOAD DUP5 PUSH4 0xFFFFFFFF AND PUSH1 0xE0 SHL DUP2 MSTORE PUSH1 0x4 ADD PUSH2 0x4829 SWAP4 SWAP3 SWAP2 SWAP1 PUSH2 0x59BD JUMP JUMPDEST PUSH1 0x20 PUSH1 0x40 MLOAD DUP1 DUP4 SUB DUP2 PUSH1 0x0 DUP8 GAS CALL ISZERO DUP1 ISZERO PUSH2 0x4848 JUMPI RETURNDATASIZE PUSH1 0x0 DUP1 RETURNDATACOPY RETURNDATASIZE PUSH1 0x0 REVERT JUMPDEST POP POP POP POP PUSH1 0x40 MLOAD RETURNDATASIZE PUSH1 0x1F NOT PUSH1 0x1F DUP3 ADD AND DUP3 ADD DUP1 PUSH1 0x40 MSTORE POP DUP2 ADD SWAP1 PUSH2 0x486C SWAP2 SWAP1 PUSH2 0x587A JUMP JUMPDEST PUSH2 0x48A2 JUMPI PUSH1 0x40 MLOAD PUSH32 0xF084E98F00000000000000000000000000000000000000000000000000000000 DUP2 MSTORE PUSH1 0x4 ADD PUSH1 0x40 MLOAD DUP1 SWAP2 SUB SWAP1 REVERT JUMPDEST DUP1 PUSH20 0xFFFFFFFFFFFFFFFFFFFFFFFFFFFFFFFFFFFFFFFF AND PUSH4 0x23B872DD CALLER DUP9 PUSH1 0x40 ADD MLOAD DUP7 DUP10 PUSH2 0x48D0 SWAP2 SWAP1 PUSH2 0x5695 JUMP JUMPDEST PUSH1 0x40 MLOAD DUP5 PUSH4 0xFFFFFFFF AND PUSH1 0xE0 SHL DUP2 MSTORE PUSH1 0x4 ADD PUSH2 0x48EE SWAP4 SWAP3 SWAP2 SWAP1 PUSH2 0x59BD JUMP JUMPDEST PUSH1 0x20 PUSH1 0x40 MLOAD DUP1 DUP4 SUB DUP2 PUSH1 0x0 DUP8 GAS CALL ISZERO DUP1 ISZERO PUSH2 0x490D JUMPI RETURNDATASIZE PUSH1 0x0 DUP1 RETURNDATACOPY RETURNDATASIZE PUSH1 0x0 REVERT JUMPDEST POP POP POP POP PUSH1 0x40 MLOAD RETURNDATASIZE PUSH1 0x1F NOT PUSH1 0x1F DUP3 ADD AND DUP3 ADD DUP1 PUSH1 0x40 MSTORE POP DUP2 ADD SWAP1 PUSH2 0x4931 SWAP2 SWAP1 PUSH2 0x587A JUMP JUMPDEST PUSH2 0x4967 JUMPI PUSH1 0x40 MLOAD PUSH32 0xCB03B46A00000000000000000000000000000000000000000000000000000000 DUP2 MSTORE PUSH1 0x4 ADD PUSH1 0x40 MLOAD DUP1 SWAP2 SUB SWAP1 REVERT JUMPDEST DUP2 PUSH20 0xFFFFFFFFFFFFFFFFFFFFFFFFFFFFFFFFFFFFFFFF AND PUSH4 0xA9059CBB CALLER DUP12 PUSH1 0x40 MLOAD DUP4 PUSH4 0xFFFFFFFF AND PUSH1 0xE0 SHL DUP2 MSTORE PUSH1 0x4 ADD PUSH2 0x49A2 SWAP3 SWAP2 SWAP1 PUSH2 0x5819 JUMP JUMPDEST PUSH1 0x20 PUSH1 0x40 MLOAD DUP1 DUP4 SUB DUP2 PUSH1 0x0 DUP8 GAS CALL ISZERO DUP1 ISZERO PUSH2 0x49C1 JUMPI RETURNDATASIZE PUSH1 0x0 DUP1 RETURNDATACOPY RETURNDATASIZE PUSH1 0x0 REVERT JUMPDEST POP POP POP POP PUSH1 0x40 MLOAD RETURNDATASIZE PUSH1 0x1F NOT PUSH1 0x1F DUP3 ADD AND DUP3 ADD DUP1 PUSH1 0x40 MSTORE POP DUP2 ADD SWAP1 PUSH2 0x49E5 SWAP2 SWAP1 PUSH2 0x587A JUMP JUMPDEST PUSH2 0x4A1B JUMPI PUSH1 0x40 MLOAD PUSH32 0x16E8BB8A00000000000000000000000000000000000000000000000000000000 DUP2 MSTORE PUSH1 0x4 ADD PUSH1 0x40 MLOAD DUP1 SWAP2 SUB SWAP1 REVERT JUMPDEST DUP9 PUSH1 0x6 PUSH1 0x0 DUP13 DUP2 MSTORE PUSH1 0x20 ADD SWAP1 DUP2 MSTORE PUSH1 0x20 ADD PUSH1 0x0 KECCAK256 PUSH1 0x0 ADD PUSH1 0x0 DUP3 DUP3 DUP3 SWAP1 SLOAD SWAP1 PUSH2 0x100 EXP SWAP1 DIV PUSH16 0xFFFFFFFFFFFFFFFFFFFFFFFFFFFFFFFF AND PUSH2 0x4A5C SWAP2 SWAP1 PUSH2 0x5695 JUMP JUMPDEST SWAP3 POP PUSH2 0x100 EXP DUP2 SLOAD DUP2 PUSH16 0xFFFFFFFFFFFFFFFFFFFFFFFFFFFFFFFF MUL NOT AND SWAP1 DUP4 PUSH16 0xFFFFFFFFFFFFFFFFFFFFFFFFFFFFFFFF AND MUL OR SWAP1 SSTORE POP DUP5 PUSH1 0x6 PUSH1 0x0 DUP13 DUP2 MSTORE PUSH1 0x20 ADD SWAP1 DUP2 MSTORE PUSH1 0x20 ADD PUSH1 0x0 KECCAK256 PUSH1 0x0 ADD PUSH1 0x10 DUP3 DUP3 DUP3 SWAP1 SLOAD SWAP1 PUSH2 0x100 EXP SWAP1 DIV PUSH16 0xFFFFFFFFFFFFFFFFFFFFFFFFFFFFFFFF AND PUSH2 0x4AD3 SWAP2 SWAP1 PUSH2 0x5695 JUMP JUMPDEST SWAP3 POP PUSH2 0x100 EXP DUP2 SLOAD DUP2 PUSH16 0xFFFFFFFFFFFFFFFFFFFFFFFFFFFFFFFF MUL NOT AND SWAP1 DUP4 PUSH16 0xFFFFFFFFFFFFFFFFFFFFFFFFFFFFFFFF AND MUL OR SWAP1 SSTORE POP CALLER PUSH20 0xFFFFFFFFFFFFFFFFFFFFFFFFFFFFFFFFFFFFFFFF AND DUP11 PUSH32 0xEB84FF1148208F015DBA6CCB3771CC0E015814BD59D80D36F64B67EAA22FF4C1 DUP4 DUP8 PUSH1 0x40 MLOAD PUSH2 0x4B52 SWAP3 SWAP2 SWAP1 PUSH2 0x59F4 JUMP JUMPDEST PUSH1 0x40 MLOAD DUP1 SWAP2 SUB SWAP1 LOG3 DUP6 PUSH1 0x40 ADD MLOAD PUSH20 0xFFFFFFFFFFFFFFFFFFFFFFFFFFFFFFFFFFFFFFFF AND DUP11 PUSH32 0x58C21B42B391AB18F3955F8E6B5335536433C7031F0168296BA8FD434AFEC437 DUP4 DUP7 PUSH1 0x40 MLOAD PUSH2 0x4BA7 SWAP3 SWAP2 SWAP1 PUSH2 0x59F4 JUMP JUMPDEST PUSH1 0x40 MLOAD DUP1 SWAP2 SUB SWAP1 LOG3 PUSH1 0x1 DUP7 PUSH1 0x60 ADD MLOAD PUSH1 0xFF AND SUB PUSH2 0x4C7D JUMPI CALLER PUSH20 0xFFFFFFFFFFFFFFFFFFFFFFFFFFFFFFFFFFFFFFFF AND DUP7 PUSH1 0x40 ADD MLOAD PUSH20 0xFFFFFFFFFFFFFFFFFFFFFFFFFFFFFFFFFFFFFFFF AND DUP12 PUSH32 0x213A768CA16CA5431F28672DED8EDF0C6E0F9BD35A9BDE17E5A8E08927477D51 DUP10 PUSH1 0x60 ADD MLOAD PUSH1 0x1 PUSH1 0x0 SWAP1 SLOAD SWAP1 PUSH2 0x100 EXP SWAP1 DIV PUSH20 0xFFFFFFFFFFFFFFFFFFFFFFFFFFFFFFFFFFFFFFFF AND PUSH1 0x2 PUSH1 0x0 SWAP1 SLOAD SWAP1 PUSH2 0x100 EXP SWAP1 DIV PUSH20 0xFFFFFFFFFFFFFFFFFFFFFFFFFFFFFFFFFFFFFFFF AND DUP16 DUP13 PUSH1 0x40 MLOAD PUSH2 0x4C70 SWAP6 SWAP5 SWAP4 SWAP3 SWAP2 SWAP1 PUSH2 0x5A1D JUMP JUMPDEST PUSH1 0x40 MLOAD DUP1 SWAP2 SUB SWAP1 LOG4 PUSH2 0x4C7E JUMP JUMPDEST JUMPDEST DUP10 PUSH32 0x789F977EDB6B2CB7807BE6C4BB69148152ECF0CEEE920B518B223F2CFFA818FD PUSH1 0x6 PUSH1 0x0 DUP14 DUP2 MSTORE PUSH1 0x20 ADD SWAP1 DUP2 MSTORE PUSH1 0x20 ADD PUSH1 0x0 KECCAK256 PUSH1 0x0 ADD PUSH1 0x0 SWAP1 SLOAD SWAP1 PUSH2 0x100 EXP SWAP1 DIV PUSH16 0xFFFFFFFFFFFFFFFFFFFFFFFFFFFFFFFF AND PUSH1 0x6 PUSH1 0x0 DUP15 DUP2 MSTORE PUSH1 0x20 ADD SWAP1 DUP2 MSTORE PUSH1 0x20 ADD PUSH1 0x0 KECCAK256 PUSH1 0x0 ADD PUSH1 0x10 SWAP1 SLOAD SWAP1 PUSH2 0x100 EXP SWAP1 DIV PUSH16 0xFFFFFFFFFFFFFFFFFFFFFFFFFFFFFFFF AND PUSH1 0x40 MLOAD PUSH2 0x4D14 SWAP3 SWAP2 SWAP1 PUSH2 0x5A70 JUMP JUMPDEST PUSH1 0x40 MLOAD DUP1 SWAP2 SUB SWAP1 LOG2 PUSH1 0x0 PUSH1 0x6 PUSH1 0x0 DUP13 DUP2 MSTORE PUSH1 0x20 ADD SWAP1 DUP2 MSTORE PUSH1 0x20 ADD PUSH1 0x0 KECCAK256 PUSH1 0x0 ADD PUSH1 0x0 SWAP1 SLOAD SWAP1 PUSH2 0x100 EXP SWAP1 DIV PUSH16 0xFFFFFFFFFFFFFFFFFFFFFFFFFFFFFFFF AND PUSH16 0xFFFFFFFFFFFFFFFFFFFFFFFFFFFFFFFF AND SUB PUSH2 0x4EDC JUMPI PUSH1 0x6 PUSH1 0x0 DUP12 DUP2 MSTORE PUSH1 0x20 ADD SWAP1 DUP2 MSTORE PUSH1 0x20 ADD PUSH1 0x0 KECCAK256 PUSH1 0x0 DUP1 DUP3 ADD PUSH1 0x0 PUSH2 0x100 EXP DUP2 SLOAD SWAP1 PUSH16 0xFFFFFFFFFFFFFFFFFFFFFFFFFFFFFFFF MUL NOT AND SWAP1 SSTORE PUSH1 0x0 DUP3 ADD PUSH1 0x10 PUSH2 0x100 EXP DUP2 SLOAD SWAP1 PUSH16 0xFFFFFFFFFFFFFFFFFFFFFFFFFFFFFFFF MUL NOT AND SWAP1 SSTORE PUSH1 0x1 DUP3 ADD PUSH1 0x0 PUSH2 0x100 EXP DUP2 SLOAD SWAP1 PUSH20 0xFFFFFFFFFFFFFFFFFFFFFFFFFFFFFFFFFFFFFFFF MUL NOT AND SWAP1 SSTORE PUSH1 0x1 DUP3 ADD PUSH1 0x14 PUSH2 0x100 EXP DUP2 SLOAD SWAP1 PUSH1 0xFF MUL NOT AND SWAP1 SSTORE PUSH1 0x1 DUP3 ADD PUSH1 0x15 PUSH2 0x100 EXP DUP2 SLOAD SWAP1 PUSH1 0xFF MUL NOT AND SWAP1 SSTORE PUSH1 0x2 DUP3 ADD PUSH1 0x0 SWAP1 SSTORE POP POP PUSH1 0x0 PUSH1 0x7 PUSH1 0x0 DUP13 DUP2 MSTORE PUSH1 0x20 ADD SWAP1 DUP2 MSTORE PUSH1 0x20 ADD PUSH1 0x0 KECCAK256 DUP2 SWAP1 SSTORE POP DUP6 PUSH1 0x40 ADD MLOAD PUSH20 0xFFFFFFFFFFFFFFFFFFFFFFFFFFFFFFFFFFFFFFFF AND DUP11 PUSH32 0x656784E03A7C385A876628902E43D42B36F34918046DFFA661230A9DAD4E7BA4 PUSH1 0x1 PUSH1 0x0 SWAP1 SLOAD SWAP1 PUSH2 0x100 EXP SWAP1 DIV PUSH20 0xFFFFFFFFFFFFFFFFFFFFFFFFFFFFFFFFFFFFFFFF AND PUSH1 0x2 PUSH1 0x0 SWAP1 SLOAD SWAP1 PUSH2 0x100 EXP SWAP1 DIV PUSH20 0xFFFFFFFFFFFFFFFFFFFFFFFFFFFFFFFFFFFFFFFF AND PUSH1 0x40 MLOAD PUSH2 0x4EC5 SWAP3 SWAP2 SWAP1 PUSH2 0x54D4 JUMP JUMPDEST PUSH1 0x40 MLOAD DUP1 SWAP2 SUB SWAP1 LOG3 PUSH1 0x1 SWAP8 POP POP POP POP POP POP POP PUSH2 0x4EE7 JUMP JUMPDEST PUSH1 0x0 SWAP8 POP POP POP POP POP POP POP JUMPDEST POP SWAP3 SWAP2 POP POP JUMP JUMPDEST PUSH2 0x4EF6 PUSH2 0x5030 JUMP JUMPDEST PUSH20 0xFFFFFFFFFFFFFFFFFFFFFFFFFFFFFFFFFFFFFFFF AND PUSH2 0x4F14 PUSH2 0x1CE4 JUMP JUMPDEST PUSH20 0xFFFFFFFFFFFFFFFFFFFFFFFFFFFFFFFFFFFFFFFF AND EQ PUSH2 0x4F6A JUMPI PUSH1 0x40 MLOAD PUSH32 0x8C379A000000000000000000000000000000000000000000000000000000000 DUP2 MSTORE PUSH1 0x4 ADD PUSH2 0x4F61 SWAP1 PUSH2 0x5AE5 JUMP JUMPDEST PUSH1 0x40 MLOAD DUP1 SWAP2 SUB SWAP1 REVERT JUMPDEST JUMP JUMPDEST PUSH1 0x0 DUP1 PUSH1 0x0 SWAP1 SLOAD SWAP1 PUSH2 0x100 EXP SWAP1 DIV PUSH20 0xFFFFFFFFFFFFFFFFFFFFFFFFFFFFFFFFFFFFFFFF AND SWAP1 POP DUP2 PUSH1 0x0 DUP1 PUSH2 0x100 EXP DUP2 SLOAD DUP2 PUSH20 0xFFFFFFFFFFFFFFFFFFFFFFFFFFFFFFFFFFFFFFFF MUL NOT AND SWAP1 DUP4 PUSH20 0xFFFFFFFFFFFFFFFFFFFFFFFFFFFFFFFFFFFFFFFF AND MUL OR SWAP1 SSTORE POP DUP2 PUSH20 0xFFFFFFFFFFFFFFFFFFFFFFFFFFFFFFFFFFFFFFFF AND DUP2 PUSH20 0xFFFFFFFFFFFFFFFFFFFFFFFFFFFFFFFFFFFFFFFF AND PUSH32 0x8BE0079C531659141344CD1FD0A4F28419497F9722A3DAAFE3B4186F6B6457E0 PUSH1 0x40 MLOAD PUSH1 0x40 MLOAD DUP1 SWAP2 SUB SWAP1 LOG3 POP POP JUMP JUMPDEST PUSH1 0x0 CALLER SWAP1 POP SWAP1 JUMP JUMPDEST PUSH1 0x40 MLOAD DUP1 PUSH1 0xC0 ADD PUSH1 0x40 MSTORE DUP1 PUSH1 0x0 PUSH16 0xFFFFFFFFFFFFFFFFFFFFFFFFFFFFFFFF AND DUP2 MSTORE PUSH1 0x20 ADD PUSH1 0x0 PUSH16 0xFFFFFFFFFFFFFFFFFFFFFFFFFFFFFFFF AND DUP2 MSTORE PUSH1 0x20 ADD PUSH1 0x0 PUSH20 0xFFFFFFFFFFFFFFFFFFFFFFFFFFFFFFFFFFFFFFFF AND DUP2 MSTORE PUSH1 0x20 ADD PUSH1 0x0 PUSH1 0xFF AND DUP2 MSTORE PUSH1 0x20 ADD PUSH1 0x0 PUSH1 0xFF AND DUP2 MSTORE PUSH1 0x20 ADD PUSH1 0x0 DUP2 MSTORE POP SWAP1 JUMP JUMPDEST PUSH1 0x0 DUP1 REVERT JUMPDEST PUSH1 0x0 DUP2 SWAP1 POP SWAP2 SWAP1 POP JUMP JUMPDEST PUSH2 0x50C6 DUP2 PUSH2 0x50B3 JUMP JUMPDEST DUP2 EQ PUSH2 0x50D1 JUMPI PUSH1 0x0 DUP1 REVERT JUMPDEST POP JUMP JUMPDEST PUSH1 0x0 DUP2 CALLDATALOAD SWAP1 POP PUSH2 0x50E3 DUP2 PUSH2 0x50BD JUMP JUMPDEST SWAP3 SWAP2 POP POP JUMP JUMPDEST PUSH1 0x0 PUSH1 0x20 DUP3 DUP5 SUB SLT ISZERO PUSH2 0x50FF JUMPI PUSH2 0x50FE PUSH2 0x50AE JUMP JUMPDEST JUMPDEST PUSH1 0x0 PUSH2 0x510D DUP5 DUP3 DUP6 ADD PUSH2 0x50D4 JUMP JUMPDEST SWAP2 POP POP SWAP3 SWAP2 POP POP JUMP JUMPDEST PUSH2 0x511F DUP2 PUSH2 0x50B3 JUMP JUMPDEST DUP3 MSTORE POP POP JUMP JUMPDEST PUSH1 0x0 PUSH1 0x60 DUP3 ADD SWAP1 POP PUSH2 0x513A PUSH1 0x0 DUP4 ADD DUP7 PUSH2 0x5116 JUMP JUMPDEST PUSH2 0x5147 PUSH1 0x20 DUP4 ADD DUP6 PUSH2 0x5116 JUMP JUMPDEST PUSH2 0x5154 PUSH1 0x40 DUP4 ADD DUP5 PUSH2 0x5116 JUMP JUMPDEST SWAP5 SWAP4 POP POP POP POP JUMP JUMPDEST PUSH1 0x0 PUSH16 0xFFFFFFFFFFFFFFFFFFFFFFFFFFFFFFFF DUP3 AND SWAP1 POP SWAP2 SWAP1 POP JUMP JUMPDEST PUSH2 0x5181 DUP2 PUSH2 0x515C JUMP JUMPDEST DUP3 MSTORE POP POP JUMP JUMPDEST PUSH1 0x0 PUSH1 0x20 DUP3 ADD SWAP1 POP PUSH2 0x519C PUSH1 0x0 DUP4 ADD DUP5 PUSH2 0x5178 JUMP JUMPDEST SWAP3 SWAP2 POP POP JUMP JUMPDEST PUSH1 0x0 PUSH20 0xFFFFFFFFFFFFFFFFFFFFFFFFFFFFFFFFFFFFFFFF DUP3 AND SWAP1 POP SWAP2 SWAP1 POP JUMP JUMPDEST PUSH1 0x0 DUP2 SWAP1 POP SWAP2 SWAP1 POP JUMP JUMPDEST PUSH1 0x0 PUSH2 0x51E7 PUSH2 0x51E2 PUSH2 0x51DD DUP5 PUSH2 0x51A2 JUMP JUMPDEST PUSH2 0x51C2 JUMP JUMPDEST PUSH2 0x51A2 JUMP JUMPDEST SWAP1 POP SWAP2 SWAP1 POP JUMP JUMPDEST PUSH1 0x0 PUSH2 0x51F9 DUP3 PUSH2 0x51CC JUMP JUMPDEST SWAP1 POP SWAP2 SWAP1 POP JUMP JUMPDEST PUSH1 0x0 PUSH2 0x520B DUP3 PUSH2 0x51EE JUMP JUMPDEST SWAP1 POP SWAP2 SWAP1 POP JUMP JUMPDEST PUSH2 0x521B DUP2 PUSH2 0x5200 JUMP JUMPDEST DUP3 MSTORE POP POP JUMP JUMPDEST PUSH1 0x0 PUSH1 0x20 DUP3 ADD SWAP1 POP PUSH2 0x5236 PUSH1 0x0 DUP4 ADD DUP5 PUSH2 0x5212 JUMP JUMPDEST SWAP3 SWAP2 POP POP JUMP JUMPDEST PUSH1 0x0 PUSH2 0x5247 DUP3 PUSH2 0x51A2 JUMP JUMPDEST SWAP1 POP SWAP2 SWAP1 POP JUMP JUMPDEST PUSH2 0x5257 DUP2 PUSH2 0x523C JUMP JUMPDEST DUP3 MSTORE POP POP JUMP JUMPDEST PUSH1 0x0 PUSH1 0x20 DUP3 ADD SWAP1 POP PUSH2 0x5272 PUSH1 0x0 DUP4 ADD DUP5 PUSH2 0x524E JUMP JUMPDEST SWAP3 SWAP2 POP POP JUMP JUMPDEST PUSH2 0x5281 DUP2 PUSH2 0x515C JUMP JUMPDEST DUP2 EQ PUSH2 0x528C JUMPI PUSH1 0x0 DUP1 REVERT JUMPDEST POP JUMP JUMPDEST PUSH1 0x0 DUP2 CALLDATALOAD SWAP1 POP PUSH2 0x529E DUP2 PUSH2 0x5278 JUMP JUMPDEST SWAP3 SWAP2 POP POP JUMP JUMPDEST PUSH1 0x0 PUSH1 0xFF DUP3 AND SWAP1 POP SWAP2 SWAP1 POP JUMP JUMPDEST PUSH2 0x52BA DUP2 PUSH2 0x52A4 JUMP JUMPDEST DUP2 EQ PUSH2 0x52C5 JUMPI PUSH1 0x0 DUP1 REVERT JUMPDEST POP JUMP JUMPDEST PUSH1 0x0 DUP2 CALLDATALOAD SWAP1 POP PUSH2 0x52D7 DUP2 PUSH2 0x52B1 JUMP JUMPDEST SWAP3 SWAP2 POP POP JUMP JUMPDEST PUSH1 0x0 DUP1 PUSH1 0x0 PUSH1 0x60 DUP5 DUP7 SUB SLT ISZERO PUSH2 0x52F6 JUMPI PUSH2 0x52F5 PUSH2 0x50AE JUMP JUMPDEST JUMPDEST PUSH1 0x0 PUSH2 0x5304 DUP7 DUP3 DUP8 ADD PUSH2 0x528F JUMP JUMPDEST SWAP4 POP POP PUSH1 0x20 PUSH2 0x5315 DUP7 DUP3 DUP8 ADD PUSH2 0x528F JUMP JUMPDEST SWAP3 POP POP PUSH1 0x40 PUSH2 0x5326 DUP7 DUP3 DUP8 ADD PUSH2 0x52C8 JUMP JUMPDEST SWAP2 POP POP SWAP3 POP SWAP3 POP SWAP3 JUMP JUMPDEST PUSH1 0x0 DUP1 PUSH1 0x0 DUP1 PUSH1 0x80 DUP6 DUP8 SUB SLT ISZERO PUSH2 0x534A JUMPI PUSH2 0x5349 PUSH2 0x50AE JUMP JUMPDEST JUMPDEST PUSH1 0x0 PUSH2 0x5358 DUP8 DUP3 DUP9 ADD PUSH2 0x528F JUMP JUMPDEST SWAP5 POP POP PUSH1 0x20 PUSH2 0x5369 DUP8 DUP3 DUP9 ADD PUSH2 0x528F JUMP JUMPDEST SWAP4 POP POP PUSH1 0x40 PUSH2 0x537A DUP8 DUP3 DUP9 ADD PUSH2 0x52C8 JUMP JUMPDEST SWAP3 POP POP PUSH1 0x60 PUSH2 0x538B DUP8 DUP3 DUP9 ADD PUSH2 0x50D4 JUMP JUMPDEST SWAP2 POP POP SWAP3 SWAP6 SWAP2 SWAP5 POP SWAP3 POP JUMP JUMPDEST PUSH1 0x0 DUP1 PUSH1 0x40 DUP4 DUP6 SUB SLT ISZERO PUSH2 0x53AE JUMPI PUSH2 0x53AD PUSH2 0x50AE JUMP JUMPDEST JUMPDEST PUSH1 0x0 PUSH2 0x53BC DUP6 DUP3 DUP7 ADD PUSH2 0x528F JUMP JUMPDEST SWAP3 POP POP PUSH1 0x20 PUSH2 0x53CD DUP6 DUP3 DUP7 ADD PUSH2 0x52C8 JUMP JUMPDEST SWAP2 POP POP SWAP3 POP SWAP3 SWAP1 POP JUMP JUMPDEST PUSH1 0x0 PUSH1 0x20 DUP3 DUP5 SUB SLT ISZERO PUSH2 0x53ED JUMPI PUSH2 0x53EC PUSH2 0x50AE JUMP JUMPDEST JUMPDEST PUSH1 0x0 PUSH2 0x53FB DUP5 DUP3 DUP6 ADD PUSH2 0x528F JUMP JUMPDEST SWAP2 POP POP SWAP3 SWAP2 POP POP JUMP JUMPDEST PUSH2 0x540D DUP2 PUSH2 0x52A4 JUMP JUMPDEST DUP3 MSTORE POP POP JUMP JUMPDEST PUSH1 0x0 PUSH1 0x80 DUP3 ADD SWAP1 POP PUSH2 0x5428 PUSH1 0x0 DUP4 ADD DUP8 PUSH2 0x5178 JUMP JUMPDEST PUSH2 0x5435 PUSH1 0x20 DUP4 ADD DUP7 PUSH2 0x5178 JUMP JUMPDEST PUSH2 0x5442 PUSH1 0x40 DUP4 ADD DUP6 PUSH2 0x524E JUMP JUMPDEST PUSH2 0x544F PUSH1 0x60 DUP4 ADD DUP5 PUSH2 0x5404 JUMP JUMPDEST SWAP6 SWAP5 POP POP POP POP POP JUMP JUMPDEST PUSH1 0x0 PUSH1 0xC0 DUP3 ADD SWAP1 POP PUSH2 0x546D PUSH1 0x0 DUP4 ADD DUP10 PUSH2 0x5178 JUMP JUMPDEST PUSH2 0x547A PUSH1 0x20 DUP4 ADD DUP9 PUSH2 0x5178 JUMP JUMPDEST PUSH2 0x5487 PUSH1 0x40 DUP4 ADD DUP8 PUSH2 0x524E JUMP JUMPDEST PUSH2 0x5494 PUSH1 0x60 DUP4 ADD DUP7 PUSH2 0x5404 JUMP JUMPDEST PUSH2 0x54A1 PUSH1 0x80 DUP4 ADD DUP6 PUSH2 0x5404 JUMP JUMPDEST PUSH2 0x54AE PUSH1 0xA0 DUP4 ADD DUP5 PUSH2 0x5116 JUMP JUMPDEST SWAP8 SWAP7 POP POP POP POP POP POP POP JUMP JUMPDEST PUSH1 0x0 PUSH1 0x20 DUP3 ADD SWAP1 POP PUSH2 0x54CE PUSH1 0x0 DUP4 ADD DUP5 PUSH2 0x5116 JUMP JUMPDEST SWAP3 SWAP2 POP POP JUMP JUMPDEST PUSH1 0x0 PUSH1 0x40 DUP3 ADD SWAP1 POP PUSH2 0x54E9 PUSH1 0x0 DUP4 ADD DUP6 PUSH2 0x5212 JUMP JUMPDEST PUSH2 0x54F6 PUSH1 0x20 DUP4 ADD DUP5 PUSH2 0x5212 JUMP JUMPDEST SWAP4 SWAP3 POP POP POP JUMP JUMPDEST PUSH2 0x5506 DUP2 PUSH2 0x523C JUMP JUMPDEST DUP2 EQ PUSH2 0x5511 JUMPI PUSH1 0x0 DUP1 REVERT JUMPDEST POP JUMP JUMPDEST PUSH1 0x0 DUP2 CALLDATALOAD SWAP1 POP PUSH2 0x5523 DUP2 PUSH2 0x54FD JUMP JUMPDEST SWAP3 SWAP2 POP POP JUMP JUMPDEST PUSH1 0x0 PUSH1 0x20 DUP3 DUP5 SUB SLT ISZERO PUSH2 0x553F JUMPI PUSH2 0x553E PUSH2 0x50AE JUMP JUMPDEST JUMPDEST PUSH1 0x0 PUSH2 0x554D DUP5 DUP3 DUP6 ADD PUSH2 0x5514 JUMP JUMPDEST SWAP2 POP POP SWAP3 SWAP2 POP POP JUMP JUMPDEST PUSH32 0x4E487B7100000000000000000000000000000000000000000000000000000000 PUSH1 0x0 MSTORE PUSH1 0x11 PUSH1 0x4 MSTORE PUSH1 0x24 PUSH1 0x0 REVERT JUMPDEST PUSH1 0x0 PUSH2 0x5590 DUP3 PUSH2 0x515C JUMP JUMPDEST SWAP2 POP PUSH2 0x559B DUP4 PUSH2 0x515C JUMP JUMPDEST SWAP3 POP DUP3 DUP3 MUL PUSH2 0x55A9 DUP2 PUSH2 0x515C JUMP JUMPDEST SWAP2 POP DUP1 DUP3 EQ PUSH2 0x55BB JUMPI PUSH2 0x55BA PUSH2 0x5556 JUMP JUMPDEST JUMPDEST POP SWAP3 SWAP2 POP POP JUMP JUMPDEST PUSH32 0x4E487B7100000000000000000000000000000000000000000000000000000000 PUSH1 0x0 MSTORE PUSH1 0x12 PUSH1 0x4 MSTORE PUSH1 0x24 PUSH1 0x0 REVERT JUMPDEST PUSH1 0x0 PUSH2 0x55FC DUP3 PUSH2 0x515C JUMP JUMPDEST SWAP2 POP PUSH2 0x5607 DUP4 PUSH2 0x515C JUMP JUMPDEST SWAP3 POP DUP3 PUSH2 0x5617 JUMPI PUSH2 0x5616 PUSH2 0x55C2 JUMP JUMPDEST JUMPDEST DUP3 DUP3 DIV SWAP1 POP SWAP3 SWAP2 POP POP JUMP JUMPDEST PUSH1 0x0 PUSH2 0x562D DUP3 PUSH2 0x50B3 JUMP JUMPDEST SWAP2 POP PUSH2 0x5638 DUP4 PUSH2 0x50B3 JUMP JUMPDEST SWAP3 POP DUP3 DUP3 MUL PUSH2 0x5646 DUP2 PUSH2 0x50B3 JUMP JUMPDEST SWAP2 POP DUP3 DUP3 DIV DUP5 EQ DUP4 ISZERO OR PUSH2 0x565D JUMPI PUSH2 0x565C PUSH2 0x5556 JUMP JUMPDEST JUMPDEST POP SWAP3 SWAP2 POP POP JUMP JUMPDEST PUSH1 0x0 PUSH2 0x566F DUP3 PUSH2 0x50B3 JUMP JUMPDEST SWAP2 POP PUSH2 0x567A DUP4 PUSH2 0x50B3 JUMP JUMPDEST SWAP3 POP DUP3 PUSH2 0x568A JUMPI PUSH2 0x5689 PUSH2 0x55C2 JUMP JUMPDEST JUMPDEST DUP3 DUP3 DIV SWAP1 POP SWAP3 SWAP2 POP POP JUMP JUMPDEST PUSH1 0x0 PUSH2 0x56A0 DUP3 PUSH2 0x515C JUMP JUMPDEST SWAP2 POP PUSH2 0x56AB DUP4 PUSH2 0x515C JUMP JUMPDEST SWAP3 POP DUP3 DUP3 SUB SWAP1 POP PUSH16 0xFFFFFFFFFFFFFFFFFFFFFFFFFFFFFFFF DUP2 GT ISZERO PUSH2 0x56D3 JUMPI PUSH2 0x56D2 PUSH2 0x5556 JUMP JUMPDEST JUMPDEST SWAP3 SWAP2 POP POP JUMP JUMPDEST PUSH1 0x0 DUP3 DUP3 MSTORE PUSH1 0x20 DUP3 ADD SWAP1 POP SWAP3 SWAP2 POP POP JUMP JUMPDEST PUSH32 0x4F776E61626C653A206E6577206F776E657220697320746865207A65726F2061 PUSH1 0x0 DUP3 ADD MSTORE PUSH32 0x6464726573730000000000000000000000000000000000000000000000000000 PUSH1 0x20 DUP3 ADD MSTORE POP JUMP JUMPDEST PUSH1 0x0 PUSH2 0x5746 PUSH1 0x26 DUP4 PUSH2 0x56D9 JUMP JUMPDEST SWAP2 POP PUSH2 0x5751 DUP3 PUSH2 0x56EA JUMP JUMPDEST PUSH1 0x40 DUP3 ADD SWAP1 POP SWAP2 SWAP1 POP JUMP JUMPDEST PUSH1 0x0 PUSH1 0x20 DUP3 ADD SWAP1 POP DUP2 DUP2 SUB PUSH1 0x0 DUP4 ADD MSTORE PUSH2 0x5775 DUP2 PUSH2 0x5739 JUMP JUMPDEST SWAP1 POP SWAP2 SWAP1 POP JUMP JUMPDEST PUSH32 0x5265656E7472616E637947756172643A207265656E7472616E742063616C6C00 PUSH1 0x0 DUP3 ADD MSTORE POP JUMP JUMPDEST PUSH1 0x0 PUSH2 0x57B2 PUSH1 0x1F DUP4 PUSH2 0x56D9 JUMP JUMPDEST SWAP2 POP PUSH2 0x57BD DUP3 PUSH2 0x577C JUMP JUMPDEST PUSH1 0x20 DUP3 ADD SWAP1 POP SWAP2 SWAP1 POP JUMP JUMPDEST PUSH1 0x0 PUSH1 0x20 DUP3 ADD SWAP1 POP DUP2 DUP2 SUB PUSH1 0x0 DUP4 ADD MSTORE PUSH2 0x57E1 DUP2 PUSH2 0x57A5 JUMP JUMPDEST SWAP1 POP SWAP2 SWAP1 POP JUMP JUMPDEST PUSH1 0x0 PUSH2 0x5803 PUSH2 0x57FE PUSH2 0x57F9 DUP5 PUSH2 0x515C JUMP JUMPDEST PUSH2 0x51C2 JUMP JUMPDEST PUSH2 0x50B3 JUMP JUMPDEST SWAP1 POP SWAP2 SWAP1 POP JUMP JUMPDEST PUSH2 0x5813 DUP2 PUSH2 0x57E8 JUMP JUMPDEST DUP3 MSTORE POP POP JUMP JUMPDEST PUSH1 0x0 PUSH1 0x40 DUP3 ADD SWAP1 POP PUSH2 0x582E PUSH1 0x0 DUP4 ADD DUP6 PUSH2 0x524E JUMP JUMPDEST PUSH2 0x583B PUSH1 0x20 DUP4 ADD DUP5 PUSH2 0x580A JUMP JUMPDEST SWAP4 SWAP3 POP POP POP JUMP JUMPDEST PUSH1 0x0 DUP2 ISZERO ISZERO SWAP1 POP SWAP2 SWAP1 POP JUMP JUMPDEST PUSH2 0x5857 DUP2 PUSH2 0x5842 JUMP JUMPDEST DUP2 EQ PUSH2 0x5862 JUMPI PUSH1 0x0 DUP1 REVERT JUMPDEST POP JUMP JUMPDEST PUSH1 0x0 DUP2 MLOAD SWAP1 POP PUSH2 0x5874 DUP2 PUSH2 0x584E JUMP JUMPDEST SWAP3 SWAP2 POP POP JUMP JUMPDEST PUSH1 0x0 PUSH1 0x20 DUP3 DUP5 SUB SLT ISZERO PUSH2 0x5890 JUMPI PUSH2 0x588F PUSH2 0x50AE JUMP JUMPDEST JUMPDEST PUSH1 0x0 PUSH2 0x589E DUP5 DUP3 DUP6 ADD PUSH2 0x5865 JUMP JUMPDEST SWAP2 POP POP SWAP3 SWAP2 POP POP JUMP JUMPDEST PUSH1 0x0 PUSH1 0x60 DUP3 ADD SWAP1 POP PUSH2 0x58BC PUSH1 0x0 DUP4 ADD DUP7 PUSH2 0x524E JUMP JUMPDEST PUSH2 0x58C9 PUSH1 0x20 DUP4 ADD DUP6 PUSH2 0x524E JUMP JUMPDEST PUSH2 0x58D6 PUSH1 0x40 DUP4 ADD DUP5 PUSH2 0x5116 JUMP JUMPDEST SWAP5 SWAP4 POP POP POP POP JUMP JUMPDEST PUSH1 0x0 PUSH2 0x58E9 DUP3 PUSH2 0x50B3 JUMP JUMPDEST SWAP2 POP PUSH32 0xFFFFFFFFFFFFFFFFFFFFFFFFFFFFFFFFFFFFFFFFFFFFFFFFFFFFFFFFFFFFFFFF DUP3 SUB PUSH2 0x591B JUMPI PUSH2 0x591A PUSH2 0x5556 JUMP JUMPDEST JUMPDEST PUSH1 0x1 DUP3 ADD SWAP1 POP SWAP2 SWAP1 POP JUMP JUMPDEST PUSH1 0x0 PUSH1 0xA0 DUP3 ADD SWAP1 POP PUSH2 0x593B PUSH1 0x0 DUP4 ADD DUP9 PUSH2 0x5212 JUMP JUMPDEST PUSH2 0x5948 PUSH1 0x20 DUP4 ADD DUP8 PUSH2 0x5212 JUMP JUMPDEST PUSH2 0x5955 PUSH1 0x40 DUP4 ADD DUP7 PUSH2 0x5404 JUMP JUMPDEST PUSH2 0x5962 PUSH1 0x60 DUP4 ADD DUP6 PUSH2 0x5178 JUMP JUMPDEST PUSH2 0x596F PUSH1 0x80 DUP4 ADD DUP5 PUSH2 0x5178 JUMP JUMPDEST SWAP7 SWAP6 POP POP POP POP POP POP JUMP JUMPDEST PUSH1 0x0 PUSH2 0x5984 DUP3 PUSH2 0x515C JUMP JUMPDEST SWAP2 POP PUSH2 0x598F DUP4 PUSH2 0x515C JUMP JUMPDEST SWAP3 POP DUP3 DUP3 ADD SWAP1 POP PUSH16 0xFFFFFFFFFFFFFFFFFFFFFFFFFFFFFFFF DUP2 GT ISZERO PUSH2 0x59B7 JUMPI PUSH2 0x59B6 PUSH2 0x5556 JUMP JUMPDEST JUMPDEST SWAP3 SWAP2 POP POP JUMP JUMPDEST PUSH1 0x0 PUSH1 0x60 DUP3 ADD SWAP1 POP PUSH2 0x59D2 PUSH1 0x0 DUP4 ADD DUP7 PUSH2 0x524E JUMP JUMPDEST PUSH2 0x59DF PUSH1 0x20 DUP4 ADD DUP6 PUSH2 0x524E JUMP JUMPDEST PUSH2 0x59EC PUSH1 0x40 DUP4 ADD DUP5 PUSH2 0x580A JUMP JUMPDEST SWAP5 SWAP4 POP POP POP POP JUMP JUMPDEST PUSH1 0x0 PUSH1 0x40 DUP3 ADD SWAP1 POP PUSH2 0x5A09 PUSH1 0x0 DUP4 ADD DUP6 PUSH2 0x5212 JUMP JUMPDEST PUSH2 0x5A16 PUSH1 0x20 DUP4 ADD DUP5 PUSH2 0x5178 JUMP JUMPDEST SWAP4 SWAP3 POP POP POP JUMP JUMPDEST PUSH1 0x0 PUSH1 0xA0 DUP3 ADD SWAP1 POP PUSH2 0x5A32 PUSH1 0x0 DUP4 ADD DUP9 PUSH2 0x5404 JUMP JUMPDEST PUSH2 0x5A3F PUSH1 0x20 DUP4 ADD DUP8 PUSH2 0x5212 JUMP JUMPDEST PUSH2 0x5A4C PUSH1 0x40 DUP4 ADD DUP7 PUSH2 0x5212 JUMP JUMPDEST PUSH2 0x5A59 PUSH1 0x60 DUP4 ADD DUP6 PUSH2 0x5178 JUMP JUMPDEST PUSH2 0x5A66 PUSH1 0x80 DUP4 ADD DUP5 PUSH2 0x5178 JUMP JUMPDEST SWAP7 SWAP6 POP POP POP POP POP POP JUMP JUMPDEST PUSH1 0x0 PUSH1 0x40 DUP3 ADD SWAP1 POP PUSH2 0x5A85 PUSH1 0x0 DUP4 ADD DUP6 PUSH2 0x5178 JUMP JUMPDEST PUSH2 0x5A92 PUSH1 0x20 DUP4 ADD DUP5 PUSH2 0x5178 JUMP JUMPDEST SWAP4 SWAP3 POP POP POP JUMP JUMPDEST PUSH32 0x4F776E61626C653A2063616C6C6572206973206E6F7420746865206F776E6572 PUSH1 0x0 DUP3 ADD MSTORE POP JUMP JUMPDEST PUSH1 0x0 PUSH2 0x5ACF PUSH1 0x20 DUP4 PUSH2 0x56D9 JUMP JUMPDEST SWAP2 POP PUSH2 0x5ADA DUP3 PUSH2 0x5A99 JUMP JUMPDEST PUSH1 0x20 DUP3 ADD SWAP1 POP SWAP2 SWAP1 POP JUMP JUMPDEST PUSH1 0x0 PUSH1 0x20 DUP3 ADD SWAP1 POP DUP2 DUP2 SUB PUSH1 0x0 DUP4 ADD MSTORE PUSH2 0x5AFE DUP2 PUSH2 0x5AC2 JUMP JUMPDEST SWAP1 POP SWAP2 SWAP1 POP JUMP INVALID LOG2 PUSH5 0x6970667358 0x22 SLT KECCAK256 BLOCKHASH 0xC 0xBF 0xE6 EXP SLT PUSH16 0x4DF4F81B2B42438BA5BA852C093AC6FF CALLCODE PUSH23 0xB90C3FAD8C78C664736F6C634300081200330000000000 "},"methodIdentifiers":{"activeOrders(uint256)":"c2b5431f","asks(uint256)":"0b0c1493","bids(uint256)":"4423c5f1","cancelOrder(uint256)":"514fcac7","feeAddr()":"39e7fddc","fillOrKill(uint128,uint128,uint8)":"e9a1b82e","getMakerFee()":"1fb32b86","getTakerFee()":"3394177b","getTokenPair()":"cbbc94cf","immediateOrCancel(uint128,uint128,uint8)":"5700017f","makerFee()":"fc741c7c","makerOrder(uint128,uint128,uint8,uint256)":"62de0841","orders(uint256)":"a85c38ef","owner()":"8da5cb5b","renounceOwnership()":"715018a6","setMakerFee(uint128)":"d1e09a5e","setTakerFee(uint128)":"67a32638","take(uint128,uint8)":"638bf2c7","takerFee()":"43f0179b","token1()":"d21220a7","token2()":"25be124e","transferOwnership(address)":"f2fde38b","viewOffer(uint256)":"9b55e638"}}}}}